:020000040800F2
:1000000098040020AD010008B31300085D1100083A
:10001000B1130008B9020008B11500080000000083
:10002000000000000000000000000000B7130008FE
:10003000BB02000800000000B5130008B913000857
:10004000C7010008C7010008C7010008C701000870
:10005000C7010008C7010008C7010008C701000860
:10006000C7010008C7010008C7010008C701000850
:10007000C7010008C7010008C7010008C701000840
:10008000C7010008C7010008C70100080000000000
:10009000000000000000000000000000C701000890
:1000A000C7010008C7010008C7010008C701000810
:1000B000C7010008C7010008C7010008C701000800
:1000C000C7010008C7010008C7010008C7010008F0
:1000D000C7010008C7010008C701000800000000B0
:1000E000C7010008C7010008C701000800000000A0
:1000F000000000000000000000000000C701000830
:1001000000000000C7010008C7010008C70100087F
:1001100000000000000000000000000000000000DF
:10012000C7010008C7010008C7010008C70100088F
:10013000C7010008000000000000000000000000EF
:10014000000000000000000000000000C7010008DF
:10015000C7010008C7010008C7010008C70100085F
:10016000C7010008C70100080000000000000000EF
:10017000000000000000000000000000000000007F
:1001800000000000C701000800000000000000009F
:10019000C7010008C7010008DFF80CD000F07AF8AA
:1001A00000480047F11500089804002006488047E1
:1001B00006480047FEE7FEE7FEE7FEE7FEE7FEE74C
:1001C000FEE7FEE7FEE7FEE76D1400089901000870
:1001D0002DE9F05F0546002092469B46884606467C
:1001E000814640241BE0284641464746224600F00F
:1001F00041F853465A46C01A914110D31146184649
:10020000224600F028F82D1A67EB01084F462246D7
:100210000120002100F01FF817EB00094E41201EBD
:10022000A4F10104DFDC484631462A464346BDE8D6
:10023000F09FD2B201E000F8012B491EFBD27047BB
:100240000022F6E710B513460A4604461946FFF7A2
:10025000F0FF204610BD202A04DB203A00FA02F10C
:10026000002070479140C2F1200320FA03F31943A4
:1002700090407047202A04DB203A21FA02F0002146
:10028000704721FA02F3D040C2F1200291400843A6
:1002900019467047064C074D06E0E06840F0010340
:1002A00094E8070098471034AC42F6D3FFF778FF84
:1002B0007016000890160008FEE770472DE9F84F09
:1002C00000224FF0010803254FF00F0E0B6808FACB
:1002D00002F42340A34271D14E68012E05D0022EB4
:1002E00003D0112E01D0122E15D18668570005FAC1
:1002F00007FC26EA0C06D1F80CC00CFA07FC4CEA05
:10030000060CC0F808C04668A6430C79C4F3001474
:10031000944034434460C668570005FA07FC8C6873
:1003200026EA0C06BC403443C4604C68022C01D061
:10033000122C13D1D40800EB8404A346D4F82090E7
:1003400054074FEAD46A0EFA0AF629EA06090E693A
:1003500006FA0AF646EA0906CBF8206004680E7928
:1003600024EA0C0406F00306BE40264306604C68EF
:10037000E40056D52E4C266846F480462660246854
:1003800022F0030604F4804400942A4C3444A4462A
:10039000D4F808489607370F0EFA07F6B443264EEE
:1003A000B04201D1002615E0244EB04201D1012611
:1003B00010E0234EB04202D102260BE031E0214E84
:1003C000B04201D1032605E01F4EB04201D1042600
:1003D00000E00726BE402643CCF808681B4E346870
:1003E0004F689C43FF0300D51C433460174E361DF5
:1003F00034684F689C43BF0300D51C433460134EE0
:10040000083634684F689C43FF0200D51C433460B3
:100410000E4E0C3634684F689C43BF0200D51C4317
:100420003460521C102AFFF451AFBDE8F88F000071
:100430004438024000300140000002400004024005
:1004400000080240000C024000100240003C014045
:100450000AB1816170470904FBE700000148806828
:1004600070470000000000202DE9FF4104460068AD
:10047000816800917749784E4FF04027884201D13A
:10048000324600E03A4692680192406888460290FF
:1004900001D1304600E038464068039060684FF074
:1004A0000105B0F5007F1CD0D8B1900705D50398A1
:1004B000000602D5204600F083FE0098C0070FD04A
:1004C000029840067FD521682046CA68E16A8B1CE5
:1004D000E3620A80618E491E6186618E002967D0C1
:1004E00071E00098800719D50298000616D5616A58
:1004F00020468A1C626222680988D160618D491E8B
:100500006185618D51B901684A6822F0A0024A6094
:10051000418E19B980F8415000F0A0F80198C00749
:1005200005D00398400602D5204600F019FE019838
:10053000400622D5039880061FD52168414501D188
:10054000304600E03846406820F0600101D1304676
:1005500000E0384641602068416821F0A001416018
:100560002068C1688068019084F84150606C40F058
:1005700002006064204600F072F80098000767D51A
:100580000298800664D52068416821F0A00141608E
:100590002168414501D1304600E03846406820F0EE
:1005A000600000D03E46706020688068009043E0A4
:1005B00001684A6822F060024A60418D19B980F8EA
:1005C000415000F04BF8009840061ED50298800676
:1005D0001BD52068416821F06001416021684145D8
:1005E00001D1304600E03846406820F0A00101D13A
:1005F000304600E03846416084F84150606C40F07D
:1006000002006064204600F02AF8019800071FD518
:10061000039880061CD52168414501D1304600E091
:100620003846406820F0A00000D03E467060206848
:10063000416821F06001416084F84150606C40F0F5
:100640000400606404B02046BDE8F04100F007B843
:10065000BDE8FF810038004000340040704770471B
:100660002DE9F047040005D094F841004FF0000850
:1006700018B109E00120BDE8F08784F840805148B6
:100680006063204600F0A6F8022684F841602068E6
:10069000C16940F6BF77B943C161206806626069ED
:1006A0004FF4007902282FD0E06870B12025A068AF
:1006B000202800D86D00012000F064F92169494527
:1006C0001FD1E16819B1A90002E01025EFE7E900A8
:1006D000B0FBF1F000EB800061694000B0FBF1F08D
:1006E000401D0A21B0FBF1F000F00101401A400862
:1006F0000902821EFE2A09D3606C40F0100060647B
:10070000B8E7B0FBF5F0E5E70220002122690843D5
:10071000024320680262D4E901010843A269E1684A
:10072000114308432168CA69BA43104340F400608A
:10073000C861206A01283AD12348606323482168B0
:10074000234A4FF04023814201D1114600E019466F
:10075000C96921EA070101D1154600E01D46E9619A
:100760002168814201D1114600E019460E622568D8
:10077000854201D1114600E01946C9698EB261680F
:1007800049451BD0D1B100212789B4F80CC047EAF4
:100790000C07B4F818C04CEA010C47EA0C07B9B2D0
:1007A000314341F40061854200D01A46D161C4F85A
:1007B0004480012084F8410000205CE74FF4807100
:1007C000E2E7000021120008690400080038004038
:1007D0000034004070B586B0044614216846FFF727
:1007E0002FFD1C492068884231D11B480024016834
:1007F00041F480510160006800F480500590164873
:100800001438016841F001010160016801F0010143
:100810000591016841F0020101600068022500F0C5
:100820000200059090200090CDE901540526CDE905
:10083000034669460948FFF741FD08200090CDE9CD
:100840000154CDE9034669460548FFF737FD06B078
:1008500070BD0000003001404438024000000240FA
:1008600000040240704770470248816802781144D2
:1008700081607047000000200B4810B5016841F40A
:1008800000710160016841F480610160016841F418
:1008900080710160032000F063F8002000F006F88A
:1008A00000F024F8002010BD003C024070B50D4D52
:1008B00004464FF47A712878B1FBF0F00A490968D0
:1008C000B1FBF0F000F0D0FB48B9102C07D20022A9
:1008D0002146501E00F024F800206C6070BD0120FD
:1008E00070BD0000000000200C0000200B4882B00A
:1008F000016841F480410160006800F4804000908C
:100900000648001F016841F080510160006800F056
:1009100080500090072002B000F022B84438024016
:10092000F0B40E4B1B680C46C3F30223C3F107055A
:10093000042D00D90425191D072901D2002300E048
:10094000DB1E012606FA05F1491E214099409E4012
:10095000761E16403143F0BC00F02BBE0CED00E0DB
:10096000064900F0070208684FF6FF03184040EA06
:100970000220034A10430860704700000CED00E0BD
:100980000000FA0501460020012907D11049096835
:1009900011F4000103D0012900D10E4870470C4822
:1009A000001F006841020C48016801F03F0101D5B9
:1009B0000A4A00E00A4AB2FBF1F102680068C2F399
:1009C00088124A43C0F30270B2FBF0F07047000097
:1009D000083802400080BB008438024000127A00D0
:1009E0000024F4002DE9F843044600684FF00109A3
:1009F000C1074FF0000601D1400729D5DFF820815B
:100A0000C8F86860FFF72AFD0746464D05E000BFBD
:100A1000FFF724FDC01B022859D828680001F7D42D
:100A2000A068217B800140EA0170616808433D496C
:100A300084310860C8F86890FFF710FD074604E0AD
:100A4000FFF70CFDC01B022841D828680001F7D52C
:100A50002078800752D533484030016841F08051FA
:100A600001600068304D00F080500090286840F42C
:100A700080702860FFF7F2FC074604E0FFF7EEFC09
:100A8000C01B022823D82868C005F7D5254D70352E
:100A9000286810F4407020D0218A01F4407181420E
:100AA0001BD02868214920F44070C1F800900E60E6
:100AB00028602868C00710D0FFF7D0FC064641F236
:100AC000883707E0FFF7CAFC801BB84202D9032031
:100AD000BDE8F88328688007F4D521691148C1F37F
:100AE00001220830032A12D0016821F4F8110160B4
:100AF0002868218AC1F30B01084328602078000789
:100B000003D50B49207DC1F8E0010020E0E7026831
:100B1000084B22F4F81219400A430260E8E700008B
:100B2000000047420038024000700040400E47423B
:100B300000104742FFFCFF0F2DE9F0470E4605006D
:100B400065D0DFF81481D8F80000F7B200F00F008C
:100B5000B04207D288F80070D8F8000000F00F000B
:100B6000B04254D128683D4C810712D5400703D5C7
:100B7000206840F4E05020602878000703D5206802
:100B800040F4604020602068A96820F0F00008432D
:100B900020602878C0072DD03049686808390128BE
:100BA00012D0022813D0032811D009688907002920
:100BB0002DDA216821F0030101432160FFF74EFC8B
:100BC000814641F2883A0EE009688903EFE7096837
:100BD0008901ECE7FFF742FCA0EB0901514502D97E
:100BE0000320BDE8F0872068696800F00C00B0EBD6
:100BF000810FEFD1D8F80010404601F00F01B1424B
:100C000007D90770006800F00F00B04201D0012042
:100C1000E7E72878400705D52068E96820F4E05028
:100C2000084320602878000706D52068296920F449
:100C3000604040EAC100206000F038F82168084AAE
:100C4000C1F30311515CC8400649086006480068BA
:100C5000FFF72CFE0020C4E7003C024008380240A9
:100C6000581600080C000020040000200448054924
:100C700000680968044AC1F38221515CC84070478A
:100C80000C00002008380240681600080448054996
:100C900000680968044AC1F34231515CC84070479A
:100CA0000C0000200838024068160008154810B5EE
:100CB000006810F00C02144813D04110042A0FD021
:100CC000082A0ED10F4C241F2268236802F03F022D
:100CD0005B0207D52068C0F38810A0FB010106E085
:100CE000084610BD2168C1F38811A1FB0001002353
:100CF000FFF76EFA2168C1F30141491C4900B0FBBE
:100D0000F1F010BD083802400024F4002DE9F84F3E
:100D100004006ED02078DFF83C93C007A9F10405E9
:100D20004AD009F104000168C1F38101012908D00A
:100D30000068C0F3810002280AD1D9F800004002FF
:100D400006D52868800337D560680028E1D033E0F5
:100D50006068B0F5803F10D0B0F5A02F286810D0A3
:100D600020F480302860286820F4802028606068A3
:100D7000A8B1FFF773FB06460DE0286840F4803009
:100D8000F4E740F480202860F7E700BFFFF766FB38
:100D9000801B642873D828688003F7D50CE0FFF720
:100DA0005DFB064605E000BFFFF758FB801B64288B
:100DB000F0D828688003F7D42078DFF89C82800779
:100DC0004FF0000A3ED5A348001D016811F00C0F3A
:100DD00008D00068C0F3810002280BD1D9F80000C8
:100DE000400207D42868800716D5E068012800D1A2
:100DF00012E02BE1E068B8B10120C8F80000FFF76D
:100E00002DFB064605E000BFFFF728FB801B0228EC
:100E1000C0D828688007F7D52868216920F0F80035
:100E200040EAC10028600DE0C8F800A0FFF716FBFB
:100E3000064604E0FFF712FB801B02281FD8286833
:100E40008007F7D42078000722D5824E8348616955
:100E5000703671B101210160FFF700FB074604E025
:100E6000FFF7FCFAC01B022809D830688007F7D5C5
:100E70000EE0C0F800A0FFF7F1FA074605E082E0B7
:100E8000FFF7ECFAC01B02287DD830688007F7D442
:100E90002078400768D5DFF8BCB100270BF13C0B88
:100EA000DBF80000C0000BD4DBF8001041F08051EB
:100EB000CBF80010DBF80000012700F08050009014
:100EC000674E3068C00510D4306840F480703060E0
:100ED000FFF7C4FA009005E0FFF7C0FA0099401A46
:100EE000022850D83068C005F6D55A4EA0686C3636
:100EF00001280FD00528306810D020F001003060A4
:100F0000306820F004003060A068B8B1FFF7A6FA9E
:100F100000900FE0306840F00100F4E740F004007A
:100F20003060F7E7FFF79AFA0099411A41F28830EA
:100F3000814266D830688007F4D50EE0FFF78EFA5C
:100F4000009007E0FFF78AFA0099411A41F28830D1
:100F5000814256D830688007F4D42FB1DBF80010F6
:100F600021F08051CBF80010A069C8B33949091DA0
:100F70000968C1F3810102294AD00228504607D0EE
:100F8000C8F8600000E03CE0FFF768FA04463BE088
:100F90004746C8F86000FFF761FA064605E000BF63
:100FA000FFF75CFA801B02282BD828688001F7D451
:100FB000D4E907010843A16A2A4A490802EB014122
:100FC000626A41EA8211084394F82C1040EA0161F8
:100FD000C9F8001001203866FFF740FA044606E021
:100FE00036E000BFFFF73AFA001B022809D828684C
:100FF0008001F7D52CE000BFFFF730FA001B022874
:1010000002D90320BDE8F88F28688001F4D41FE0DE
:101010000128F7D0D9F80000E26900F4800191427C
:1010200014D1226A00F03F0191420FD147F6C071FE
:10103000626A0140914209D1A26A00F440319142B2
:1010400004D1E16A00F07060884201D00120D9E744
:101050000020D7E70438024000004742800E474294
:10106000007000400000FFFF10B5401EB0F1807F0F
:1010700001D3012010BD4FF0E02460610F21601703
:1010800000F097FA0020A06107202061002010BD29
:1010900070B5040004D094F83900002510B106E0C2
:1010A000012070BD84F83850204600F023F8242039
:1010B00084F839002068C16821F40051C1602046DD
:1010C00000F0E2F92068016921F490410161206893
:1010D000416921F02A0141612068C16841F4005151
:1010E000C160E563202084F8390084F83A000020CC
:1010F00070BD000010B586B0044614216846FFF7A5
:101100009FF813492068884220D1124800210268C4
:1011100042F400320260006800F4003005900D488F
:101120001038026842F001020260006800F001001D
:1011300005900C2000900220CDE9010103200390CE
:101140000720049069460448FFF7B8F806B010BDC0
:10115000004400404038024000000240FEE700002A
:1011600070B515490268154B4FF040248A4201D1F1
:101170001A4600E02246D568C26A961CC6621580EF
:10118000428E521E4286428E002A14D102688A4242
:1011900001D1194600E02146496821F0600100D0E4
:1011A00023465960418D002905D14FF0010180F897
:1011B0004110FFF753FA70BD003800400034004082
:1011C00070B5416A144B8A1C426205680988134A4B
:1011D0004FF040249D4201D1154600E02546E960CC
:1011E000418D491E4185418D002914D101689942E4
:1011F00001D1114600E02146496821F0A00100D04C
:1012000022465160418E002905D14FF0010180F83E
:101210004110FFF723FA70BD003800400034004051
:101220007CB5016804468868009094F84100012567
:10123000042834D10098C00718D04868C04340063D
:1012400014D4C9682046E26A1180E16A891CE1620F
:10125000618E491E6186618E41B901684A6822F03B
:1012600060024A6080F84150FFF7FCFA009840069F
:1012700015D520684168C943890610D4416821F01A
:10128000600141602068C1688068019084F8415025
:10129000606C40F0020060642046FFF7E0F994F8CB
:1012A0004100032834D10098800719D52168486887
:1012B000C043000614D4626A20461288CA60616A7C
:1012C000891C6162618D491E6185618D41B901682A
:1012D0004A6822F0A0024A6080F84150FFF7C3FA42
:1012E0000098000714D520684168C94389060FD4C7
:1012F000416821F0A001416020688068009084F876
:101300004150606C40F0040060642046FFF7A7F98C
:101310007CBD000070B586B014216846FEF790FFD2
:101320001F480024016841F004010160016801F0D8
:1013300004010591016841F080010160016801F03C
:1013400080010591016841F001010160016801F02F
:1013500001010591016841F0020101600068114E30
:1013600000F002004FF484650590002229463046C3
:10137000FFF76EF84FF4005000900B48CDE90104E0
:1013800069460A48FEF79AFF01200095CDE901045D
:10139000694630460394FEF791FF06B070BD000029
:1013A00030380240000002400000211000080240D6
:1013B000FEE7FEE770477047FFF756BAF0B599B001
:1013C00030216846FEF73CFF14210CA8FEF738FFD9
:1013D000182111A8FEF734FF22480025016841F0CA
:1013E00080510160006800F0805017901E4801682D
:1013F00041F4404101600068022400F4404017902D
:10140000012600941020CDE9036006A9082781E891
:10141000B0006420CDE9090404200B906846FFF772
:1014200075FC08B172B6FEE70CA90F2081E8310007
:101430004FF48050CDE90F0503210CA8FFF77CFB8A
:1014400008B172B6FEE7C020CDE9130411A8CDE9BA
:101450001167FFF7C7FA002801D072B6FEE719B08E
:10146000F0BD0000403802400070004005480168AF
:1014700041F47001016003494FF000608039086059
:101480007047000088ED00E02DE9F0410446006857
:101490000169E26821F44051114301612169A068AA
:1014A000E26908436169114308432168CA6849F247
:1014B0000C639A430243CA6020684169A26921F41F
:1014C000407111434161E069192764253226B0F566
:1014D000004F354A354920684FF0000806D0884251
:1014E00001D0904236D1FFF7D1FB35E0884201D0E0
:1014F000904202D1FFF7CAFB01E0FFF7B7FB61683A
:101500004A18A0FB070148EB0803FEF761FE0146FD
:10151000B0FBF5F00201B1FBF5F06FF01803584392
:1015200001EB800006EBC000B0FBF5F000F0F80026
:1015300002EB4002B1FBF5F0584301EB800006EBF3
:10154000C000B0FBF5F000F007002168104488608F
:10155000BDE8F081FFF78AFB61688B0F8A00A0FB72
:101560000701FEF735FE0146B0FBF5F06FF01802FB
:10157000504301EB800006EB0010B0FBF5F000F0EB
:10158000F002B1FBF5F002EB0012B1FBF5F06FF0E9
:101590001803584301EB800006EB0010B0FBF5F098
:1015A00000F00F00D1E700000014014000100140DE
:1015B000FEE70907090E002804DB00F1E02080F8AF
:1015C0000014704700F00F0000F1E02080F8141DB7
:1015D000704702E008C8121F08C1002AFAD17047FC
:1015E0007047002001E001C1121F002AFBD17047A3
:1015F000FFF742F9FFF7E2FEFFF78CFE14481349AC
:10160000002401604FF4E131C0E901140C21C460F1
:10161000C0E904418461C461FFF73AFD08B172B6C4
:10162000FEE70B480B49483801604915C0E9011431
:101630004FF4FA51C460C0E904418461C46104629A
:10164000FFF70EF808B172B6FEE7FEE7004400406F
:1016500058000020003001400000000000000000A1
:101660000102030406070809000000000102030448
:10167000901600080000002010000000D21500089D
:10168000A01600081000002088040000E2150008E1
:101690000100000010000000000000000024F40021
:040000050800019955
:00000001FF
