:020000040800F2
:1000000070060020A5010008AD010008AF0100083E
:10001000B1010008B3010008B501000800000000AC
:10002000000000000000000000000000B701000810
:10003000B901000800000000BB010008BD01000874
:10004000BF010008BF010008BF010008BF01000890
:10005000BF010008BF010008BF010008BF01000880
:10006000BF010008BF010008BF010008BF01000870
:10007000BF010008BF010008BF010008BF01000860
:10008000BF010008BF010008BF010008BF01000850
:10009000BF010008BF010008BF010008BF01000840
:1000A000BF010008BF010008BF010008BF01000830
:1000B000BF010008BF010008BF010008BF01000820
:1000C000BF010008BF010008BF010008BF01000810
:1000D000BF010008BF010008BF010008BF01000800
:1000E000BF010008BF010008BF01000800F002F8CE
:1000F00000F048F80AA090E8000C82448344AAF17A
:100100000107DA4501D100F03DF8AFF2090EBAE877
:100110000F0013F0010F18BFFB1A43F0010318473B
:10012000800D0000A00D0000103A24BF78C878C1EF
:10013000FAD8520724BF30C830C144BF04680C60ED
:10014000704700000023002400250026103A28BF35
:1001500078C1FBD8520728BF30C148BF0B60704739
:10016000642900F07F80002070471FB500F09EFCDE
:1001700004000020002100F07DFE401C60601FBDD7
:1001800010B510BD00F070FA1146FFF7EEFF00F059
:100190000FFE00F075FC03B4FFF7F2FF03BC00F0A4
:1001A00089FC00000948804709480047FEE7FEE750
:1001B000FEE7FEE7FEE7FEE7FEE7FEE7FEE7FEE717
:1001C00004480549054A064B70470000610C0008C9
:1001D000ED00000870000020700600207002002072
:1001E000700200200FB4044910B503AA029800F071
:1001F000B9F910BC5DF814FB040000202DE9F041B2
:100200000E460446002020622046E168884730B34D
:10021000252805D0D4E901219047206A401CF2E747
:10022000E168204600278847050018D0A5F1410065
:10023000192802D820354FF4006732462946204657
:100240002760FFF78DFF40B1012804D0F61D26F08E
:1002500007060836D8E7361DD6E72846DAE7206ACB
:10026000BDE8F0812DE9F0410646002410687529AB
:10027000314616A510D0AFF30080002802DA4042C4
:1002800013A507E031688A0701D512A502E04907E6
:1002900004D511A5012401E0AFF3008000210A225A
:1002A00006F1240709E0B0FBF2FCB0FBF2F302FB1D
:1002B0001C00303078541846491C0028F3D12346DE
:1002C0002A463046BDE8F04100F0F3B800000000D7
:1002D0002D0000002B000000200000000FB400B52E
:1002E00089B00BA86A46009003480A9900F05AF9B1
:1002F00009B05DF814FB0000000000202DE9FF5F4D
:100300001D464FF0FF3B91464FF000085F46D5E990
:100310000146A96901987F1C8847296A8246884757
:100320000028F6D1BAF1FF3F0CD0002E24F4C064AF
:1003300019DD600614D5BAF12B0F09D0BAF12D0FD3
:100340000ED103E0584604B0BDE8F09F44F4806449
:10035000A96901987F1C8847761E8246002E02DD1F
:10036000BAF1300F03D0B9F1000F26D032E0A969FD
:10037000761E01987F1C44F400748847002E824644
:1003800005DDBAF1780F06D0BAF1580F03D0B9F1F4
:10039000000F10D01EE0B9F1000F02D0B9F1100F1C
:1003A00018D1A969761E01987F1C24F4007488472F
:1003B0008246102002E0082000E00A20814609E081
:1003C000A96908FB0908761E01987F1C44F4007493
:1003D00088478246002E05DD4946504600F0D4F895
:1003E0000028EDDAE96901988847A00502D46FF08A
:1003F0000100A8E7E00725D1600613D5600502D506
:10040000C8F1000000E0404629680A1D2A6009681A
:10041000220501D5087015E0220701D5088011E0FA
:1004200008600FE02868011D29600068210502D5D9
:1004300080F8008006E0210702D5A0F8008001E0E6
:10044000C0F8008038467EE770B5044605460B4884
:1004500000F096FC411C04D00A280BD004F8010BD4
:10046000F5E7AC4201D1002070BD044800F0A6F8C9
:1004700000B1002500202070284670BD000000203B
:1004800010B5044603E000F08BFC401C09D014F8C2
:10049000010B05490028F6D1BDE810400A2000F004
:1004A0007FBC4FF0FF3010BD040000207047704744
:1004B00070472DE9F0470D4699469246044600F1F3
:1004C00024080168880604D5E06921F01001216044
:1004D00000E00120A84201DD471B00E00027A169E0
:1004E0007A1902EB0900081AA0612078C00602D42C
:1004F0002046AFF30080002608E0D4E901211AF875
:1005000006009047206A401C761C20624E45F4DBB2
:100510002078C0060AD52046AFF3008006E0D4E973
:10052000012130209047206A401C2062381EA7F12C
:100530000107F4DC07E0D4E9012118F80500904731
:10054000206A401C2062281EA5F10105F3DC20462C
:10055000AFF300802078000602D50220BDE8F087C6
:100560000120FBE7074B70B50D467B4400F02FF8E8
:100570000446284600F022F810B14FF0FF3070BD5D
:10058000204670BD330800003A2800D2303820F0F1
:100590002002412A01D3A2F13700884201D34FF053
:1005A000FF307047034B7B449361034B7B44D36123
:1005B00000F026B8D707000073000000007B00F0B1
:1005C0008000704701694A1C02610878704700B5D5
:1005D0008FB0CDE901310021059105497944CDE97C
:1005E000031011466846FFF709FE0FB000BD00007A
:1005F000E5FFFFFF02681144137801601846704759
:10060000D16005497944516104497944116200215E
:100610001161114600F056B8EDFFFFFFA500000084
:10062000704710B54FF0FF34C1688A020FD5036BD5
:1006300042689A420BD1014690F82520104600F0FE
:10064000FBF9401C01D1204610BD002010BD11F067
:10065000C00FF8D1026941689142F4D90268491E7D
:10066000521CC0E90021F0E7754600F013FAAE46CF
:1006700005006946534620F00700854618B020B5AE
:10068000FFF79EFDBDE820404FF000064FF0000749
:100690004FF000084FF0000B21F00701AC46ACE82A
:1006A000C009ACE8C009ACE8C009ACE8C0098D4697
:1006B000704710B5044600F0F1F90068005D00F0E5
:1006C000010010BD2DE9F34F4FF0000A0C465646CD
:1006D0008DB001200C9001F10C000B9062690B9819
:1006E00001219047051E2DD0252D2CD0216A884749
:1006F000C0B162690B9801219047216A88470028A0
:10070000F7D16269411E0B98904700E0761CA16901
:100710000D988847216A88470028F7D1E1690D982C
:100720008847DBE7A1690D988847A842074601D1B1
:10073000761CD3E7E1690D9888477F1C02D1BAF196
:10074000000F6FD06BE162690B9800273D46394678
:1007500090472A2804D162690B980121904701250E
:10076000DFF8D08262690B9801219047A0F1300137
:100770000A290AD24745E5DC07EB870100EB410770
:10078000303FDFD445F01005ECE7E90601D46FF007
:1007900000476C280AD04C2814D0682815D06A2845
:1007A0000DD074281CD07A281AD01DE062690B98ED
:1007B000012190476C2802D045F0040514E045F073
:1007C00002050DE045F020050AE062690B98012161
:1007D0009047682802D045F0080505E045F400651B
:1007E00062690B9801219047C4E9015765283DD003
:1007F00019DC58287AD00CDC452837D004DC2528B1
:1008000026D041289ED131E046282FD0472899D1C3
:100810002CE05B2877D0612828D063287CD064281E
:1008200023D15AE0F6E06F2848D008DC66281DD0B6
:1008300067281BD0692821D06E2816D127E07028A0
:1008400045D0732868D0752847D078280DD14DE061
:10085000A1690D988847252805463FF469AFE169ED
:100860000D9888476D1C3FF46AAFD8E00D99234678
:100870006A466FF00100AFF30080C5E045F040002C
:1008800023464FF000026060A80736D43EE0E80738
:100890007FF447AF2068011D21600068290501D55C
:1008A00006701BE7290701D5068017E7A90703D5BE
:1008B000F117C0E9006111E706600FE745F040005D
:1008C00023464FF008026060A80716D41EE040F6E9
:1008D0000E0125EA0100606016E045F04000234665
:1008E0004FF00A026060A80707D40FE045F040000F
:1008F0006060A80708D5234610220D996FF001000B
:10090000AFF3008080E007E0102223460D996FF0DE
:100910000100FFF7F3FC77E04FF0000963284F4632
:10092000C8464B46CB4602D05B2806D038E0E806E6
:1009300001D40120A060012732E06269D4F80CB034
:100940000B98012190475E2807D14FF001094946D5
:100950006269D4F80CB00B989047216939B900212D
:100960000A4603AB43F82120491C0829FADBD8B317
:10097000216949B308F1010862690B980121904788
:100980005D28F4D1B9F1000F09D0002003A951F876
:100990002020D24341F82020401C0828F7DB03AB7D
:1009A0002069002820794FEA40701ED05B4622461D
:1009B000CDF80080CDE901970D9900286FF0010076
:1009C00020DAAFF300801FE0C11703AA00EBD1616A
:1009D0004B1121F01F0102EB8302411A1368012021
:1009E000884003431360C7E719E00D9922460028A9
:1009F0006FF00100009702DAAFF3008004E0AFF37C
:100A0000008001E0AFF3008000280ADA401C06D124
:100A10000C9820B14FF0FF300FB0BDE8F08F50467A
:100A2000FAE7E90701D10AF1010A064400200C9017
:100A300054E60000CCCCCC0CCA68431C0FD00D4B44
:100A40001A420CD1D3070AD081F825004B680B63FA
:100A500000238B6012F0C06F0B6003D004E04FF0F6
:100A6000FF30704742F00072034B1A40034B1A43A9
:100A7000CA60704780200800BFFFDFFF00104800F9
:100A800010B50446AFF300802046BDE81040FFF7E4
:100A900082BB0000004870470C00002010B500F039
:100AA00005F8001D10BD00BFCD03000000487047D1
:100AB0002C00002001491820ABBEFEE726000200F2
:100AC0004FF0013C50F8042B51F8043B9A4221D1DD
:100AD000A2EB0C03934313EACC1317D150F8042B69
:100AE00051F8043B9A4215D1A2EB0C03934313EA4D
:100AF000CC130BD150F8042B51F8043B9A4209D186
:100B0000A2EB0C03934313EACC13DBD04FF00000AD
:100B1000704700BFD01A01BAB1FA81F101F0180193
:100B200022FA01F0CB40C1F12001DBB2C0B2C01A01
:100B30002CFA01F3D11A914311EAC311E6D170479F
:100B4000704700000A48806940F010000849886139
:100B50000848406820F4700006494860084640682C
:100B600040F4401048600846C0680020C8607047E4
:100B7000001002400010014010B500F001F810BD57
:100B80000CB50020019000903348006840F480309C
:100B90003149086000BF3048006800F40030009020
:100BA0000198401C0190009818B90198B0F5A06F09
:100BB000F1D12948006800F4003010B10120009004
:100BC00001E0002000900098012843D123480068EC
:100BD00040F01000214908600846006820F003003A
:100BE00008600846006840F0020008601A48406843
:100BF000194948600846406848600846406840F423
:100C0000806048600846406820F47C1048600846D0
:100C1000406840F4E81048600846006840F0807082
:100C2000086000BF0C48006800F000700028F9D090
:100C30000948406820F003000749486008464068BA
:100C400040F00200486000BF0348406800F00C001C
:100C50000828F9D10CBD000000100240002002401D
:100C600010B51348006840F00100114908600846BB
:100C70004068104908400E494860084600680E491F
:100C800008400B4908600846006820F4802008608E
:100C90000846406820F4FE0048604FF41F0088605A
:100CA000FFF76AFF4FF000600449086010BD0000C4
:100CB000001002400000FFF8FFFFF6FE08ED00E024
:100CC0001D48C06940F400301B49C861084680696E
:100CD00040F0040088610846806940F001008861A6
:100CE000164800680020154908600846006840F46E
:100CF000407008600846006840F4006008600846DC
:100D0000006840F4804008600D48008840F6A66105
:100D100008430B490880081D008840F40050091D55
:100D200008800846008840F00800088008460088CF
:100D300040F00400088070470010024000080140A5
:100D40000844004000BF0548008800F0200000284B
:100D5000F9D00248001D0088C0B27047004400402E
:100D6000014600BF0548008800F080000028F9D047
:100D70000248001D018048B2704700000044004056
:100D800000B50346FFF7DEFF02460D2A03D1D0B2BD
:100D9000FFF7E6FF0A22D0B2FFF7E2FF104600BDE0
:100DA00000B502460B46D0B2FFF7DAFF00BD0000E7
:100DB0009AB0FFF7C7FEFFF783FF00BF0FA0FFF752
:100DC00011FA19E014A0FFF70DFA19A917A0FFF7FF
:100DD00085FA17A01999FFF705FA1AA0FFF702FA8A
:100DE0006846FFF731FB1DA0FFF7FCF96846FFF7E7
:100DF00047FB1FA0FFF7F6F9E4E7000048656C6CBD
:100E00006F2066726F6D20746865206F74686572FC
:100E100020736964650D0A00486F77206F6C642049
:100E200061726520796F75203F0000002564000025
:100E3000596F7572206167652069733A2025640DCA
:100E40000A000000456E74657220796F7572206625
:100E500069727374206E616D653A200049206C6977
:100E60006B6520796F7572207374796C653A200018
:100E70000D0A000010B500290AD00878002807D014
:100E800005487844FFF71CFE002801D0002010BD63
:100E90000248784410BD00003E000000360000000B
:100EA000D00F0008000000200C00000028010008FE
:100EB000DC0F00080C00002064060000440100085C
:100EC0001001000043000000F8FFFFFF0040404019
:100ED000404040404040414141414140404040400D
:100EE00040404040404040404040404040050202B9
:100EF0000202020202020202020202020220202078
:100F000020202020202020020202020202029090D3
:100F100090909090101010101010101010101010D1
:100F20001010101010101010020202020202888825
:100F30008888888808080808080808080808080831
:100F40000808080808080808020202024000000019
:100F50000000000000000000000000000000000091
:100F60000000000000000000000000000000000081
:100F70000000000000000000000000000000000071
:100F80000000000000000000000000000000000061
:100F90000000000000000000000000000000000051
:100FA0000000000000000000000000000000000041
:100FB0000000000000000000000000000000000031
:100FC0000000000000000000000000000000000021
:0C0FD00000000000010000000200000012
:04000005080000ED02
:00000001FF
