:020000040800F2
:100000000010002081010008C7000008CD00000892
:10001000C1000008C1000008C1000008C1000008BC
:10002000C1000008C1000008C1000008D30000089A
:10003000C1000008C1000008D9000008DF00000866
:10004000C1000008C1000008C1000008C10000088C
:10005000C1000008C1000008C1000008C10000087C
:10006000C1000008C1000008C1000008C10000086C
:10007000C1000008C1000008C1000008C10000085C
:10008000C1000008C1000008C1000008C10000084C
:10009000C1000008C1000008C1000008C10000083C
:1000A000C1000008C1000008C1000008C10000082C
:1000B000C1000008C1000008C1000008C10000081C
:1000C00080B400AFFEE780B400AFFEE780B400AFBD
:1000D000FEE780B400AFFEE780B400AFFEE780B477
:1000E00000AFFEE780B500AF154A154B9B6943F0A2
:1000F00010039361134A134B5B6823F4700353603E
:10010000104A104B5B6843F4401353600D4A0D4B8B
:10011000DB6843F40053D3600A4A0A4BDB6843F4BC
:100120000053D3600A2000F00FF8064A054BDB6845
:1001300023F40053D3600A2000F006F8ECE700BF78
:10014000001002400010014080B485B000AF78601C
:100150000CE00023FB6002E0FB680133FB60FB68FE
:10016000064A9342F8DD7B68013B7B607B68002B8D
:10017000EFDC00BF1437BD4680BC70479F8601008E
:04018000FFF7B0FFD6
:04000005080001816D
:00000001FF
