:020000040800F2
:1000000070040020010100084D110008871000084D
:1000100049110008CD010008D912000800000000B5
:100020000000000000000000000000007D12000839
:100030000102000800000000511100087F120008B2
:100040001B0100081B0100081B0100081B01000820
:100050001B0100081B0100081B0100081B01000810
:100060001B0100081B0100081B0100081B01000800
:100070001B0100081B0100081B0100081B010008F0
:100080001B0100081B0100081B0100081B010008E0
:100090001B0100081B0100081B0100081B010008D0
:1000A0001B0100081B0100081B0100081B010008C0
:1000B0001B0100081B0100081B0100081B010008B0
:1000C0001B0100081B0100081B0100081B010008A0
:1000D0001B0100081B0100081B0100081B01000890
:1000E0001B0100081B0100081B010008DFF80CD0F1
:1000F00000F05AF800480047D518000870040020A6
:100100000648804706480047FEE7FEE7FEE7FEE7B1
:10011000FEE7FEE7FEE7FEE7FEE7FEE7D712000890
:10012000ED00000840EA01039B0703D009E008C97D
:10013000121F08C0042AFAD203E011F8013B00F8AC
:10014000013B521EF9D27047D2B201E000F8012BF8
:10015000491EFBD270470022F6E710B513460A4647
:1001600004461946FFF7F0FF204610BD421C10F868
:10017000011B0029FBD1801A704730B50B460146A0
:1001800000202022012409E021FA02F59D4205D336
:1001900003FA02F5491B04FA02F52844151EA2F1E0
:1001A0000102F1DC30BD0000064C074D06E0E068BE
:1001B00040F0010394E8070098471034AC42F6D3AE
:1001C000FFF798FF042F0008242F000800BFFEE768
:1001D00010B504462CB901229103084800F0B8F983
:1001E00009E0012C05D10022A103044800F0B0F978
:1001F00001E0012010BD0020FCE70000000C0140E0
:10020000704772B600BFFEE770B5044600F0A6F96D
:1002100006462546681C10B104480078054400BF16
:1002200000F09CF9801BA842FAD370BD08000020A2
:100230002DE9F8470346002294466EE14FF001088D
:1002400008FA02F4D1F8008008EA0400A0427DD147
:10025000DFF8DCA2D1F80480A8EB0A09D0453AD037
:1002600014DCB8F1030F50D009DCB8F1000F31D025
:10027000B8F1010F1CD0B8F1020F49D120E0B8F15C
:10028000110F18D0B8F1120F42D11EE0B9F5881F36
:1002900025D006DCB9F5803F20D0B9F5801F37D1D5
:1002A0001AE0B9F5001F18D0B9F5041F30D117E0D6
:1002B000D1F80CC02DE0D1F80C8008F1040C28E036
:1002C000D1F80C8008F1080C23E0D1F80C8008F17B
:1002D0000C0C1EE000BF00BF00BF00BF00BF00BF8E
:1002E000D1F80880B8F1000F02D14FF0040C0BE0F8
:1002F000D1F80880B8F1010F03D14FF0080C1C6150
:1003000002E04FF0080C5C6103E04FF0000C00E0ED
:1003100000BF00BFFF2801D8984601E003F10408A0
:100320004646FF2802D84FEA820803E0A2F10808F7
:100330004FEA88084746D6F800804FF00F0909FABF
:1003400007F928EA09080CFA07F900E088E048EA0A
:100350000908C6F80080D1F8048008F08058B8F188
:10036000805F7DD100BFDFF8CC81D8F8188048F0DD
:100370000108DFF8C091C9F81880C846D8F818807D
:1003800008F00108CDF8008000BF00BF4FEAB9387F
:100390004FEA920958F829504FEA82784FEA1879C3
:1003A0004FF00F0808FA09F825EA0805DFF88881F8
:1003B000434502D14FF0000816E0DFF88081434545
:1003C00002D14FF001080FE0DFF87481434502D1FC
:1003D0004FF0020808E0DFF86C81434502D14FF08E
:1003E000030801E04FF004084FEA82794FEA1979D7
:1003F00008FA09F848EA0505DFF84C814FEA920946
:1004000048F82950D1F8048008F48038B8F5803FC6
:100410000AD1DFF83881D8F8008048EA0008DFF810
:100420002C91C9F8008009E0DFF82081D8F800801D
:1004300028EA0008DFF81491C9F80080D1F8048098
:1004400008F40038B8F5003F10D1DFF8008108F15A
:100450000408D8F8008048EA0008DFF8F09000E0CF
:100460005AE009F10409C9F800800DE0DFF8DC80EA
:1004700008F10408D8F8008028EA0008DFF8CC90DA
:1004800009F10409C9F80080D1F8048008F4801843
:10049000B8F5801F0ED1DFF8B48008F10808D8F84D
:1004A000008048EA0008DFF8A49009F10809C9F8BB
:1004B00000800DE0DFF8948008F10808D8F800808B
:1004C00028EA0008DFF8849009F10809C9F80080DB
:1004D000D1F8048008F40018B8F5001F0ED1DFF839
:1004E0006C8008F10C08D8F8008048EA0008DFF8B2
:1004F0005C9009F10C09C9F800800DE0DFF84C8030
:1005000008F10C08D8F8008028EA0008DFF83C90D1
:1005100009F10C09C9F80080521CD1F8008028FAB2
:1005200002F8B8F1000F7FF489AEBDE8F88700004B
:10053000000011100010024000080140000C0140B2
:100540000010014000140140080001400004014077
:100550000AB1016101E00B040361704701480068C2
:100560007047000000000020034800680349097834
:10057000084401490860704700000020080000207E
:1005800010B50848006840F01000064908600320D4
:1005900000F098F8002000F007F800F02BF8002099
:1005A00010BD00000020024070B504460E480078DF
:1005B0004FF47A71B1FBF0F00C490968B1FBF0F52A
:1005C000284600F046FD08B1012070BD102C07D26E
:1005D00000222146501E00F037F80548046001E073
:1005E0000120F2E70020F0E7080000200C000020C6
:1005F0000400002008B500BF1148806940F00100E8
:100600000F4988610846806900F00100009000BF32
:1006100000BF00BF0846C06940F08050C86108466E
:10062000C06900F08050009000BF00BF00BF0549C6
:10063000486820F0E06040F00070486000BF08BDEE
:1006400000100240000001402DE9F05F80460D4699
:100650001646002700F056FE074639462A4633461E
:1006600001F00700C0F1070ABAF1040F02D94FF0F8
:10067000040A01E0C0F1070AD14600F1040ABAF108
:10068000070F02D24FF0000A01E0A0F1030AD4469E
:100690004FF0010A0AFA09FAAAF1010A0AEA020A63
:1006A0000AFA0CFA4FF0010B0BFA0CFBABF1010B41
:1006B0000BEA030B4AEA0B042146404600F02AFEEF
:1006C000BDE8F09F00BF00F00702064B19684FF627
:1006D000FF031940044B0B4343EA0221014B19600D
:1006E00000BF70470CED00E00000FA0570B504464D
:1006F0000D460CB9012070BD5A48006800F0070093
:10070000A8420ED25748006820F0070028435549F8
:1007100008600846006800F00700A84201D00120E8
:10072000E9E7207800F0020002281DD1207800F0CF
:100730000400042805D14C48406840F4E0604A4970
:100740004860207800F00800082805D14648406835
:1007500040F46050444948604348406820F0F0004D
:10076000A168084340494860207800F0010078B350
:100770006068012806D13C48006800F4003090B958
:100780000120B8E76068022806D13748006800F009
:10079000007040B90120AEE73348006800F0020065
:1007A00008B90120A7E73048406820F003006168DD
:1007B00008432D494860FFF7D1FE064609E0FFF7E0
:1007C000CDFE801B41F28831884202D9032092E796
:1007D00007E02548406800F00C006168B0EB810F2D
:1007E000EDD12048006800F00700A8420ED91D484E
:1007F000006820F0070028431A490860084600688E
:1008000000F00700A84201D0012074E7207800F032
:100810000400042807D11448406820F4E060E1682F
:10082000084311494860207800F00800082808D1E2
:100830000D48406820F46050216940EAC1000A492F
:10084000486000F019F808494968C1F30311074AE4
:10085000515CC8400649086006480068FFF7A4FEDE
:10086000002048E70020024000100240161E000849
:100870000C00002004000020F0B585B00FF26C0CD5
:100880009CE8E01001A8A0E8E0101CA52D680095E8
:1008900000210022002300240020194D696801F086
:1008A0000C05F5B1042D02D0082D19D101E0154831
:1008B00019E001ADC1F38346AC5D01F4803555B15B
:1008C0000F4D6D68C5F340451DF805200D4D65437E
:1008D000B5FBF2F302E00C4D04FB05F3184602E011
:1008E00000BF084800BF00BF05B0F0BD020304050B
:1008F000060708090A0B0C0D0E0F1010010200006C
:100900000010024000127A0000093D00F8B50446CC
:100910000CB90120F8BD207800F00100002878D043
:10092000F848406800F00C0004280CD0F5484068F6
:1009300000F00C00082811D1F248406800F4803023
:10094000B0F5803F0AD1EF48006800F4003000287D
:100950005FD0606800285CD10120DBE700BF6068E1
:10096000B0F5803F06D1E748006840F48030E549A3
:10097000086028E0606858B9E248006820F48030D8
:10098000E04908600846006820F4802008601AE00A
:100990006068B0F5A02F0BD1DA48006840F48020E1
:1009A000D84908600846006840F4803008600AE0D2
:1009B000D448006820F48030D249086008460068B6
:1009C00020F48020086000BF606888B1FFF7C6FD92
:1009D000054606E0FFF7C2FD401B642801D903204D
:1009E00098E7C848006800F400300028F2D010E012
:1009F000FFF7B4FD054606E0FFF7B0FD401B642895
:100A000001D9032086E7BF48006800F400300028C1
:100A1000F2D1207800F00200022857D1B94840688E
:100A200000F00C0050B1B748406800F00C000828F6
:100A300018D1B448406800F4803098B9B1480068D3
:100A400000F0020020B12069012801D0012061E7F7
:100A5000AC48006820F0F800616940EAC100A9498B
:100A6000086033E02069E8B10120A7490860FFF77A
:100A700075FD054606E0FFF771FD401B022801D910
:100A8000032047E79F48006800F002000028F2D0EA
:100A90009C48006820F0F800616940EAC10099496B
:100AA000086013E0002098490860FFF757FD0546ED
:100AB00006E0FFF753FD401B022801D9032029E778
:100AC0009048006800F002000028F2D1207800F081
:100AD000080008282DD1A069B8B101208B49086011
:100AE000FFF73CFD054606E0FFF738FD401B0228F6
:100AF00001D903200EE78348406A00F00200002875
:100B0000F2D0012000F026FB13E000207F490860AE
:100B1000FFF724FD054606E0FFF720FD401B0228F5
:100B200001D90320F6E67748406A00F00200002869
:100B3000F2D1207800F00400042873D10027714816
:100B4000C06900F0805070B900BF6E48C06940F0C5
:100B500080506C49C8610846C06900F08050009020
:100B600000BF00BF01276A48006800F48070B0B978
:100B70006748006840F4807065490860FFF7EEFC44
:100B8000054606E0FFF7EAFC401B642801D9032074
:100B9000C0E65F48006800F480700028F2D000BF13
:100BA000E068012806D15748006A40F00100554925
:100BB000086227E0E06858B95248006A20F0010056
:100BC000504908620846006A20F00400086219E0F3
:100BD000E06805280BD14B48006A40F00400494901
:100BE00008620846006A40F0010008620AE04548D1
:100BF000006A20F00100434908620846006A20F0BC
:100C00000400086200BFE068A0B1FFF7A7FC05463A
:100C100009E0FFF7A3FC401B41F28831884202D96A
:100C2000032077E622E03748006A00F0020000283F
:100C3000EFD012E0FFF792FC054608E0FFF78EFCCC
:100C4000401B41F28831884201D9032062E62D48D9
:100C5000006A00F002000028F0D1012F05D12948D8
:100C6000C06920F080502749C86100BFE069C8B35F
:100C70002448406800F00C00082860D0E069022891
:100C800048D1002020490866FFF768FC054606E0C9
:100C9000FFF764FC401B022801D903203AE61948FB
:100CA000006800F000700028F2D1206AB0F5803FA3
:100CB00007D11448406820F40030A1680843114966
:100CC0004860D4E9080108430E49496821F47411C9
:100CD00008430C49486001200B490866FFF73EFCB9
:100CE000054607E03DE0FFF739FC401B022801D92B
:100CF00003200FE60348006800F000700028F2D0DF
:100D00002FE00000001002400000424280044242F6
:100D100000700040002014490866FFF71FFC0546DC
:100D200006E0FFF71BFC401B022801D90320F1E578
:100D30000E48006800F000700028F2D111E0E06970
:100D4000012800D1E6E50948466806F48031206AAA
:100D5000814204D106F47011606A814201D0012001
:100D6000D8E50020D6E50000000042420010024015
:100D700010B504460CB9012010BD606A38B960682E
:100D8000B0F5827F00D105E00021E16102E00021A1
:100D9000216161610021A16294F8510028B900200D
:100DA00084F85000204600F043F8022084F85100F7
:100DB0002068006820F0400021680860A08800F4E6
:100DC0008270218901F404410843A18901F4006182
:100DD0000843217C01F002010843217D01F001015B
:100DE0000843218B01F400710843217F01F0380191
:100DF00008432021095D01F080010843218D01F4A1
:100E000000510843216808600421A06901EA1040EC
:100E1000216848602068C06920F400602168C861CA
:100E200000206065012084F851000020A4E7000044
:100E300010B586B0044600200290039004900590FF
:100E400015492068884225D100BF1448C06940F484
:100E500080401249C8610846C06900F48040019092
:100E600000BF00BF00BF0846806940F008008861ED
:100E70000846806900F00800019000BF00BF4FF4F1
:100E800020400290022003900320059002A904480C
:100E9000FFF7CEF906B010BD003800400010024048
:100EA000000C01402DE9F84F0446884616461D46C1
:100EB0004FF0000A00BF94F85000012802D1022030
:100EC000BDE8F88F012084F8500000BFFFF746FB13
:100ED0000746B14694F85100012802D04FF0020AAB
:100EE000ADE0B8F1000F00D016B94FF0010AA6E04E
:100EF000032084F8510000206065C4F83080A68685
:100F0000E686A063A087E08760642064A068B0F5EF
:100F1000004F0BD12068006820F040002168086075
:100F20002068006840F480402168086020680068FC
:100F300000F04000402805D02068006840F04000E4
:100F400021680860E068B0F5006F2FD1606810B1CB
:100F5000B9F1010F09D1206B00882168C860206BAE
:100F6000801C2063E08E401EE0861BE020688068C5
:100F700000F0020002280AD1206B00882168C860B6
:100F8000206B801C2063E08E401EE0860AE0FFF7A5
:100F9000E5FAC01BA84201D3681C00B915B94FF08F
:100FA000030A4CE0E08E0028E0D12EE0606810B12A
:100FB000B9F1010F09D1206B007821680873206B0B
:100FC000401C2063E08E401EE0861BE020688068A5
:100FD00000F0020002280AD1206B00782168087313
:100FE000206B401C2063E08E401EE0860AE0FFF785
:100FF000B5FAC01BA84201D3681C00B915B94FF05F
:10100000030A1CE0E08E0028E0D13A46294620463B
:1010100000F0B4F808B120206065A06850B900BFA6
:10102000002000902068C0680090206880680090D0
:1010300000BF00BF606D08B14FF0010A00BF012082
:1010400084F8510000BF002084F8500000BF5046D3
:1010500036E770B504462546681EB0F1807F01D39F
:1010600001200FE0681E4FF0E02148610F214FF092
:10107000FF3000F04FF900204FF0E0218861072099
:101080000861002070BD00BFFEE7000000B585B01C
:101090000020019002900390049000BF17488069DF
:1010A00040F00800154988610846806900F0080092
:1010B000009000BF00BF00BF0846806940F00400F8
:1010C00088610846806900F00400009000BF00BFFE
:1010D0004FF48040019001200290002003900320F3
:1010E000049001A90648FFF7A3F800224FF48041BD
:1010F0000348FFF72DFA05B000BD000000100240C4
:10110000000C014010B50E480E4908604FF4827083
:10111000486000210B488160C160016141614FF46A
:10112000007181611021C16100210162416281620F
:101130000A21C162FFF71CFE08B1FFF762F810BD7B
:10114000003800401800002000BFFEE700BFFEE7A7
:101150007047000008B508490968C9084FF47A7259
:10116000B1FBF2F14143009100BF00BF00994A1E5C
:1011700000920029F9D108BD0C000020F8B5044602
:101180000D4616462B46002280212046009600F090
:1011900009F828B1606D40F0200060650320F8BDBB
:1011A0000020FCE72DE9F84F04460D4690461E4608
:1011B000DDF82890FFF7D2F9A0EB0900371AFFF706
:1011C000CDF982462C480068C0F3CB3078430090BC
:1011D00045E0701C002842D0FFF7C0F9A0EB0A00E0
:1011E000B84200D2A7BB2068406820F0E000216828
:1011F00048606068B0F5827F0DD1A068B0F5004FFF
:1012000003D0A068B0F5806F05D12068006820F099
:10121000400021680860A06AB0F5005F0DD100BFF2
:101220002068006820F40050216808602068006889
:1012300040F400502168086000BF012084F851008C
:1012400000BF002084F8500000BF0320BDE8F88FE5
:10125000FFE7009800B900270098401E0090206822
:1012600080682840A84201D1012000E000204045CC
:10127000AFD10020EAE700000C000020704710B555
:10128000FFF772F910BD00B58FB0282105A8FEF751
:1012900062FF14216846FEF75EFF022005900120E0
:1012A000099010200A9000200C9005A8FFF72EFB53
:1012B00008B1FEF7A6FF0F200090002001900290D9
:1012C0000390049000216846FFF710FA08B1FEF77A
:1012D00098FF0FB000BD704700BFFEE70FB4084B8A
:1012E00010B504A902AA039800F038F8044602A930
:1012F000002000F0DDF8204610BC5DF814FB000073
:10130000B114000802480068C0F3022070470000D2
:101310000CED00E010B5002804DB0A07130E054AA7
:10132000135406E00A07140E034A00F00F031B1FB4
:10133000D45410BD00E400E018ED00E002E008C85D
:10134000121F08C1002AFAD170477047002001E03F
:1013500001C1121F002AFBD1704700002DE9FF4F89
:1013600089B09B460446002506E025280BD05A4646
:101370000B999047641C6D1C20780028F5D10DB0A6
:101380002846BDE8F08F0027B8460122474900E013
:10139000074314F8013F203B02FA03F00842F7D15B
:1013A00020782E2819D114F8010F47F004072A28B5
:1013B0000ED06FF02F022078A0F1300109290CD84F
:1013C00008EB880102EB410100EB0108641CF2E725
:1013D0000A98641C50F8048B0A9020780028CED01C
:1013E000642808D0692806D075281ED05A460B9963
:1013F00090476D1C58E00A994FF00A0901C90A91FB
:10140000002802DA40422D2102E0390504D52B21C3
:101410008DF82010012103E0F90704D02021F7E71F
:101420008A4608AE0DE00021FAE70A994FF00A0952
:1014300001C90A91F7E74946FEF79FFE303106F8E9
:10144000011D0028F7D1ADEB060000F12009780757
:1014500001D44FF00108C84502DDA8EB090000E007
:1014600000208046002706E008A85A46C05D0B9978
:1014700090476D1C7F1C5745F6DB04E030205A4630
:101480000B9990476D1CB8F10001A8F10108F5DC3B
:1014900005E016F8010B5A460B9990476D1CB9F1FF
:1014A0000001A9F10109F4DC641C65E709280100C9
:1014B0000A68531C0B60107070472DE9F0418026BC
:1014C0008027002411E000250BE07A19D1B23219EF
:1014D000D0B200F073FC0021084600F091FC681CBB
:1014E000C5B2082DF1D3601CC4B2202CEBD300246C
:1014F00012E000250CE07A190832D1B23219D0B2CC
:1015000000F05CFC0021084600F07AFC681CC5B2C3
:10151000082DF0D3601CC4B2202CEAD30020BDE813
:10152000F08110B50446F82000F05EFC04F0F000F5
:1015300000F05AFC2107080E00F056FC002010BDF8
:1015400010B50446FA2000F04FFC04F0F00000F063
:101550004BFC2107080E00F047FC002010BD10B521
:101560008020FFF7DEFF0120FFF7DBFF142000F0F3
:1015700030FC002010BD10B50C20FFF7D2FF012079
:1015800000F027FC002010BD10B50620FFF7C9FFB2
:10159000002010BD10B53620FFF7C3FF002010BD9E
:1015A00010B53020FFF7BDFF012000F012FC302005
:1015B000FFF7B7FF012000F00CFC002010BD2DE963
:1015C000F84380460D4617461E4606B117B901205E
:1015D000BDE8F883002462E0012E3AD0022E29D023
:1015E000032E14D0042E40D12819C1B23A464046E9
:1015F00000F048FA2819401CC1B23A46404600F0B3
:1016000041FA3F1D301F46B2A01CC4B246E0281963
:10161000C1B23A46404600F0CDF92819401CC1B28B
:101620003A46404600F0C6F9FF1CF01E46B2A01C28
:10163000C4B233E0102000902819C1B230233A46DA
:10164000404600F081F9BF1CB01E46B2601CC4B217
:1016500024E0102000902819C1B230233A464046B9
:1016600000F050F9701E46B218E0102000902819C2
:10167000C1B230233A46404600F074FA1020009080
:101680002819401CC1B230233A46404600F06AFA9D
:101690007F1D701F46B2A01CC4B200BF00BF002E49
:1016A0009ADC002094E72DE9F84380460E46174661
:1016B0001D4605B117B90120BDE8F883002453E0A9
:1016C000082D1AD33019C1B23A46404600F0CAFA82
:1016D0003019401CC1B23A46404600F0C3FA3019F6
:1016E000801CC1B23A46404600F0BCFA0837E01C04
:1016F000C4B2A5F1080045B236E0052D18D341204B
:1017000000903019C1B261233A46404600F02AFAEF
:10171000412000903019401CC1B261233A46404636
:1017200000F020FA7F1DA01CC4B2681F45B21BE068
:10173000022D0ED3412000903019C1B261233A46E8
:10174000404600F001F9BF1CA81E45B2601CC4B29F
:101750000AE0412000903019C1B261233A46404668
:1017600000F0D0F8681E45B2002DA9DC0020A3E7E8
:1017700010B5642000F02DFBFFF712FFFFF7EFFE1E
:10178000FFF7F9FEFFF700FF002010BD70B5064619
:101790000025002418E004F18001C8B2802100F087
:1017A0000DFB00250CE06A0002EB0412521CB15C38
:1017B0006A0002EB0412B05C00F022FB681CC5B2A8
:1017C000082DF0D3601CC4B2202CE4D318E004F13F
:1017D0006001C8B2882100F0F1FA00250CE06A002F
:1017E00002EB0412521CB15C6A0002EB0412B05C02
:1017F00000F006FB681CC5B2082DF0D3601CC4B213
:10180000402CE4D3002070BD10B50020FEF7E0FCB2
:10181000012000F0DEFA002010BD10B50120FEF717
:10182000D7FC012000F0D5FA002010BD88B0FFF7EA
:10183000B1FEFFF742FE0B2438E04FF4FA6000F0EF
:10184000C8FA1B48FFF7A2FF14221AA101A8FEF74D
:1018500069FC01A8FEF78AFC45B22B4601AA80214B
:101860000846FFF720FF224617A106A8FFF736FD1E
:1018700006A8FEF77BFC45B22B4606AA81218820EC
:10188000FFF79DFE04EB440000EBC40084B24FF46C
:10189000FA6000F09EFA0D48FFF778FF4FF4FA6007
:1018A00000F097FA0A48FFF771FF00BFC5E7000094
:1018B0002E22000854686520667574757265206F65
:1018C00066206C6966650000256400002E1E000815
:1018D0002E260008FEF754FEFFF7D5FCFFF7D6FBD7
:1018E000FFF710FC4FF47A70FEF78EFCFFF78CFFC9
:1018F000FFF73EFFFFF74EFEFFF798FFFFF78DFF64
:1019000000BFFEE72DE9F0470546884616461F460C
:10191000DDF82090002410E02919C8B2414600F0FB
:101920004DFA3178C91B494404EBC101054A505CAA
:10193000002100F065FA601CC4B2082CECD3002032
:10194000BDE8F087092C00082DE9F047804689465C
:1019500015461E46089F002424E008EB0401C8B287
:10196000494600F02BFA2A78921B3A4404EBC20253
:101970000F4B9B5C6A78921B3A4404EBC202DFF87F
:1019800030C01CF8022043EAA2106A78921B3A4445
:1019900004EBC20263469A5C9206110E00F030FA24
:1019A000601CC4B2082CD8D30020BDE8F08700002A
:1019B000092C00082DE9F04106460F461546002483
:1019C0003CE03119C8B2394600F0F8F92A480078ED
:1019D00010B101282FD122E06A78203A04EBC2022C
:1019E000264B9A5C9300AA78203A04EBC202DFF8F7
:1019F0008CC01CF8022043EA2212D1B22A78203A85
:101A000004EBC20263469B5C6A78203A04EBC20294
:101A10001CF8022043EAA21000F0F2F90BE018498A
:101A2000097804EBC101154A515C0907080E002131
:101A300000F0E6F900BF00BF601CC4B2082CC0D3A0
:101A40000D480078401C0C490870084600780128B1
:101A500002D002280BD104E0A87820380849087089
:101A600005E00020044908700549087000BF00BF68
:101A70000020BDE8F081000015000020092C0008BE
:101A8000140000202DE9F04106460F4615460024BB
:101A900044E03119C8B2394600F090F92E48007878
:101AA00010B1012837D122E06A78203A04EBC20253
:101AB0002A4B9A5C9300AA78203A04EBC202DFF822
:101AC0009CC01CF8022043EA2212D1B22A78203AA4
:101AD00004EBC20263469B5C6A78203A04EBC202C4
:101AE0001CF8022043EAA21000F08AF913E01C4916
:101AF000097804EBC101194A515C0A01E9782039DF
:101B000004EBC101154B595C42EAA101C8B20021A6
:101B100000F076F900BF00BF601CC4B2082CB8D337
:101B20000D480078401C0C490870084600780128D0
:101B300002D002280BD104E0A878203808490870A8
:101B400005E00020044908700549087000BF00BF87
:101B50000020BDE8F081000017000020092C0008DB
:101B6000160000202DE9F0478046894615461E469E
:101B7000089F002452E008EB0401C8B2494600F077
:101B80001DF93548007810B1012844D126E06A7863
:101B9000921B3A4404EBC202304B9A5C9300AA7841
:101BA000921B3A4404EBC202DFF8B0C01CF80220DA
:101BB00043EA2212D1B22A78921B3A4404EBC202C1
:101BC00063469B5C6A78921B3A4404EBC2021CF8A1
:101BD000022043EAA21000F013F91CE0204A127818
:101BE00004EBC2021D4B9A5C1301EA78921B3A4443
:101BF00004EBC202DFF864C01CF8022043EAA20230
:101C0000D0B22A79921B3A4404EBC2026346995C33
:101C100000F0F6F800BF00BF601CC4B2082CAAD3C5
:101C20000D480078401C0C490870084600780128CF
:101C300002D002280CD105E0A878801B384408495E
:101C4000087005E00020044908700549087000BFCD
:101C500000BF0020BDE8F08713000020092C000819
:101C6000120000202DE9F04106460F4615460024DB
:101C70007AE03119C8B2394600F0A0F84C48007833
:101C800020B1012825D002286BD145E06A78203A9E
:101C900004EBC202474B9A5C9300AA78203A04EB0B
:101CA000C202DFF810C11CF8022043EA2212D1B2AE
:101CB0002A78203A04EBC20263469B5C6A78203A99
:101CC00004EBC2021CF8022043EAA21000F098F8CC
:101CD00047E02A79203A04EBC202364B9B5C6A79D2
:101CE000203A04EBC202DFF8CCC01CF8022043EA21
:101CF000A211314A127804EBC20263469A5C1301C6
:101D0000EA78203A04EBC2021CF8022043EAA2025D
:101D1000D0B200F075F824E0AA79203A04EBC202B0
:101D2000244B9A5C1301EA79203A04EBC202DFF8F3
:101D300084C01CF8022043EAA202D1B21E4A1278E3
:101D400004EBC20263469A5C9300AA79203A04EB42
:101D5000C2021CF8022043EA2212D0B200F050F86E
:101D600000BF00BF601CC4B2082C82D310480078AA
:101D7000401C0F49087008460078012804D002284A
:101D800007D0032810D109E0A87820380A49087044
:101D90000AE0687920380849087005E00020044905
:101DA00008700549087000BF00BF0020BDE8F08141
:101DB00011000020092C00081000002070B5054615
:101DC0000C462846FFF7ADFB2046FFF7AAFB002094
:101DD00070BD10B504460CB9012010BD2046FEF7B9
:101DE00013FA0020F9E7000001B5642301226946D7
:101DF0000248FFF757F8002008BD00001800002037
:101E000070B505460C462846FFF79AFB2046FFF7BB
:101E100097FB002070BD00000000000000000102E0
:101E20000304060708090000000001020304000083
:101E300000000000000000000000000000000000A2
:101E40000000000000000000000000000000000092
:101E50000000000000000000000000000000000082
:101E60000000000000000000000000000000000072
:101E70000000000000000000000000000000000062
:101E80000000000000000000000000000000000052
:101E90000000000000000000000000000000000042
:101EA0000000000000000000000000000000000032
:101EB0000000000000000000000000000000000022
:101EC0000000000000000000000000000000000012
:101ED0000000000000000000000000000000000002
:101EE00000000000000000000000000000000000F2
:101EF0000000000000E08100000000000000000081
:101F00000000000002E7E000000000000000000008
:101F10000000000007E467E000000000000000008F
:101F20000000000007EFE7E00000000000000000F4
:101F30000000000007E7E7E00000000000000000EC
:101F40000000000007E7E7E00000000000000000DC
:101F50000000000027E7E7E00000000000000000AC
:101F60000000000066E7E6E000000000000000005E
:101F70000000000066E026E4000000000000000011
:101F80000000000066E7E6E000000000000000003E
:101F9000000000006667E66400000000000000002A
:101FA00000000000666322640000000000000000E2
:101FB000000000006667E66000000000000000000E
:101FC000000000006667E66C0000000000000000F2
:101FD000000000006660026C0000000000000000CD
:101FE000000000006667E6600000000000000000DE
:101FF000000000006667E6640000000000000000CA
:1020000000000000666002640000000000000000A4
:10201000000000006667E6600000000000000000AD
:10202000000000007663E660000000000000000091
:1020300000000000662000600000000000000000BA
:10204000000000006667E66000000000000000007D
:10205000000000007667E664000000000000000059
:10206000000000006620006000000000000000008A
:102070000000000066626620000000000000000012
:102080000000001C766626600000000000000000D2
:10209000000007C42664E6600000000000000000A5
:1020A00000006001C76006612000000000003E00E3
:1020B000000607F7F767E661E7E000000000FFFCB5
:1020C00000406607F76006E2606E80000000FFFFD8
:1020D000001F0017E7E007E3F800F8000000FFFF2B
:1020E000034007F7F7E7E7CFFFF002800000FFFFAC
:1020F000000777FFF000000FFFFEE0000000FFFF89
:10210000815FFFF7F000000FFFFFE2000000FFFF1C
:102110000607FFF7F3FFFFCFFFFFE0000000FFFE21
:10212000035FFFF7F7FFFFEF687FFA000000FFFF94
:10213000BF07FFF7FFFFFFFFFFFE00640000FFFF88
:10214000FF7FFFFFFFFFFFFFFFFFFFFFC010FFFD4F
:10215000FF7FFFFFFFFFFFFFFFFFF5FFF63CFFFFE5
:10216000FF7EFFFFFFFFFFBFFFFFFEEF1E7FFFFFB2
:102170007E1CF7FFFFFFFFFFF8101DE08050C00737
:1021800007000000000000000000086FE0000007EA
:102190003C0800000000000000000463C000000FC5
:1021A0001E3C000000000000000006C3F000000F0D
:1021B000C3C000000000000000000703F800001F7B
:1021C000C0C000000000000000000720F800000070
:1021D0000020000000000000000001F7380007F0B8
:1021E00007000000000000000000007FFB000680E8
:1021F0001C800000000000000000007FCFC0000035
:10220000B8000000000000000000001FFF80000771
:10221000E00000000000000000000007FF00078051
:10222000000000000000000000000000FFC00000EF
:10223000000000000000000000000000000000009E
:10224000000000000000000000000000000000008E
:10225000000000000000000000000000000000007E
:10226000000000000000000000000000000000006E
:10227000000000000000000000000000000000005E
:10228000000000000000000000000000000000004E
:10229000000000000000000000000000000000003E
:1022A000000000000000000000000000000000002E
:1022B000000000000000000000000000000000001E
:1022C000000000000000000000000000000000000E
:1022D00000000000000100000000000000000000FD
:1022E000000000000003800000000000000000006B
:1022F00000000000000B5000000000000000000083
:1023000000000000000E300000000000000000008F
:102310000000000000043800000000000000000081
:10232000000003F00004380007E000000000000097
:1023300000000FC00004000001F0000000000000D9
:1023400000001F0000000000007C000000000000F2
:1023500000003E0000008000003E00000000000081
:1023600000007C000000C000001F00000000000012
:102370000000F8000007E400000F800000000000EB
:102380000001F0000011CC000007C00000000000B8
:102390000001E0000021C4000007C00000000000B0
:1023A0000003E020006182000003E0000000000064
:1023B0000003E018002184000803E0000000000092
:1023C0000003C10000118C000041E000000000008B
:1023D0000003C0200001C0000201E0000000000076
:1023E0000003C606000180007011E000000000003C
:1023F0000003E1C08400000181C1E0000000000092
:102400000003E01C000000001803E00000000000D2
:102410000001E3E3F800000FE3E3C0000000000068
:102420000001F03FFF8000FFFE07C0000000000039
:102430000000F0007FC001FF000F800000000000DE
:102440000000780007C001F0001F0000000000003D
:1024500000007E01FFC001FFC03E00000000000040
:1024600000001F01FFC001FFC07C00000000000051
:1024700000000F81FFC001FFC1F800000000000054
:10248000000003E3FF8001FFC3E000000000000044
:10249000000001F8FF8000FF1F8000000000000026
:1024A0000000003F1F8000F87E00000000000000D8
:1024B0000000000FF0000007F8000000000000001E
:1024C00000000001FF8001FFC000000000000000CC
:1024D000000000000FFFFFF80000000000000000F7
:1024E00000000000007FFE0000000000000000006F
:1024F00000000000000000000000000000000000DC
:1025000000000000000000000000000000000000CB
:1025100000000000000000000000000000000000BB
:1025200000000000000000000000000000000000AB
:10253000000000000000000000000000000000009B
:10254000000C181F0783C70CFFC7F800000000002D
:10255000001E3871C7C7C70C0E070000000000003E
:10256000001E38E004CDC70C0E070000000000007C
:10257000001FF8E006E9C70C0E07F000000000009D
:10258000001E38E00679C70C0E07000000000000AE
:10259000001E3871C671C70C0E0700000000000055
:1025A000001E383F0431C1F00E07FC00000000009F
:1025B000000000000000000000000000000000001B
:1025C000000000000000000000000000000000000B
:1025D00000000000000000000000000000000000FB
:1025E00000000000000000000000000000000000EB
:1025F00000000000000000000000000000000000DB
:1026000000000000000000000000000000000000CA
:1026100000000000000000000000000000000000BA
:102620000000000000000000000000000000FFFFAC
:10263000FFFFFFFFFFFFFFFFFFFFFFFFFFFFFFFFAA
:10264000FFFFFFFFFFFFFFFFFFFFFFFFFFFFFFFF9A
:10265000FFFFFFFFFFFFFFFFFFFFFFFFFFFFFFFF8A
:10266000FFFFFFFFFFFFFFFFFFFFFFFFFFFFFFFF7A
:10267000FFFFFFFFFFFFFFFFFFFFFFFFFFFFFFFF6A
:10268000FFFFFFFFFFFFFFFFFFFFFFFFFFFFFFFF5A
:10269000FFFFFFFFFFFFFFFFFFFFFFFFFFFFFFFF4A
:1026A000FFFFFFFF07FFFFFFFFFFFFFFFFFFFFFF32
:1026B000FFFFFFFC38FFFFFFFFFFFFFFFFFFFFFFF4
:1026C000FFFFFFF8E0FFFFFFFFFFFFFFFFFFFFFF40
:1026D000FFFFFFF180FFFFFFFFFFFFFFFFFFFFFF97
:1026E000FFFFFFE107FFF9FFFFFFFFFFFFFFFFFF16
:1026F000FFFFFFE21FFFE7FFFFFFFFFFFFFFFFFFFF
:10270000FFFFFFE21BC0CBFFFFFFFFFFFFFFFFFF4D
:10271000FFFFFFC03C000FFFFFFFFFFFFFFFFFFFBA
:10272000FFFFFFC07E7F83FFFFFFFFFFFFFFFFFF75
:10273000FFFFFFC47C380007FFFFFFFFFFFFFFFF25
:10274000FFFFE00CD100000BFFFFFFFFFFFFFFFFCB
:10275000FFFE00F08F80047EFFFFFFFFFFFFFFFF03
:10276000FFF807FC7FE007FEFFFFFFFFFFFFFFFF13
:10277000FFF807E03FF037F6FFFFFFFFFFFFFFFF27
:10278000FFF00F80F003F7F0FFFFFFFFFFFFFFFFF9
:10279000FFF00C00000FFBE0FFFFFFFFFFFFFFFF5C
:1027A000FFF8F8000027FFE05FFFFFFFFFFFFFFFDC
:1027B000FFFFFDF40003F000000FFFFFFFFFFFFF2E
:1027C000FFFC78FF0000C00014007FFFFFFFFFFF49
:1027D000FFE8087FF3FAC00017C04FFFFFFFFFFFBD
:1027E000FF8003FFFFEFC00007F991FFFFFFFFFF2E
:1027F000FF000F3FFFF7C8000BFE603FFFFFFFFF2A
:10280000FE031F3FFFFFFA000BFFE407FE3FFFFF41
:10281000FE039FFFFFFFFC0013FFF80001FFFFFF17
:10282000FC083FFDF7FFFC0037FFFFEFFFFFFFFF56
:10283000FC002F682C01FC00EFFFFFFFFFFFFFFFF4
:10284000FE00281040051E002000FFFFFFFFFFFFD5
:10285000FE07E030000688007FBFFFFFFFFFFFFF9D
:10286000C003C000800300003FFFFFFFFFFFFFFF2A
:10287000001FC080C17FC0001FFFFFFFFFFFFFFEE2
:10288000000FE0887FFF70001FFFFFFFFFFFFFFECC
:10289000000FF58E7FE7F8000FFFFFFFFFFFFFFF40
:1028A000000FED0FFFFFFD801FFFFFFFFFFFFFFF8A
:1028B000E00F831FFCF000FDFFFFFFFFFFFFFFFFA6
:1028C000FFBF811FFFC1F77FFFFFFFFFFFFFFFFF7C
:1028D000FFFFA19FFFCCFDFFFFFFFFFFFFFFFFFFFB
:1028E000FFFFBF3FFFF8FCFFE7FFFFFFFFFFFFFF1A
:1028F000FFFFFE7FFFFF7E07F1FFFFFFFFFFFFFFF0
:10290000FFFBFCFFFFDDFC03F09FFFFFFFFFFFFF6E
:10291000FFF3FFFFFFFFF03800F8FFFFFFFFFFFFAF
:10292000FFF00DFFFFFE03F8027CFFFFFFFFFFFF3C
:10293000FFF838FFFFFE0FF006FE7FFFFFFFFFFFEF
:10294000FE003FF7FFFF360003FFFFFFFFFFFFFF23
:10295000FF0001E5FFFF801C13FFFFFFFFFFFFFFEC
:10296000FF03C1F1FFFF801FCBBFFFFFFFFFFFFF92
:10297000FF8180FFFFFF003FF03FFFFFFFFFFFFBF6
:10298000FF1001FFFFFE0FFFB07FFFFFFFFFFFC043
:1029900000003FFFFFFF0400043FFFFFFFFFFE00BA
:1029A0000000EFFF7FFF0004000FFFFFFFFFFC00B0
:1029B00000007FFFFFFE00000007FFFFFFFFFC009D
:1029C00000407FFFFFFE000C000000000000FC0044
:1029D00001FFFFFFFFFE007E000000000000F80086
:1029E0003FFFFFFFFFFE1FFFE00800000000FE00AA
:1029F000FFFFFFFFFFFF00000000000000000000DD
:102A000000FFFFFFFFF000000000000000000000DA
:102A10000007FFFFFFFC00000000000000000000B6
:102A200000000FFFFCFFC0000000000000000000DD
:102A300000000000005F00000003000300143E14CB
:102A40003E14242A7F2A12433308666136495522F0
:102A5000500005030000001C2241000041221C0020
:102A600014083E081408083E08080050300000080A
:102A700008080808006060000020100804023E51A9
:102A800049453E04027F00004261514946224149C6
:102A900049361814127F1027454545393E494949A2
:102AA0003201017109073649494936264949493EEB
:102AB000003636000000563600000814224100148B
:102AC00014141414004122140802015109063E4155
:102AD00059555E7E0909097E7F494949363E414183
:102AE00041227F4141413E7F494949417F090909CE
:102AF000013E4141493A7F0808087F00417F41007B
:102B0000304040403F7F081422417F404040407F9A
:102B1000020C027F7F0204087F3E4141413E7F0953
:102B20000909061E2121215E7F09090976264949E6
:102B3000493201017F01013F4040403F1F204020BA
:102B40001F7F2010207F41221C22410708700807A8
:102B50006151494543007F410000020408102000F4
:102B600000417F0004020102044040404040000157
:102B700002040020545454787F4444443838444478
:102B80004444384444447F385454541804047E0563
:102B900005085454543C7F0804047800447D4000E8
:102BA0002040443D007F1028440000417F40007CCD
:102BB000047804787C0804047838444444387C144D
:102BC000141408081414147C007C08040448545499
:102BD000542004043F44443C4040207C1C204020BE
:102BE0001C3C4030403C44281028440C5050503C81
:102BF0004464544C44000836414100007F000041C9
:102C0000413608000201020402000000000000003A
:102C10000020202020200020005050000000000054
:102C2000000050F850F85000002078A07028F020E4
:102C300000C8D01020405898006090A040A890682C
:102C400000602040000000000010204040402010A4
:102C50000040201010102040000020A870A8200084
:102C600000002020F820200000000000006020402C
:102C700000000000F800000000000000000060609C
:102C8000000008102040800000708898A8C8887054
:102C9000002060A02020202000708808102040F82C
:102CA00000708808300888700010305090F81010BC
:102CB00000F880F00808887000708880F0888870BC
:102CC00000F808081020202000708888708888701C
:102CD000007088887808887000006060006060007C
:102CE0000000606000602040001020408040201004
:102CF000000000F800F800000040201008102040FC
:102D0000007088081020002000708898A8B880788B
:102D100000708888F888888800F08888F08888F0B3
:102D2000007088808080887000F08888888888F0AB
:102D300000F88080F08080F800F88080F08080804B
:102D4000007088809888887000888888F8888888CB
:102D50000070202020202070000808080888887053
:102D6000008890A0C0A0908800808080808080F83B
:102D70000088D8A8A88888880088C8A898888888E3
:102D8000007088888888887000F08888F08080804B
:102D9000007088888888700800F08888F0888888A3
:102DA000007088807008887000F820202020202083
:102DB000008888888888887000888888888850205B
:102DC0000088888888A8D8880088502020205088CB
:102DD000008888885020202000F80810204080F8C3
:102DE00000604040404040600000804020100800EB
:102DF000003010101010103000205088000000002B
:102E000000000000000000F800402010000000005A
:102E10000000007008788878008080F0888888F04A
:102E2000000000788080807800080878888888789A
:102E30000000007088F88070001820F82020202002
:102E40000000007888780870008080B0C888888882
:102E500000200060202020700010003010109060D2
:102E600000808090A0C0A0900060202020202070D2
:102E7000000000D0A8A8A8A8000000B0C8888888D2
:102E80000000007088888870000000F088F0808062
:102E90000000007888780808000000586040404032
:102EA00000000070807008F0002020F8202020181A
:102EB0000000008888889868000000888888502072
:102EC0000000008888A8A850000000885020508882
:102ED0000000008888780870000000F8102040F892
:102EE0000018202040202018002020202020202012
:102EF00000C02020102020C00040A81000000000CA
:102F000000000000242F000800000020180000002E
:102F10003C1300083C2F0008180000205804000053
:102F20004C13000800000000100000000100000029
:0C2F30000024F40000000000000000007D
:04000005080000ED02
:00000001FF
