:020000040800F2
:10000000F004002001010008811F0008071C0008FF
:100010007D1F000897030008D3220008000000009D
:10002000000000000000000000000000B11F0008F8
:100030009B03000800000000851F0008B31F000894
:100040001B0100081B0100081B0100081B01000820
:100050001B0100081B0100081B0100081B01000810
:100060001B0100089D030008A70300081B010008EE
:100070001B0100081B0100081B0100081B010008F0
:100080001B0100081B0100081B0100081B010008E0
:100090001B0100081B0100081B0100081B010008D0
:1000A0001B0100081D2000081B0100081B0100089F
:1000B0002D2000083D2000081B0100081B0100083E
:1000C0001B0100081B0100081B0100081B010008A0
:1000D0001B0100081B0100081B0100081B01000890
:1000E0001B0100081B0100081B010008DFF80CD0F1
:1000F00000F030F900480047E5230008F004002034
:100100000648804706480047FEE7FEE7FEE7FEE7B1
:10011000FEE7FEE7FEE7FEE7FEE7FEE71B2000083E
:10012000ED000008202A04DB203A21FA02F0002129
:10013000704721FA02F3D040C2F1200291400843F7
:1001400019467047D2B201E000F8012B491EFBD2DC
:1001500070470022F6E710B513460A4604461946D2
:10016000FFF7F0FF204610BD2DE9F04D81EA0304B2
:1001700004F0004B21F0004514464FF0000A23F034
:10018000004150EA050220D054EA01021DD0C5F317
:100190000A570246C5F31303C1F31300C1F30A560D
:1001A00040F4801543F48013A7EB0608101BD646D5
:1001B00008F2FD3873EB050002D308F1010801E0F5
:1001C00092185B41B8F1000F03DA00200146BDE848
:1001D000F08D00204FF48011064684460EE0171B78
:1001E00073EB050705D3121B63EB050306434CEACB
:1001F000010C49084FEA300092185B4150EA0107B0
:10020000EDD152EA030012D082EA040083EA05012C
:10021000084305D0101BAB4106D20122002306E0A3
:1002200000224FF0004302E06FF0010253101AEB7E
:1002300006004CEB085110EB0A0041EB0B01BDE846
:10024000F04D00F02AB80EB5C10F80EAE070084406
:10025000CA07002140F233438DE80E000A460B46E0
:1002600000F02AF803B000BDC1F30A5210B5C1F383
:10027000130140F2FF3341F480119A4201DA002069
:1002800010BD40F233439A42A2F2334203DC5242A1
:10029000FFF748FF10BD904010BD10B5141E73F15C
:1002A000000408DA401C41F1000192185B411A4336
:1002B00001D120F0010010BD2DE9F04D92469B4682
:1002C00011B1B1FA81F202E0B0FA80F22032904628
:1002D00000F052F804460F4640EA0A0041EA0B01DA
:1002E00053465A46084313D0114653EA010019D029
:1002F000C8F140025046FFF715FF05460E4650462E
:100300005946424600F038F8084305D0012004E081
:1003100020463946BDE8F08D0020054346EAE076E8
:100320002C4337430A986305E40AA0EB0800002237
:10033000FD0A44EA47540A3002D500200146E9E7A5
:10034000010510196941DDE9084500196941BDE859
:10035000F04DA2E7064C074D06E0E06840F00103CF
:1003600094E8070098471034AC42F6D3FFF7C2FE7A
:10037000A8250008C8250008202A04DB203A00FA36
:1003800002F1002070479140C2F1200320FA03F3EC
:1003900019439040704700BFFEE7704710B5082032
:1003A00000F070F810BD10B5102000F06BF810BD13
:1003B00072B600BFFEE7000070B5044600F010FA08
:1003C00006462546681C10B104480078054400BF65
:1003D00000F006FA801BA842FAD370BD100000207E
:1003E00010B50446082C1DD123480068C0F3C00096
:1003F000002840D10220FFF7DFFF1F480068C0F34C
:10040000C000002837D10220FFF7D6FFA1021B4809
:1004100000F0D6F900BF18480068C0F3C0000028FB
:10042000F9D028E0102C26D113480068C0F3001042
:1004300008BB0220FFF7C0FF0F480068C0F30010A0
:10044000C8B90220FFF7B8FF0D480078401C0C49DE
:10045000087008460078052801D1002008704FF484
:100460000051064800F0ACF900BF03480068C0F333
:1004700000100028F9D010BD08080140001001400C
:100480000200002010B5044604480068204020B156
:10049000024804602046FFF7A3FF10BD140401408A
:1004A0002DE9F8470346002294466EE14FF001081B
:1004B00008FA02F4D1F8008008EA0400A0427DD1D5
:1004C000DFF8DCA2D1F80480A8EB0A09D0453AD0C5
:1004D00014DCB8F1030F50D009DCB8F1000F31D0B3
:1004E000B8F1010F1CD0B8F1020F49D120E0B8F1EA
:1004F000110F18D0B8F1120F42D11EE0B9F5881FC4
:1005000025D006DCB9F5803F20D0B9F5801F37D162
:100510001AE0B9F5001F18D0B9F5041F30D117E063
:10052000D1F80CC02DE0D1F80C8008F1040C28E0C3
:10053000D1F80C8008F1080C23E0D1F80C8008F108
:100540000C0C1EE000BF00BF00BF00BF00BF00BF1B
:10055000D1F80880B8F1000F02D14FF0040C0BE085
:10056000D1F80880B8F1010F03D14FF0080C1C61DD
:1005700002E04FF0080C5C6103E04FF0000C00E07B
:1005800000BF00BFFF2801D8984601E003F104082E
:100590004646FF2802D84FEA820803E0A2F1080885
:1005A0004FEA88084746D6F800804FF00F0909FA4D
:1005B00007F928EA09080CFA07F900E088E048EA98
:1005C0000908C6F80080D1F8048008F08058B8F116
:1005D000805F7DD100BFDFF8CC81D8F8188048F06B
:1005E0000108DFF8C091C9F81880C846D8F818800B
:1005F00008F00108CDF8008000BF00BF4FEAB9380D
:100600004FEA920958F829504FEA82784FEA187950
:100610004FF00F0808FA09F825EA0805DFF8888185
:10062000434502D14FF0000816E0DFF880814345D2
:1006300002D14FF001080FE0DFF87481434502D189
:100640004FF0020808E0DFF86C81434502D14FF01B
:10065000030801E04FF004084FEA82794FEA197964
:1006600008FA09F848EA0505DFF84C814FEA9209D3
:1006700048F82950D1F8048008F48038B8F5803F54
:100680000AD1DFF83881D8F8008048EA0008DFF89E
:100690002C91C9F8008009E0DFF82081D8F80080AB
:1006A00028EA0008DFF81491C9F80080D1F8048026
:1006B00008F40038B8F5003F10D1DFF8008108F1E8
:1006C0000408D8F8008048EA0008DFF8F09000E05D
:1006D0005AE009F10409C9F800800DE0DFF8DC8078
:1006E00008F10408D8F8008028EA0008DFF8CC9068
:1006F00009F10409C9F80080D1F8048008F48018D1
:10070000B8F5801F0ED1DFF8B48008F10808D8F8DA
:10071000008048EA0008DFF8A49009F10809C9F848
:1007200000800DE0DFF8948008F10808D8F8008018
:1007300028EA0008DFF8849009F10809C9F8008068
:10074000D1F8048008F40018B8F5001F0ED1DFF8C6
:100750006C8008F10C08D8F8008048EA0008DFF83F
:100760005C9009F10C09C9F800800DE0DFF84C80BD
:1007700008F10C08D8F8008028EA0008DFF83C905F
:1007800009F10C09C9F80080521CD1F8008028FA40
:1007900002F8B8F1000F7FF489AEBDE8F8870000D9
:1007A000000011100010024000080140000C014040
:1007B0000010014000140140080001400004014005
:1007C00010B5C26821EA020302EA010443EA0443C5
:1007D000036110BD0AB1016101E00B0403617047C0
:1007E00001480068704700000800002003480068C6
:1007F000034909780844014908607047080000204F
:100800001000002010B50848006840F010000649AC
:100810000860032000F0A8F8002000F007F800F0BE
:100820002BF8002010BD00000020024070B50446E7
:100830000E4800784FF47A71B1FBF0F00C4909686A
:10084000B1FBF0F5284600F007FC08B1012070BDAF
:10085000102C07D200222146501E00F047F8054810
:10086000046001E00120F2E70020F0E71000002022
:10087000140000200C00002008B500BF114880695A
:1008800040F001000F4988610846806900F00100CE
:10089000009000BF00BF00BF0846C06940F0805014
:1008A000C8610846C06900F08050009000BF00BFDA
:1008B00000BF0549486820F0E06040F000704860E3
:1008C00000BF08BD0010024000000140014608467C
:1008D000002809DB00F01F0301229A4043099B0016
:1008E00003F1E023C3F8002100BF70472DE9F05F5A
:1008F00080460D461646002701F0EEFC07463946B5
:100900002A46334601F00700C0F1070ABAF1040F86
:1009100002D94FF0040A01E0C0F1070AD14600F104
:10092000040ABAF1070F02D24FF0000A01E0A0F169
:10093000030AD4464FF0010A0AFA09FAAAF1010A99
:100940000AEA020A0AFA0CFA4FF0010B0BFA0CFB46
:10095000ABF1010B0BEA030B4AEA0B0421464046BC
:1009600001F0C2FCBDE8F09F00BF00F00702064B9B
:1009700019684FF6FF031940044B0B4343EA022169
:10098000014B196000BF70470CED00E00000FA0554
:1009900000BF00BF00BF00BF00BFBFF34F8F00BF4D
:1009A00000BF00BF0948006800F4E0600849084340
:1009B000001D0649086000BF00BF00BFBFF34F8F96
:1009C00000BF00BF00BF00BF00BFFDE70CED00E0AF
:1009D0000000FA0570B504460D460CB9012070BD43
:1009E0005A48006800F00700A8420ED25748006835
:1009F00020F007002843554908600846006800F0C9
:100A00000700A84201D00120E9E7207800F00200A9
:100A100002281DD1207800F00400042805D14C489C
:100A2000406840F4E0604A494860207800F00800DF
:100A3000082805D14648406840F460504449486061
:100A40004348406820F0F000A168084340494860EE
:100A5000207800F0010078B36068012806D13C4896
:100A6000006800F4003090B90120B8E760680228FF
:100A700006D13748006800F0007040B90120AEE7A9
:100A80003348006800F0020008B90120A7E73048A9
:100A9000406820F00300616808432D494860FFF773
:100AA0009FFE064609E0FFF79BFE801B41F288315E
:100AB000884202D9032092E707E02548406800F009
:100AC0000C006168B0EB810FEDD12048006800F0A8
:100AD0000700A8420ED91D48006820F007002843EF
:100AE0001A4908600846006800F00700A84201D0D3
:100AF000012074E7207800F00400042807D114488E
:100B0000406820F4E060E1680843114948602078BB
:100B100000F00800082808D10D48406820F4605013
:100B2000216940EAC1000A49486000F019F8084903
:100B30004968C1F30311074A515CC840064908607F
:100B400006480068FFF772FE002048E700200240D8
:100B50000010024090250008140000200C00002026
:100B6000F0B585B00FF26C0C9CE8E01001A8A0E88D
:100B7000E0101CA52D680095002100220023002410
:100B80000020194D696801F00C05F5B1042D02D063
:100B9000082D19D101E0154819E001ADC1F38346D4
:100BA000AC5D01F4803555B10F4D6D68C5F340451E
:100BB0001DF805200D4D6543B5FBF2F302E00C4D29
:100BC00004FB05F3184602E000BF084800BF00BF61
:100BD00005B0F0BD02030405060708090A0B0C0D59
:100BE0000E0F1010010200000010024000127A00E7
:100BF00000093D00F8B504460CB90120F8BD207885
:100C000000F00100002878D0F848406800F00C009F
:100C100004280CD0F548406800F00C00082811D1D9
:100C2000F248406800F48030B0F5803F0AD1EF48C8
:100C3000006800F4003000285FD0606800285CD1B4
:100C40000120DBE700BF6068B0F5803F06D1E748D0
:100C5000006840F48030E549086028E0606858B9D1
:100C6000E248006820F48030E049086008460068E7
:100C700020F4802008601AE06068B0F5A02F0BD146
:100C8000DA48006840F48020D849086008460068C7
:100C900040F4803008600AE0D448006820F48030D6
:100CA000D24908600846006820F48020086000BF30
:100CB000606888B1FFF794FD054606E0FFF790FDF8
:100CC000401B642801D9032098E7C848006800F455
:100CD00000300028F2D010E0FFF782FD054606E064
:100CE000FFF77EFD401B642801D9032086E7BF483B
:100CF000006800F400300028F2D1207800F00200F3
:100D0000022857D1B948406800F00C0050B1B748EC
:100D1000406800F00C00082818D1B448406800F47E
:100D2000803098B9B148006800F0020020B1206915
:100D3000012801D0012061E7AC48006820F0F800EC
:100D4000616940EAC100A949086033E02069E8B15F
:100D50000120A7490860FFF743FD054606E0FFF7BD
:100D60003FFD401B022801D9032047E79F48006848
:100D700000F002000028F2D09C48006820F0F80043
:100D8000616940EAC1009949086013E00020984970
:100D90000860FFF725FD054606E0FFF721FD401B33
:100DA000022801D9032029E79048006800F00200DA
:100DB0000028F2D1207800F0080008282DD1A06981
:100DC000B8B101208B490860FFF70AFD054606E02F
:100DD000FFF706FD401B022801D903200EE78348D8
:100DE000406A00F002000028F2D0012001F0CCF8A7
:100DF00013E000207F490860FFF7F2FC054606E09B
:100E0000FFF7EEFC401B022801D90320F6E67748E5
:100E1000406A00F002000028F2D1207800F00400BF
:100E2000042873D100277148C06900F0805070B960
:100E300000BF6E48C06940F080506C49C8610846E8
:100E4000C06900F08050009000BF00BF01276A48D1
:100E5000006800F48070B0B96748006840F48070A2
:100E600065490860FFF7BCFC054606E0FFF7B8FCE3
:100E7000401B642801D90320C0E65F48006800F4E5
:100E800080700028F2D000BFE068012806D15748E2
:100E9000006A40F001005549086227E0E06858B94F
:100EA0005248006A20F00100504908620846006A72
:100EB00020F00400086219E0E06805280BD14B48D7
:100EC000006A40F00400494908620846006A40F0A0
:100ED000010008620AE04548006A20F00100434929
:100EE00008620846006A20F00400086200BFE0685B
:100EF000A0B1FFF775FC054609E0FFF771FC401B48
:100F000041F28831884202D9032077E622E037484F
:100F1000006A00F002000028EFD012E0FFF760FC4A
:100F2000054608E0FFF75CFC401B41F2883188422F
:100F300001D9032062E62D48006A00F00200002873
:100F4000F0D1012F05D12948C06920F080502749F0
:100F5000C86100BFE069C8B32448406800F00C00D5
:100F6000082860D0E069022848D10020204908669E
:100F7000FFF736FC054606E0FFF732FC401B02286F
:100F800001D903203AE61948006800F000700028F3
:100F9000F2D1206AB0F5803F07D11448406820F4B0
:100FA0000030A168084311494860D4E908010843AA
:100FB0000E49496821F4741108430C494860012026
:100FC0000B490866FFF70CFC054607E03DE0FFF71C
:100FD00007FC401B022801D903200FE603480068E4
:100FE00000F000700028F2D02FE000000010024056
:100FF0000000424280044242007000400020144938
:101000000866FFF7EDFB054606E0FFF7E9FB401B2E
:10101000022801D90320F1E50E48006800F00070B5
:101020000028F2D111E0E069012800D1E6E5094885
:10103000466806F48031206A814204D106F47011BA
:10104000606A814201D00120D8E50020D6E5000089
:10105000000042420010024070B504462546681E5A
:10106000B0F1807F01D301200FE0681E4FF0E02136
:1010700048610F214FF0FF3001F036F900204FF0AA
:10108000E021886107200861002070BD704770472B
:1010900010B50346002200BF93F83C00012801D19F
:1010A000022010BD012083F83C0000BF22F0FF00A9
:1010B000CC6840EA040222F440708C6840EA0402E2
:1010C00022F480604C6840EA040222F400600C685C
:1010D00040EA040222F480500C6940EA040222F43F
:1010E00000504C6940EA040222F48040CC6940EA96
:1010F00004021868426400BF002083F83C0000BF6F
:1011000000BFCEE730B502460B4600BF92F83C0068
:10111000012801D1022030BD012082F83C0000BF2F
:10112000022082F83D00106844681068816824F04D
:1011300070041868044310684460104D1068A84299
:101140000BD01068B0F1804F07D00D4D1068A84249
:1011500003D00C4D1068A84205D121F080015868D9
:10116000014310688160012082F83D0000BF00202B
:1011700082F83C0000BF00BFCDE70000002C01401A
:10118000000400400008004010B504460CB90120DE
:1011900010BD94F83D0028B9002084F83C0020469A
:1011A00000F026F8022084F83D00211D206800F0A0
:1011B0004DFF012084F8460000BF84F83E00012165
:1011C0003F200155402001554120015500BF00BF7F
:1011D000012084F842004320015544200155452058
:1011E000015500BF012084F83D000020D0E7000039
:1011F00010B586B00446002002900390049005903C
:1012000033492068884216D100BF3248806940F4D3
:101210000060304988610846806900F400600190F0
:1012200000BF00BF002211461920FFF75FFB192005
:10123000FFF74CFB4AE02068B0F1804F2CD100BF93
:101240002448C06940F001002249C8610846C069CD
:1012500000F00100019000BF00BF00BF0846806998
:1012600040F0040088610846806900F004000190A5
:1012700000BF00BF0120029000200390049002A94B
:101280001548FFF70DF9002211461C20FFF72EFB31
:101290001C20FFF71BFB19E010492068884215D17C
:1012A00000BF0C48C06940F002000A49C861084606
:1012B000C06900F00200019000BF00BF002211468B
:1012C0001D20FFF713FB1D20FFF700FB06B010BD2C
:1012D000002C0140001002400008014000040040C2
:1012E000014691F83D00012801D0012070470220FD
:1012F00081F83D000868C06840F001000B68D860C4
:10130000124B086898420BD00868B0F1804F07D0A4
:101310000F4B0868984203D00E4B086898420CD1D6
:101320000868806800F00702062A0CD00868006888
:1013300040F001000B68186005E00868006840F0A4
:1013400001000B6818600020D0E70000002C01406D
:10135000000400400008004001460868C06820F012
:1013600001000A68D06000BF0868006A41F21112EB
:10137000104050B90868006A9210104028B90868F7
:10138000006820F001000A68106000BF012081F8A9
:101390003D00002070472DE9F04104460D4600BF96
:1013A00094F83C00012802D10220BDE8F081012020
:1013B00084F83C0000BF022084F83D002068866865
:1013C00026F0770626F47F46206886602868502835
:1013D00033D00CDC202850D004DC00284BD010285F
:1013E00051D149E0302849D040284CD139E060281B
:1013F0002DD0702807D0B0F5805F03D0B0F5005F26
:1014000041D10DE040E0D5E902136A68206800F0A0
:1014100068FE2068866846F077062068866033E0BC
:10142000D5E902136A68206800F05BFE20688068D6
:1014300040F480402168886026E0EA686968206896
:1014400000F020FF5021206800F056FE1CE0EA6802
:101450006968206800F029FF6021206800F04CFED8
:1014600012E0EA686968206800F00CFF40212068FB
:1014700000F042FE08E000BF00BF00BF29682068FE
:1014800000F03AFE00E000BF00BF012084F83D00FC
:1014900000BF002084F83C0000BF00BF85E7704714
:1014A00010B5044620680069C0F34000D8B1206838
:1014B000C068C0F34000B0B16FF00200216808615D
:1014C000012020772068806900F0030018B12046D1
:1014D000FFF7E5FF05E0204600F00AF9204600F09E
:1014E000A7FA0020207720680069C0F38000D8B1F7
:1014F0002068C068C0F38000B0B16FF004002168BC
:101500000861022020772068806900F4407018B1DB
:101510002046FFF7C4FF05E0204600F0E9F820462A
:1015200000F086FA0020207720680069C0F3C00030
:10153000D8B12068C068C0F3C000B0B16FF0080037
:1015400021680861042020772068C06900F003004A
:1015500018B12046FFF7A3FF05E0204600F0C8F8C9
:10156000204600F065FA0020207720680069C0F36B
:101570000010D8B12068C068C0F30010B0B16FF09F
:10158000100021680861082020772068C06900F4F5
:10159000407018B12046FFF782FF05E0204600F0BA
:1015A000A7F8204600F044FA002020772068006960
:1015B00000F0010038B12068C06800F0010010B1EF
:1015C000204600F0F1FA20680069C0F3C01058B15D
:1015D0002068C068C0F3C01030B16FF0800021688F
:1015E00008612046FFF752FD20680069C0F38010B3
:1015F00058B12068C068C0F3801030B16FF040006F
:1016000021680861204600F0FDFA20680069C0F3F7
:10161000401058B12068C068C0F3401030B16FF07E
:101620002000216808612046FFF731FD10BD000051
:1016300010B586B0044600200290039004900590F7
:101640000E492068884217D100BF0D48806940F0DC
:1016500004000B4988610846806900F0040001908D
:1016600000BF00BF4FF4606002900220039005901D
:1016700002A90448FEF714FF06B010BD002C01407B
:10168000001002400008014070B504460E461546A1
:1016900000BF94F83C00012801D1022070BD012058
:1016A00084F83C0000BF35B1042D09D0082D0CD0C2
:1016B0000C2D14D10EE03146206800F027FD0FE01C
:1016C0003146206800F052FD0AE03146206800F003
:1016D00081FD05E03146206800F0B0FD00E000BF6C
:1016E00000BF00BF002084F83C0000BF00BFD5E76A
:1016F000704710B504460CB9012010BD94F83D00A8
:1017000028B9002084F83C00204600F025F802208B
:1017100084F83D00211D206800F098FC012084F829
:10172000460000BF84F83E0001213F2001554020C3
:1017300001554120015500BF00BF012084F842003F
:1017400043200155442001554520015500BF01208B
:1017500084F83D000020D0E77047000070B50446D3
:101760000D4615B994F83E000BE0042D02D13F2040
:10177000005D06E0082D02D14020005D01E041201F
:10178000005D012801D0012070BD1DB9022084F840
:101790003E000EE0042D03D102213F20015508E058
:1017A000082D03D102214020015502E002214120F1
:1017B000015501222946206800F082FC1949206861
:1017C000884201D1012000E0002028B12068406C4F
:1017D00040F40040216848641249206888420BD0D8
:1017E0002068B0F1804F07D00F492068884203D0AD
:1017F0000E49206888420CD12068806800F00706F6
:10180000062E0CD02068006840F0010021680860B6
:1018100005E02068006840F00100216808600020B1
:10182000B2E70000002C0140000400400008004026
:1018300030B504460D4600222946206800F040FCE1
:1018400021492068884201D1012000E0002090B1A8
:1018500000BF2068006A41F21111084050B92068A9
:10186000006A8910084028B92068406C20F40040C4
:101870002168486400BF00BF2068006A41F211116E
:10188000084050B92068006A8910084028B92068CB
:10189000006820F001002168086000BF1DB9012028
:1018A00084F83E000EE0042D03D101213F200155B4
:1018B00008E0082D03D101214020015502E001215B
:1018C00041200155002030BD002C014070B5044678
:1018D0000D46164600BF94F83C00012801D10220B5
:1018E00070BD012084F83C0000BF36B1042E1BD02F
:1018F000082E31D00C2E5ED145E02946206800F03C
:1019000005FC2068806940F0080021688861206833
:10191000806920F004002168886120688069296955
:1019200008432168886147E02946206800F01EFCD2
:101930002068806940F400602168886120688069BF
:1019400020F480602168886120688069296940EA04
:101950000120216888612FE02946206800F03AFCC8
:101960002068C06940F008002168C8612068C0692B
:1019700020F004002168C8612068C0692969084313
:101980002168C86118E02946206800F057FC2068EB
:10199000C06940F400602168C8612068C06920F413
:1019A00080602168C8612068C069296940EA012017
:1019B0002168C86100E000BF00BF00BF002084F8BC
:1019C0003C0000BF00BF8BE710B504460CB90120F6
:1019D00010BD94F83D0028B9002084F83C00204652
:1019E00000F025F8022084F83D00211D206800F059
:1019F0002DFB012084F8460000BF84F83E00012141
:101A00003F200155402001554120015500BF00BF36
:101A1000012084F84200432001554420015545200F
:101A2000015500BF012084F83D000020D0E7704739
:101A30007047000070B504460D4615B994F83E0095
:101A40000BE0042D02D13F20005D06E0082D02D1FD
:101A50004020005D01E04120005D012801D001200F
:101A600070BD1DB9022084F83E000EE0042D03D1A4
:101A700002213F20015508E0082D03D1022140201A
:101A8000015502E00221412001550122294620682A
:101A900000F016FB1A49206888420BD02068B0F18C
:101AA000804F07D017492068884203D01649206824
:101AB00088420FD12068806800F00706062E0FD0FC
:101AC0002068006840F00100216808603220FEF7BD
:101AD00073FC05E02068006840F0010021680860A0
:101AE00007492068884201D1012000E0002028B188
:101AF0002068406C40F40040216848640020AFE753
:101B0000002C0140000400400008004030B50446AD
:101B10000D4600222946206800F0D2FA21492068AB
:101B2000884201D1012000E0002090B100BF206870
:101B3000006A41F21111084050B92068006A89100A
:101B4000084028B92068406C20F4004021684864AF
:101B500000BF00BF2068006A41F21111084050B96F
:101B60002068006A8910084028B92068006820F0C1
:101B700001002168086000BF1DB9012084F83E0003
:101B80000EE0042D03D101213F20015508E0082D6E
:101B900003D101214020015502E0012141200155DE
:101BA000002030BD002C01401149096801F00101FD
:101BB00079B16FF00101026811610E490978491C81
:101BC0000C4A11701146097889B900210A4A11702E
:101BD0000DE00A49096801F0010141B16FF001010E
:101BE0000268116106490978491C054A117070475D
:101BF000100400400000002001000020102C0140D3
:101C000004000020704700BFFEE7000000B585B06B
:101C10000020019002900390049000BF4748806923
:101C200040F01000454988610846806900F01000C6
:101C3000009000BF00BF00BF0846806940F0200050
:101C400088610846806900F02000009000BF00BF56
:101C500000BF0846806940F004008861084680693A
:101C600000F00400009000BF00BF00BF084680697C
:101C700040F0080088610846806900F00800009084
:101C800000BF00BF00224FF400512D48FEF7A2FD17
:101C9000002220212B48FEF79DFD4FF400500190BB
:101CA00001200290002003900120049001A9244803
:101CB000FEF7F6FB49F2C21001900320029001A941
:101CC0002048FEF7EDFB0420019000200290012047
:101CD000039001A91B48FEF7E3FB182001901A4866
:101CE00002900120039001A91648FEF7D9FB20209D
:101CF000019001200290002003900320049001A98C
:101D00001048FEF7CDFB4FF6FF70019003200290C4
:101D100001A90E48FEF7C4FB002206210920FEF7A8
:101D2000E5FD0920FEF7D2FD002206210A20FEF77C
:101D3000DDFD0A20FEF7CAFD05B000BD001002401F
:101D4000001001400008014000002110000C01407B
:101D500000B595B0002011901290139014900F9040
:101D600010901C2108A8FEF7F4F920216846FEF720
:101D7000F0F94548454908604FF4FA5048600021A1
:101D8000424881604FF47A71C16000210161416174
:101D90008161FFF7F9F908B1FEF70AFB4FF48050B3
:101DA000119011A93948FFF7F6FA08B1FEF700FBC8
:101DB0003648FFF79EFC08B1FEF7FAFA3348FFF702
:101DC00003FE08B1FEF7F4FA00200F9010900FA95F
:101DD0002E48FFF797F908B1FEF7EAFA302008908D
:101DE000C820099000200A900B900C900D900E9046
:101DF000042208A92548FFF747FC08B1FEF7D8FAE6
:101E000022480068806940F40060204909688861C0
:101E10004FF4FA700990082208A91C48FFF734FC17
:101E200008B1FEF7C5FA19480068C06940F008001B
:101E300016490968C861602008904FF496700990AF
:101E40000C2208A91148FFF741FD08B1FEF7B0FACE
:101E50000020009001900290039004904FF40050F5
:101E600005900020079069460848FFF711F908B16E
:101E7000FEF79EFA6FF00100044909680861034803
:101E8000FFF7D6FB15B000BD002C01401800002064
:101E900000B587B000200390049005900690019053
:101EA00002904FF0804016490860002048600021F1
:101EB000134881604FF47A71C16000210161816132
:101EC000FFF762F908B1FEF773FA4FF40050039080
:101ED0000020049005900320069003A90848FFF70E
:101EE0005AFA08B1FEF764FA00200190029001A9A5
:101EF0000348FFF707F908B1FEF75AFA07B000BD2B
:101F00006000002000B587B0002003900490059089
:101F10000690019002901748174908604FF4FA5054
:101F200048600021144881606421C1600021016182
:101F30008161FFF729F908B1FEF73AFA4FF48050B2
:101F4000039003A90C48FFF726FA08B1FEF730FA10
:101F500000200190029001A90748FFF7D3F808B1CB
:101F6000FEF726FA6FF0010003490968086107B01F
:101F700000BD000000040040A800002000BFFEE7F4
:101F800000BFFEE77047000008B508490968C908A6
:101F90004FF47A72B1FBF2F14143009100BF00BFF0
:101FA00000994A1E00920029F9D108BD14000020B2
:101FB000704710B5FEF71AFC10BD00B58FB0282190
:101FC00005A8FEF7C6F814216846FEF7C2F80120FE
:101FD000059000040690002007900120099002203F
:101FE0000C90C1030D9100210E9105A8FEF702FE91
:101FF00008B1FEF7DDF90F2000900220019080204B
:10200000029000200390049000216846FEF7E2FC55
:1020100008B1FEF7CDF90FB000BD704710B502480A
:10202000FFF73EFA10BD00001800002010B502486E
:10203000FFF736FA10BD00006000002010B502481E
:10204000FFF72EFA10BD0000A800002010B50268AE
:10205000184B984208D0B0F1804F05D0164B9842EB
:1020600002D0164B984203D122F070024B681A43FB
:10207000104B984208D0B0F1804F05D00E4B9842DB
:1020800002D00E4B984203D122F44072CB681A431F
:1020900022F080034C6943EA040202608B68C36249
:1020A0000B688362034B984201D10B6903630123E0
:1020B000436110BD002C01400004004000080040B6
:1020C00030B501F01F05012404FA05F3046A9C43AE
:1020D0000462046A01F01F0502FA05F52C4304624C
:1020E00030BD30B50C46816821F47F4142EA0325BA
:1020F00025432943816030BD0A46816821F0700183
:1021000042F00703194381607047000030B5056A4B
:1021100025F001050562026A4368846924F07004B1
:1021200024F003040D682C4322F002028D682A4338
:102130000D4DA84206D100BF22F00802CD682A4307
:1021400022F00402084DA84207D123F4807323F43F
:1021500000734D692B438D692B43436084614D6847
:102160004563026230BD0000002C014030B5056AB5
:1021700025F010050562026A4368846924F4E0448E
:1021800024F440740D6844EA052422F020028D688E
:1021900042EA05120E4DA84207D100BF22F080028C
:1021A000CD6842EA051222F04002094DA84209D149
:1021B00023F4806323F400634D6943EA85038D694A
:1021C00043EA8503436084614D688563026230BDE4
:1021D000002C014030B5056A25F480750562026A5D
:1021E0004368C46924F0700424F003040D682C4390
:1021F00022F400728D6842EA05220F4DA84207D1F1
:1022000000BF22F40062CD6842EA052222F4806217
:10221000094DA84209D123F4805323F400534D699A
:1022200043EA05138D6943EA05134360C4614D68B1
:10223000C563026230BD0000002C014030B5056A64
:1022400025F480550562036A4468C26922F4E042BD
:1022500022F440720D6842EA052223F400538D688F
:1022600043EA0533064DA84204D124F480444D6965
:1022700044EA85144460C2614D680564036230BD60
:10228000002C014030B50B461446026A056A25F061
:1022900001050562816921F0F00141EA041122F093
:1022A0000A021A438161026230BD30B50B46144602
:1022B000056A25F0100505628169026A21F4704102
:1022C00041EA043122F0A00242EA03128161026273
:1022D00030BD00BFFEE7000002480068C0F30220E6
:1022E000704700000CED00E010B5002804DB0A0781
:1022F000130E054A135406E00A07140E034A00F0B1
:102300000F031B1FD45410BD00E400E018ED00E0E3
:1023100002E008C8121F08C1002AFAD170477047AE
:10232000002001E001C1121F002AFBD1704700000C
:1023300010B504210748FFF77BFA08210548FFF78D
:1023400077FA0548FFF708F80C210248FFF7DEFB93
:1023500010BD0000180000206000002010B500BF74
:102360001C48C06800F001000028F9D11A4819493A
:1023700048601A48486018488860184888600846CD
:10238000006940F0200008610846006940F0400004
:1023900008610846006920F02000086108460069CD
:1023A00040F010000861A5200D490880FF20891C1D
:1023B0000880891C0880891C08804000891C0880CE
:1023C000FF20891C0880891C0880891C0880FEF772
:1023D000DFFA10BD0020024023016745AB89EFCD35
:1023E00000F8FF1FFEF70EFAFFF7E7FDFFF7B6FF55
:1023F000FFF70CFCFFF7ACFCFFF784FDFFF748FD8F
:102400000A48FEF76DFF0A4800780A4908700CE098
:102410000748007807490978401A022805D304487C
:1024200000780449087000F007F8F1E7A8000020E0
:1024300000000020010000202DE9F0414C48007808
:10244000012806D0022820D003282FD004286FD1DD
:1024500052E04748007847490978884214D04448F8
:10246000007844490870FFF763FF4FF47A704249DF
:1024700008604248FEF734FF04214048FFF76EF938
:1024800008213E48FFF76AF96EE03948007839497B
:102490000978884205D03648007836490870FFF739
:1024A00047FF20213648FEF78BF95DE03048007881
:1024B0003049097888420ED02D4800782D4908709F
:1024C000FFF736FF00202F4908804FF08041486217
:1024D0002D48FEF705FF20212948FEF771F90A2053
:1024E000FDF76AFF20212648FEF76AF92548008893
:1024F000401C2449088037E01D4800781D490978B0
:10250000884213D01A4800781A490870FFF710FF64
:102510000A2019490860002017491431086016493B
:10252000083908600C211548FFF784FA002415E0EB
:1025300017E004EB84014800FDF785FE0746002202
:10254000124BFDF711FE0546FDF78EFE0A491431C8
:1025500008601E20FDF730FFA01CC4B2652CE8DB2C
:1025600002E0FFF7E5FE00BF00BFBDE8F08100001C
:1025700002000020030000202C2C01401800002045
:1025800000080140060000206000002000005940C3
:102590000000000000000000010203040607080913
:1025A0000000000001020304C8250008000000200C
:1025B0001800000010230008E02500081800002083
:1025C000D8040000202300080000000000000000E4
:1025D0000000000010000000010000000024F400D2
:04000005080000ED02
:00000001FF
