:020000040800F2
:100000007004002001010008C51300085712000801
:10001000C1130008FD0100084B1500080000000096
:10002000000000000000000000000000F5130008C0
:100030000102000800000000C9130008F7130008BF
:100040001B0100081B0100081B0100081B01000820
:100050001B0100081B0100081B0100081B01000810
:100060001B0100081B0100081B0100081B01000800
:100070001B0100081B0100081B0100081B010008F0
:100080001B0100081B0100081B0100081B010008E0
:100090001B0100081B0100081B0100081B010008D0
:1000A0001B0100081B0100081B0100081B010008C0
:1000B000511400081B0100081B0100081B01000867
:1000C0001B0100081B0100081B0100081B010008A0
:1000D0001B0100081B0100081B0100081B01000890
:1000E0001B0100081B0100081B010008DFF80CD0F1
:1000F00000F072F800480047A516000870040020C0
:100100000648804706480047FEE7FEE7FEE7FEE7B1
:10011000FEE7FEE7FEE7FEE7FEE7FEE74F14000816
:10012000ED000008D2B201E000F8012B491EFBD21D
:1001300070470022F6E710B513460A4604461946F2
:10014000FFF7F0FF204610BD96230022114600F075
:1001500014B80000002801DBC0F10040002901DBD9
:10016000C1F10041814270470029A8BF7047401C7F
:10017000490008BF20F00100704710B4B0FA80FCBD
:1001800000FA0CF050EA010404BF10BC704749B1FA
:10019000CCF1200421FA04F411FA0CF118BF01216A
:1001A00021430843A3EB0C01CB1D4FEA00614FEA4A
:1001B000102042BF002010BC704700EBC350104419
:1001C0000029A4BF10BC7047401C490008BF20F0A4
:1001D000010010BC70470000064C074D06E0E068C7
:1001E00040F0010394E8070098471034AC42F6D37E
:1001F000FFF780FF441700086417000800BFFEE700
:10020000704772B600BFFEE770B5044600F0AEF965
:1002100006462546681C10B104480078054400BF16
:1002200000F0A4F9801BA842FAD370BD1000002092
:100230002DE9F8470346002294466EE14FF001088D
:1002400008FA02F4D1F8008008EA0400A0427DD147
:10025000DFF8DCA2D1F80480A8EB0A09D0453AD037
:1002600014DCB8F1030F50D009DCB8F1000F31D025
:10027000B8F1010F1CD0B8F1020F49D120E0B8F15C
:10028000110F18D0B8F1120F42D11EE0B9F5881F36
:1002900025D006DCB9F5803F20D0B9F5801F37D1D5
:1002A0001AE0B9F5001F18D0B9F5041F30D117E0D6
:1002B000D1F80CC02DE0D1F80C8008F1040C28E036
:1002C000D1F80C8008F1080C23E0D1F80C8008F17B
:1002D0000C0C1EE000BF00BF00BF00BF00BF00BF8E
:1002E000D1F80880B8F1000F02D14FF0040C0BE0F8
:1002F000D1F80880B8F1010F03D14FF0080C1C6150
:1003000002E04FF0080C5C6103E04FF0000C00E0ED
:1003100000BF00BFFF2801D8984601E003F10408A0
:100320004646FF2802D84FEA820803E0A2F10808F7
:100330004FEA88084746D6F800804FF00F0909FABF
:1003400007F928EA09080CFA07F900E088E048EA0A
:100350000908C6F80080D1F8048008F08058B8F188
:10036000805F7DD100BFDFF8CC81D8F8188048F0DD
:100370000108DFF8C091C9F81880C846D8F818807D
:1003800008F00108CDF8008000BF00BF4FEAB9387F
:100390004FEA920958F829504FEA82784FEA1879C3
:1003A0004FF00F0808FA09F825EA0805DFF88881F8
:1003B000434502D14FF0000816E0DFF88081434545
:1003C00002D14FF001080FE0DFF87481434502D1FC
:1003D0004FF0020808E0DFF86C81434502D14FF08E
:1003E000030801E04FF004084FEA82794FEA1979D7
:1003F00008FA09F848EA0505DFF84C814FEA920946
:1004000048F82950D1F8048008F48038B8F5803FC6
:100410000AD1DFF83881D8F8008048EA0008DFF810
:100420002C91C9F8008009E0DFF82081D8F800801D
:1004300028EA0008DFF81491C9F80080D1F8048098
:1004400008F40038B8F5003F10D1DFF8008108F15A
:100450000408D8F8008048EA0008DFF8F09000E0CF
:100460005AE009F10409C9F800800DE0DFF8DC80EA
:1004700008F10408D8F8008028EA0008DFF8CC90DA
:1004800009F10409C9F80080D1F8048008F4801843
:10049000B8F5801F0ED1DFF8B48008F10808D8F84D
:1004A000008048EA0008DFF8A49009F10809C9F8BB
:1004B00000800DE0DFF8948008F10808D8F800808B
:1004C00028EA0008DFF8849009F10809C9F80080DB
:1004D000D1F8048008F40018B8F5001F0ED1DFF839
:1004E0006C8008F10C08D8F8008048EA0008DFF8B2
:1004F0005C9009F10C09C9F800800DE0DFF84C8030
:1005000008F10C08D8F8008028EA0008DFF83C90D1
:1005100009F10C09C9F80080521CD1F8008028FAB2
:1005200002F8B8F1000F7FF489AEBDE8F88700004B
:10053000000011100010024000080140000C0140B2
:100540000010014000140140080001400004014077
:10055000024693680B400BB1012000E00020704779
:100560000AB1016101E00B040361704701480068B2
:10057000704700000800002003480068034909781C
:10058000084401490860704708000020100000205E
:1005900010B50848006840F01000064908600320C4
:1005A00000F0A8F8002000F007F800F02BF8002079
:1005B00010BD00000020024070B504460E480078CF
:1005C0004FF47A71B1FBF0F00C490968B1FBF0F51A
:1005D000284600F0E5FB08B1012070BD102C07D2C1
:1005E00000222146501E00F047F80548046001E053
:1005F0000120F2E70020F0E71000002014000020A6
:100600000C00002008B500BF1148806940F00100CF
:100610000F4988610846806900F00100009000BF22
:1006200000BF00BF0846C06940F08050C86108465E
:10063000C06900F08050009000BF00BF00BF0549B6
:10064000486820F0E06040F00070486000BF08BDDE
:10065000001002400000014001460846002809DB66
:1006600000F01F0301229A4043099B0003F1E0239D
:10067000C3F8002100BF70472DE9F05F80460D46AA
:100680001646002700F064FF074639462A463346DF
:1006900001F00700C0F1070ABAF1040F02D94FF0C8
:1006A000040A01E0C0F1070AD14600F1040ABAF1D8
:1006B000070F02D24FF0000A01E0A0F1030AD4466E
:1006C0004FF0010A0AFA09FAAAF1010A0AEA020A33
:1006D0000AFA0CFA4FF0010B0BFA0CFBABF1010B11
:1006E0000BEA030B4AEA0B042146404600F038FFB0
:1006F000BDE8F09F00BF00F00702064B19684FF6F7
:10070000FF031940044B0B4343EA0221014B1960DC
:1007100000BF70470CED00E00000FA0570B504461C
:100720000D460CB9012070BD5A48006800F0070062
:10073000A8420ED25748006820F0070028435549C8
:1007400008600846006800F00700A84201D00120B8
:10075000E9E7207800F0020002281DD1207800F09F
:100760000400042805D14C48406840F4E0604A4940
:100770004860207800F00800082805D14648406805
:1007800040F46050444948604348406820F0F0001D
:10079000A168084340494860207800F0010078B320
:1007A0006068012806D13C48006800F4003090B928
:1007B0000120B8E76068022806D13748006800F0D9
:1007C000007040B90120AEE73348006800F0020035
:1007D00008B90120A7E73048406820F003006168AD
:1007E00008432D494860FFF7C1FE064609E0FFF7C0
:1007F000BDFE801B41F28831884202D9032092E776
:1008000007E02548406800F00C006168B0EB810FFC
:10081000EDD12048006800F00700A8420ED91D481D
:10082000006820F0070028431A490860084600685D
:1008300000F00700A84201D0012074E7207800F002
:100840000400042807D11448406820F4E060E168FF
:10085000084311494860207800F00800082808D1B2
:100860000D48406820F46050216940EAC1000A49FF
:10087000486000F019F808494968C1F30311074AB4
:10088000515CC8400649086006480068FFF794FEBE
:10089000002048E700200240001002401C1700081A
:1008A000140000200C000020F0B585B00FF26C0C95
:1008B0009CE8E01001A8A0E8E0101CA52D680095B8
:1008C00000210022002300240020194D696801F056
:1008D0000C05F5B1042D02D0082D19D101E0154801
:1008E00019E001ADC1F38346AC5D01F4803555B12B
:1008F0000F4D6D68C5F340451DF805200D4D65434E
:10090000B5FBF2F302E00C4D04FB05F3184602E0E0
:1009100000BF084800BF00BF05B0F0BD02030405DA
:10092000060708090A0B0C0D0E0F1010010200003B
:100930000010024000127A0000093D00F8B504469C
:100940000CB90120F8BD207800F00100002878D013
:10095000F848406800F00C0004280CD0F5484068C6
:1009600000F00C00082811D1F248406800F48030F3
:10097000B0F5803F0AD1EF48006800F4003000284D
:100980005FD0606800285CD10120DBE700BF6068B1
:10099000B0F5803F06D1E748006840F48030E54973
:1009A000086028E0606858B9E248006820F48030A8
:1009B000E04908600846006820F4802008601AE0DA
:1009C0006068B0F5A02F0BD1DA48006840F48020B1
:1009D000D84908600846006840F4803008600AE0A2
:1009E000D448006820F48030D24908600846006886
:1009F00020F48020086000BF606888B1FFF7B6FD72
:100A0000054606E0FFF7B2FD401B642801D903202C
:100A100098E7C848006800F400300028F2D010E0E1
:100A2000FFF7A4FD054606E0FFF7A0FD401B642884
:100A300001D9032086E7BF48006800F40030002891
:100A4000F2D1207800F00200022857D1B94840685E
:100A500000F00C0050B1B748406800F00C000828C6
:100A600018D1B448406800F4803098B9B1480068A3
:100A700000F0020020B12069012801D0012061E7C7
:100A8000AC48006820F0F800616940EAC100A9495B
:100A9000086033E02069E8B10120A7490860FFF74A
:100AA00065FD054606E0FFF761FD401B022801D900
:100AB000032047E79F48006800F002000028F2D0BA
:100AC0009C48006820F0F800616940EAC10099493B
:100AD000086013E0002098490860FFF747FD0546CD
:100AE00006E0FFF743FD401B022801D9032029E758
:100AF0009048006800F002000028F2D1207800F051
:100B0000080008282DD1A069B8B101208B490860E0
:100B1000FFF72CFD054606E0FFF728FD401B0228E5
:100B200001D903200EE78348406A00F00200002844
:100B3000F2D0012000F04AFC13E000207F49086059
:100B4000FFF714FD054606E0FFF710FD401B0228E5
:100B500001D90320F6E67748406A00F00200002839
:100B6000F2D1207800F00400042873D100277148E6
:100B7000C06900F0805070B900BF6E48C06940F095
:100B800080506C49C8610846C06900F080500090F0
:100B900000BF00BF01276A48006800F48070B0B948
:100BA0006748006840F4807065490860FFF7DEFC24
:100BB000054606E0FFF7DAFC401B642801D9032054
:100BC000C0E65F48006800F480700028F2D000BFE3
:100BD000E068012806D15748006A40F001005549F5
:100BE000086227E0E06858B95248006A20F0010026
:100BF000504908620846006A20F00400086219E0C3
:100C0000E06805280BD14B48006A40F004004949D0
:100C100008620846006A40F0010008620AE04548A0
:100C2000006A20F00100434908620846006A20F08B
:100C30000400086200BFE068A0B1FFF797FC05461A
:100C400009E0FFF793FC401B41F28831884202D94A
:100C5000032077E622E03748006A00F0020000280F
:100C6000EFD012E0FFF782FC054608E0FFF77EFCBC
:100C7000401B41F28831884201D9032062E62D48A9
:100C8000006A00F002000028F0D1012F05D12948A8
:100C9000C06920F080502749C86100BFE069C8B32F
:100CA0002448406800F00C00082860D0E069022861
:100CB00048D1002020490866FFF758FC054606E0A9
:100CC000FFF754FC401B022801D903203AE61948DB
:100CD000006800F000700028F2D1206AB0F5803F73
:100CE00007D11448406820F40030A1680843114936
:100CF0004860D4E9080108430E49496821F4741199
:100D000008430C49486001200B490866FFF72EFC98
:100D1000054607E03DE0FFF729FC401B022801D90A
:100D200003200FE60348006800F000700028F2D0AE
:100D30002FE00000001002400000424280044242C6
:100D400000700040002014490866FFF70FFC0546BC
:100D500006E0FFF70BFC401B022801D90320F1E558
:100D60000E48006800F000700028F2D111E0E06940
:100D7000012800D1E6E50948466806F48031206A7A
:100D8000814204D106F47011606A814201D00120D1
:100D9000D8E50020D6E500000000424200100240E5
:100DA00070B504462546681EB0F1807F01D301204E
:100DB0000FE0681E4FF0E02148610F214FF0FF3037
:100DC00000F0CEFB00204FF0E02188610720086191
:100DD000002070BD7047704730B502460B4600BF1B
:100DE00092F83C00012801D1022030BD012082F898
:100DF0003C0000BF022082F83D0010684468106883
:100E0000816824F070041868044310684460104D31
:100E10001068A8420BD01068B0F1804F07D00D4D7C
:100E20001068A84203D00C4D1068A84205D121F0EB
:100E300080015868014310688160012082F83D00FC
:100E400000BF002082F83C0000BF00BFCDE70000DB
:100E5000002C0140000400400008004010B504468A
:100E60000CB9012010BD94F83D0028B9002084F889
:100E70003C00204600F026F8022084F83D00211DA9
:100E8000206800F0EDFA012084F8460000BF84F8E5
:100E90003E0001213F2001554020015541200155D0
:100EA00000BF00BF012084F84200432001554420C8
:100EB00001554520015500BF012084F83D00002068
:100EC000D0E7000038B504462068B0F1804F15D156
:100ED00000BF0B48C06940F001000949C8610846DD
:100EE000C06900F00100009000BF00BF00220A218D
:100EF0001C20FFF7C1FB1C20FFF7AEFB38BD000034
:100F000000100240014691F83D00012801D0012067
:100F10007047022081F83D000868C06840F0010079
:100F20000B68D860124B086898420BD00868B0F183
:100F3000804F07D00F4B0868984203D00E4B0868CB
:100F400098420CD10868806800F00702062A0CD08D
:100F50000868006840F001000B68186005E0086848
:100F6000006840F001000B6818600020D0E7000026
:100F7000002C014000040040000800402DE9F04131
:100F800004460D4600BF94F83C00012802D102201F
:100F9000BDE8F081012084F83C0000BF022084F805
:100FA0003D002068866826F0770626F47F46206894
:100FB00086602868502833D00CDC202850D004DC10
:100FC00000284BD0102851D149E0302849D0402882
:100FD0004CD139E060282DD0702807D0B0F5805F63
:100FE00003D0B0F5005F41D10DE040E0D5E9021338
:100FF0006A68206800F06EFA2068866846F0770616
:101000002068866033E0D5E902136A68206800F042
:1010100061FA2068806840F480402168886026E09A
:10102000EA686968206800F069FA5021206800F0D9
:101030005CFA1CE0EA686968206800F072FA6021D6
:10104000206800F052FA12E0EA686968206800F04F
:1010500055FA4021206800F048FA08E000BF00BFC0
:1010600000BF2968206800F040FA00E000BF00BF20
:10107000012084F83D0000BF002084F83C0000BF40
:1010800000BF85E7704710B5044620680069C0F3CB
:101090004000D8B12068C068C0F34000B0B16FF024
:1010A000020021680861012020772068806900F033
:1010B000030018B12046FFF7E5FF05E0204600F0E9
:1010C000ADF8204600F0ABF80020207720680069DA
:1010D000C0F38000D8B12068C068C0F38000B0B110
:1010E0006FF0040021680861022020772068806981
:1010F00000F4407018B12046FFF7C4FF05E0204619
:1011000000F08CF8204600F08AF800202077206854
:101110000069C0F3C000D8B12068C068C0F3C00047
:10112000B0B16FF0080021680861042020772068C2
:10113000C06900F0030018B12046FFF7A3FF05E0E7
:10114000204600F06BF8204600F069F80020207778
:1011500020680069C0F30010D8B12068C068C0F3EF
:101160000010B0B16FF010002168086108202077EE
:101170002068C06900F4407018B12046FFF782FF74
:1011800005E0204600F04AF8204600F048F800202C
:1011900020772068006900F0010058B12068C0681D
:1011A00000F0010030B16FF00100216808612046B5
:1011B00000F036F820680069C0F3C01058B120680C
:1011C000C068C0F3C01030B16FF0800021680861C2
:1011D0002046FFF7FFFD20680069C0F3801058B17A
:1011E0002068C068C0F3801030B16FF04000216803
:1011F0000861204600F02EF820680069C0F3401016
:1012000058B12068C068C0F3401030B16FF02000C2
:10121000216808612046FFF7DEFD10BD704770476A
:1012200070B5054609480078401C08490870084612
:101230000078032808DB0020087000F0B5F90446A8
:10124000FEF782FF0249086070BD00000400002024
:1012500000000020704700BFFEE7000000B585B029
:101260000020019002900390049000BF35488069EF
:1012700040F01000334988610846806900F0100092
:10128000009000BF00BF00BF0846806940F020000A
:1012900088610846806900F02000009000BF00BF10
:1012A00000BF0846806940F00400886108468069F4
:1012B00000F00400009000BF00BF00BF0846806936
:1012C00040F0080088610846806900F0080000903E
:1012D00000BF00BF0122F0211B48FFF741F94FF486
:1012E000005001900320029001A91848FEF7A0FFCA
:1012F0000F200190002002900120039001A91248C4
:10130000FEF796FFF020019001200290002003904C
:101310000120049001A90C48FEF78AFF4FF6FF70E8
:1013200001900320029001A90948FEF781FF4FF4C4
:101330001F4001900320029001A90348FEF778FFA7
:1013400005B000BD0010024000080140001001403F
:10135000000C014000B587B0002003900490059078
:101360000690019002904FF080401449086041F6C9
:101370003F7048600021114881600121C160002157
:10138000016180218161FFF769FD08B1FEF739FF36
:101390004FF48050039003A90848FFF7EFFD08B110
:1013A000FEF72FFF00200190029001A90348FFF7EC
:1013B00013FD08B1FEF725FF07B000BD2400002093
:1013C00000BFFEE700BFFEE77047000008B5084910
:1013D0000968C9084FF47A72B1FBF2F141430091F8
:1013E00000BF00BF00994A1E00920029F9D108BD34
:1013F00014000020704710B5FFF7BEF810BD00B50F
:101400008FB0282105A8FEF794FE14216846FEF748
:1014100090FE022005900120099010200A900020E3
:101420000C9005A8FFF78AFA08B1FEF7EAFE0F2034
:1014300000900020019002900390049000216846E3
:10144000FFF76CF908B1FEF7DCFE0FB000BD704786
:1014500010B50248FFF717FE10BD00002400002061
:1014600010B50268184B984208D0B0F1804F05D0F3
:10147000164B984202D0164B984203D122F07002CC
:101480004B681A43104B984208D0B0F1804F05D0FA
:101490000E4B984202D00E4B984203D122F4407278
:1014A000CB681A4322F080034C6943EA04020260CD
:1014B0008B68C3620B688362034B984201D10B694E
:1014C00003630123436110BD002C01400004004070
:1014D0000008004030B50C46816821F47F4142EAA3
:1014E000032525432943816030BD0A46816821F0E8
:1014F000700142F0070319438160704730B50B4615
:101500001446026A056A25F001050562816921F029
:10151000F00141EA041122F00A021A4381610262D9
:1015200030BD30B50B461446056A25F0100505623E
:101530008169026A21F4704141EA043122F0A0027B
:1015400042EA03128161026230BD00BFFEE7000083
:1015500002480068C0F30220704700000CED00E074
:1015600010B5002804DB0A07130E054A135406E0E1
:101570000A07140E034A00F00F031B1FD45410BDBA
:1015800000E400E018ED00E002E008C8121F08C106
:10159000002AFAD170477047002001E001C1121FF4
:1015A000002AFBD17047000010B5064800F04CF847
:1015B0000549044800F028F810B90348007810BD28
:1015C000FF20FCE71800002020000020024642FA1D
:1015D00001F000F001000B1D42FA03F303F00103D8
:1015E000184301F1080342FA03F303F0010318431F
:1015F00001F10C0342FA03F303F00103184308B9A5
:10160000012070470020FCE72DE9F04106460F4617
:10161000002415E000250FE0C5F10302D1B236F831
:101620001400FFF7D3FF28B105EB840038700020C9
:10163000BDE8F081681CC5B2042DEDDB601CC4B2AE
:10164000042CE7DB0120F3E770B5054600261FE018
:10165000114931F8160000F041F8002414E035F883
:1016600014004FF6FF7101EA400025F814000B4802
:1016700030F814100A48FEF76BFF35F814100843D1
:1016800025F81400601CC4B2042CE8DB701CC6B240
:10169000042EDDDB70BD0000341700083C17000885
:1016A00000080140FEF774FFFFF7A9FEFFF7D6FD23
:1016B000FFF750FE0648FFF725FC08E005490648FD
:1016C0000068FEF747FD4FF03200FEF79DFDF5E79D
:1016D0002400002000007F430000002070B5054674
:1016E00000240FE00B4830F81400A84200D107E0B6
:1016F000084830F8141001220748FEF731FF00BFF8
:10170000601CC4B2042CEDDB002229460248FEF71F
:1017100027FF70BD341700080008014000000000DA
:101720000000000001020304060708090000000091
:1017300001020304100020004000800001000200AC
:1017400004000800641700080000002024000000C6
:101750008815000888170008240000204C040000A9
:1017600098150008000000000000000000000000C4
:1017700010000000010000000024F400FFFFFFFF44
:08178000FFFFFFFF0000000065
:04000005080000ED02
:00000001FF
