:020000040800F2
:100000003804002001010008E90D0008350D000842
:10001000E50D00087D010008830E000800000000C7
:10002000000000000000000000000000190E0008A1
:100030008101000800000000ED0D00081D0E000801
:100040001B0100081B0100081B0100081B01000820
:100050001B0100081B0100081B0100081B01000810
:100060001B0100081B0100081B0100081B01000800
:100070001B0100081B0100081B0100081B010008F0
:100080001B0100081B0100081B0100081B010008E0
:100090001B0100081B0100081B0100081B010008D0
:1000A0001B0100081B0100081B0100081B010008C0
:1000B0001B0100081B0100081B0100081B010008B0
:1000C0001B0100081B0100081B0100081B010008A0
:1000D0001B0100081B0100081B0100081B01000890
:1000E0001B0100081B0100081B010008DFF80CD0F1
:1000F00000F032F800480047951600083804002048
:100100000648804706480047FEE7FEE7FEE7FEE7B1
:10011000FEE7FEE7FEE7FEE7FEE7FEE7810E0008EA
:10012000ED000008D2B201E000F8012B491EFBD21D
:1001300070470022F6E710B513460A4604461946F2
:10014000FFF7F0FF204610BD421C10F8011B0029EC
:10015000FBD1801A70470000064C074D06E0E068AE
:1001600040F0010394E8070098471034AC42F6D3FE
:10017000FFF7C0FFF03200081033000800BFFEE7B1
:10018000704772B600BFFEE770B5044600F0AEF9E6
:1001900006462546681C10B104480078054400BF97
:1001A00000F0A4F9801BA842FAD370BD1000002013
:1001B0002DE9F8470346002294466EE14FF001080E
:1001C00008FA02F4D1F8008008EA0400A0427DD1C8
:1001D000DFF8DCA2D1F80480A8EB0A09D0453AD0B8
:1001E00014DCB8F1030F50D009DCB8F1000F31D0A6
:1001F000B8F1010F1CD0B8F1020F49D120E0B8F1DD
:10020000110F18D0B8F1120F42D11EE0B9F5881FB6
:1002100025D006DCB9F5803F20D0B9F5801F37D155
:100220001AE0B9F5001F18D0B9F5041F30D117E056
:10023000D1F80CC02DE0D1F80C8008F1040C28E0B6
:10024000D1F80C8008F1080C23E0D1F80C8008F1FB
:100250000C0C1EE000BF00BF00BF00BF00BF00BF0E
:10026000D1F80880B8F1000F02D14FF0040C0BE078
:10027000D1F80880B8F1010F03D14FF0080C1C61D0
:1002800002E04FF0080C5C6103E04FF0000C00E06E
:1002900000BF00BFFF2801D8984601E003F1040821
:1002A0004646FF2802D84FEA820803E0A2F1080878
:1002B0004FEA88084746D6F800804FF00F0909FA40
:1002C00007F928EA09080CFA07F900E088E048EA8B
:1002D0000908C6F80080D1F8048008F08058B8F109
:1002E000805F7DD100BFDFF8CC81D8F8188048F05E
:1002F0000108DFF8C091C9F81880C846D8F81880FE
:1003000008F00108CDF8008000BF00BF4FEAB938FF
:100310004FEA920958F829504FEA82784FEA187943
:100320004FF00F0808FA09F825EA0805DFF8888178
:10033000434502D14FF0000816E0DFF880814345C5
:1003400002D14FF001080FE0DFF87481434502D17C
:100350004FF0020808E0DFF86C81434502D14FF00E
:10036000030801E04FF004084FEA82794FEA197957
:1003700008FA09F848EA0505DFF84C814FEA9209C6
:1003800048F82950D1F8048008F48038B8F5803F47
:100390000AD1DFF83881D8F8008048EA0008DFF891
:1003A0002C91C9F8008009E0DFF82081D8F800809E
:1003B00028EA0008DFF81491C9F80080D1F8048019
:1003C00008F40038B8F5003F10D1DFF8008108F1DB
:1003D0000408D8F8008048EA0008DFF8F09000E050
:1003E0005AE009F10409C9F800800DE0DFF8DC806B
:1003F00008F10408D8F8008028EA0008DFF8CC905B
:1004000009F10409C9F80080D1F8048008F48018C3
:10041000B8F5801F0ED1DFF8B48008F10808D8F8CD
:10042000008048EA0008DFF8A49009F10809C9F83B
:1004300000800DE0DFF8948008F10808D8F800800B
:1004400028EA0008DFF8849009F10809C9F800805B
:10045000D1F8048008F40018B8F5001F0ED1DFF8B9
:100460006C8008F10C08D8F8008048EA0008DFF832
:100470005C9009F10C09C9F800800DE0DFF84C80B0
:1004800008F10C08D8F8008028EA0008DFF83C9052
:1004900009F10C09C9F80080521CD1F8008028FA33
:1004A00002F8B8F1000F7FF489AEBDE8F8870000CC
:1004B000000011100010024000080140000C014033
:1004C00000100140001401400800014000040140F8
:1004D000024693680B400BB1012000E000207047FA
:1004E0000AB1016101E00B04036170470148006833
:1004F000704700000800002003480068034909789D
:1005000008440149086070470800002010000020DE
:1005100010B50848006840F0100006490860032044
:1005200000F098F8002000F007F800F02BF8002009
:1005300010BD00000020024070B504460E4800784F
:100540004FF47A71B1FBF0F00C490968B1FBF0F59A
:10055000284600F0D5FB08B1012070BD102C07D251
:1005600000222146501E00F037F80548046001E0E3
:100570000120F2E70020F0E7100000201400002026
:100580000C00002008B500BF1148806940F0010050
:100590000F4988610846806900F00100009000BFA3
:1005A00000BF00BF0846C06940F08050C8610846DF
:1005B000C06900F08050009000BF00BF00BF054937
:1005C000486820F0E06040F00070486000BF08BD5F
:1005D00000100240000001402DE9F05F80460D460A
:1005E0001646002700F050FC074639462A46334697
:1005F00001F00700C0F1070ABAF1040F02D94FF069
:10060000040A01E0C0F1070AD14600F1040ABAF178
:10061000070F02D24FF0000A01E0A0F1030AD4460E
:100620004FF0010A0AFA09FAAAF1010A0AEA020AD3
:100630000AFA0CFA4FF0010B0BFA0CFBABF1010BB1
:100640000BEA030B4AEA0B042146404600F024FC67
:10065000BDE8F09F00BF00F00702064B19684FF697
:10066000FF031940044B0B4343EA0221014B19607D
:1006700000BF70470CED00E00000FA0570B50446BD
:100680000D460CB9012070BD5A48006800F0070003
:10069000A8420ED25748006820F007002843554969
:1006A00008600846006800F00700A84201D0012059
:1006B000E9E7207800F0020002281DD1207800F040
:1006C0000400042805D14C48406840F4E0604A49E1
:1006D0004860207800F00800082805D146484068A6
:1006E00040F46050444948604348406820F0F000BE
:1006F000A168084340494860207800F0010078B3C1
:100700006068012806D13C48006800F4003090B9C8
:100710000120B8E76068022806D13748006800F079
:10072000007040B90120AEE73348006800F00200D5
:1007300008B90120A7E73048406820F0030061684D
:1007400008432D494860FFF7D1FE064609E0FFF750
:10075000CDFE801B41F28831884202D9032092E706
:1007600007E02548406800F00C006168B0EB810F9D
:10077000EDD12048006800F00700A8420ED91D48BE
:10078000006820F0070028431A49086008460068FE
:1007900000F00700A84201D0012074E7207800F0A3
:1007A0000400042807D11448406820F4E060E168A0
:1007B000084311494860207800F00800082808D153
:1007C0000D48406820F46050216940EAC1000A49A0
:1007D000486000F019F808494968C1F30311074A55
:1007E000515CC8400649086006480068FFF7A4FE4F
:1007F000002048E70020024000100240591F000876
:10080000140000200C000020F0B585B00FF26C0C35
:100810009CE8E01001A8A0E8E0101CA52D68009558
:1008200000210022002300240020194D696801F0F6
:100830000C05F5B1042D02D0082D19D101E01548A1
:1008400019E001ADC1F38346AC5D01F4803555B1CB
:100850000F4D6D68C5F340451DF805200D4D6543EE
:10086000B5FBF2F302E00C4D04FB05F3184602E081
:1008700000BF084800BF00BF05B0F0BD020304057B
:10088000060708090A0B0C0D0E0F101001020000DC
:100890000010024000127A0000093D00F8B504463D
:1008A0000CB90120F8BD207800F00100002878D0B4
:1008B000F848406800F00C0004280CD0F548406867
:1008C00000F00C00082811D1F248406800F4803094
:1008D000B0F5803F0AD1EF48006800F400300028EE
:1008E0005FD0606800285CD10120DBE700BF606852
:1008F000B0F5803F06D1E748006840F48030E54914
:10090000086028E0606858B9E248006820F4803048
:10091000E04908600846006820F4802008601AE07A
:100920006068B0F5A02F0BD1DA48006840F4802051
:10093000D84908600846006840F4803008600AE042
:10094000D448006820F48030D24908600846006826
:1009500020F48020086000BF606888B1FFF7C6FD02
:10096000054606E0FFF7C2FD401B642801D90320BD
:1009700098E7C848006800F400300028F2D010E082
:10098000FFF7B4FD054606E0FFF7B0FD401B642805
:1009900001D9032086E7BF48006800F40030002832
:1009A000F2D1207800F00200022857D1B9484068FF
:1009B00000F00C0050B1B748406800F00C00082867
:1009C00018D1B448406800F4803098B9B148006844
:1009D00000F0020020B12069012801D0012061E768
:1009E000AC48006820F0F800616940EAC100A949FC
:1009F000086033E02069E8B10120A7490860FFF7EB
:100A000075FD054606E0FFF771FD401B022801D980
:100A1000032047E79F48006800F002000028F2D05A
:100A20009C48006820F0F800616940EAC1009949DB
:100A3000086013E0002098490860FFF757FD05465D
:100A400006E0FFF753FD401B022801D9032029E7E8
:100A50009048006800F002000028F2D1207800F0F1
:100A6000080008282DD1A069B8B101208B49086081
:100A7000FFF73CFD054606E0FFF738FD401B022866
:100A800001D903200EE78348406A00F002000028E5
:100A9000F2D0012000F0ACF913E000207F4908609B
:100AA000FFF724FD054606E0FFF720FD401B022866
:100AB00001D90320F6E67748406A00F002000028DA
:100AC000F2D1207800F00400042873D10027714887
:100AD000C06900F0805070B900BF6E48C06940F036
:100AE00080506C49C8610846C06900F08050009091
:100AF00000BF00BF01276A48006800F48070B0B9E9
:100B00006748006840F4807065490860FFF7EEFCB4
:100B1000054606E0FFF7EAFC401B642801D90320E4
:100B2000C0E65F48006800F480700028F2D000BF83
:100B3000E068012806D15748006A40F00100554995
:100B4000086227E0E06858B95248006A20F00100C6
:100B5000504908620846006A20F00400086219E063
:100B6000E06805280BD14B48006A40F00400494971
:100B700008620846006A40F0010008620AE0454841
:100B8000006A20F00100434908620846006A20F02C
:100B90000400086200BFE068A0B1FFF7A7FC0546AB
:100BA00009E0FFF7A3FC401B41F28831884202D9DB
:100BB000032077E622E03748006A00F002000028B0
:100BC000EFD012E0FFF792FC054608E0FFF78EFC3D
:100BD000401B41F28831884201D9032062E62D484A
:100BE000006A00F002000028F0D1012F05D1294849
:100BF000C06920F080502749C86100BFE069C8B3D0
:100C00002448406800F00C00082860D0E069022801
:100C100048D1002020490866FFF768FC054606E039
:100C2000FFF764FC401B022801D903203AE619486B
:100C3000006800F000700028F2D1206AB0F5803F13
:100C400007D11448406820F40030A16808431149D6
:100C50004860D4E9080108430E49496821F4741139
:100C600008430C49486001200B490866FFF73EFC29
:100C7000054607E03DE0FFF739FC401B022801D99B
:100C800003200FE60348006800F000700028F2D04F
:100C90002FE0000000100240000042428004424267
:100CA00000700040002014490866FFF71FFC05464D
:100CB00006E0FFF71BFC401B022801D90320F1E5E9
:100CC0000E48006800F000700028F2D111E0E069E1
:100CD000012800D1E6E50948466806F48031206A1B
:100CE000814204D106F47011606A814201D0012072
:100CF000D8E50020D6E50000000042420010024086
:100D000070B504462546681EB0F1807F01D30120EE
:100D10000FE0681E4FF0E02148610F214FF0FF30D7
:100D200000F0BAF800204FF0E02188610720086148
:100D3000002070BD00BFFEE700B585B00020019027
:100D400002900390049000BF2348806940F00400A3
:100D5000214988610846806900F00400009000BFC6
:100D600000BF00BF0846806940F00800886108465F
:100D7000806900F00800009000BF00BF0022F02151
:100D80001648FFF7ADFB002203211548FFF7A8FB2B
:100D90000F200190002002900120039001A90F482C
:100DA000FFF706FAF0200190012002900020039046
:100DB0000220049001A90948FFF7FAF903200190E5
:100DC00001200290002003900320049001A9044810
:100DD000FFF7EEF905B000BD001002400008014029
:100DE000000C014000BFFEE700BFFEE770470000B7
:100DF00008B508490968C9084FF47A72B1FBF2F1E5
:100E00004143009100BF00BF00994A1E0092002993
:100E1000F9D108BD140000207047000010B5FFF79D
:100E20006BFB02480068804710BD000004000020F2
:100E300000B58FB0282105A8FFF77BF9142168467B
:100E4000FFF777F9022005900120099010200A9001
:100E500000200C9005A8FFF721FD08B1FFF791F9DC
:100E60000F20009000200190029003900490002138
:100E70006846FFF703FC08B1FFF783F90FB000BD28
:100E8000704700BFFEE7000002480068C0F3022080
:100E9000704700000CED00E010B5002804DB0A07E5
:100EA000130E054A135406E00A07140E034A00F015
:100EB0000F031B1FD45410BD00E400E018ED00E048
:100EC00002E008C8121F08C1002AFAD17047704713
:100ED000002001E001C1121F002AFBD17047000071
:100EE00010B5064800F0B6F90549044800F092F93B
:100EF00010B90348007810BDFF20FCE72C0000204B
:100F000034000020024642FA01F000F001000B1DFF
:100F100042FA03F303F00103184301F1080342FA14
:100F200003F303F00103184301F10C0342FA03F346
:100F300003F00103184308B9012070470020FCE7C3
:100F400010B5FFF7CDFF0149087010BD000000206B
:100F500010B504462078C0F3C10001283BD0022818
:100F600002D003287CD144E0207800F0070001285B
:100F700004D0022810D003282AD11BE04048006882
:100F8000D0F82D0038B13E480068D0F82D003C491B
:100F9000086000F085F91CE039480068D0F8490085
:100FA00038B137480068D0F849003549086000F08A
:100FB00077F90EE032480068D0F8650038B1304863
:100FC0000068D0F865002E49086000F069F900E07B
:100FD00000BF00BF49E02A480068D0F8010038B1DE
:100FE00027480068D0F801002549086000F058F94A
:100FF0003BE0207800F00700012804D0022811D03F
:1010000003282ED11DE01E480068D0F8310040B101
:101010001B49096808781A490968D1F8312019A1D3
:1010200090471FE016480068D0F84D0040B11449C1
:101030000968087812490968D1F84D2013A1904732
:1010400010E00F480068D0F8690040B10C49096809
:1010500008780B490968D1F869200EA1904701E092
:1010600002E000BF00BF00E000BF00BF207800F03A
:1010700007010348006800F011F8002010BD0000CF
:10108000280000206C696E65203100006C696E6577
:10109000203200006C696E652033000070B5044694
:1010A0000D460CB9002070BD601DFFF74DF8C6B2AB
:1010B0003346621D8021084600F074F904F11900DE
:1010C000FFF742F8C6B2334604F1190280218820A6
:1010D00000F068F904F13500FFF736F8C6B2334680
:1010E00004F135028021902000F05CF904F15100F8
:1010F000FFF72AF8C6B2334604F151028021982046
:1011000000F050F904F16D00FFF71EF8C6B2334647
:1011100004F16D028821802000F044F92E46EA1780
:1011200005EB92729210A5EB8202D2008032D0B20F
:10113000AA08D2008032D1B2012302A200F032F913
:101140000020B0E73E00000070B505460C46012DBA
:1011500006D0022D15D0032D24D0042D44D132E029
:101160002046FEF7F1FFC6B2334622468821902082
:1011700000F018F906231EA28821084600F012F993
:1011800033E02046FEF7E0FFC6B233462246882110
:10119000902000F007F9082317A28821084600F0E4
:1011A00001F922E02046FEF7CFFFC6B233462246C1
:1011B0008821902000F0F6F8072312A28821084623
:1011C00000F0F0F811E02046FEF7BEFFC6B233464D
:1011D00022468821902000F0E5F804230BA2882104
:1011E000084600F0DFF800E000BF00BF70BD00005F
:1011F00053656E736F7200004163747561746F7232
:101200000000000053657474696E6700466F6E7469
:10121000000000002DE9F04106460F46002415E0CD
:1012200000250FE0C5F10302D1B236F81400FFF734
:1012300069FE28B105EB840038700020BDE8F0811C
:10124000681CC5B2042DEDDB601CC4B2042CE7DBC6
:101250000120F3E770B5054600261CE00F4931F880
:10126000160000F0EDFD002411E035F814004FF6F3
:10127000FF7101EA400025F81400204600F018FE36
:1012800035F81410084325F81400601CC4B2042C6F
:10129000EBDB701CC6B2042EE0DB70BDDE32000852
:1012A0002DE9F04180268027002411E000250BE085
:1012B0007A19D1B23219D0B200F0DEFD0021084611
:1012C00000F03EFE681CC5B2082DF1D3601CC4B20C
:1012D000202CEBD3002412E000250CE07A19083210
:1012E000D1B23219D0B200F0C7FD0021084600F09B
:1012F00027FE681CC5B2082DF0D3601CC4B2202C98
:10130000EAD30020BDE8F08110B50446F82000F0D3
:10131000EFFD04F0F00000F0EBFD2107080E00F0F7
:10132000E7FD002010BD10B50446FA2000F0E0FDF6
:1013300004F0F00000F0DCFD2107080E00F0D8FDFD
:10134000002010BD10B58020FFF7DEFF0120FFF761
:10135000DBFF142000F0A2FD002010BD10B50C2012
:10136000FFF7D2FF012000F099FD002010BD10B55D
:101370000620FFF7C9FF002010BD10B53620FFF78B
:10138000C3FF002010BD10B53020FFF7BDFF0120C6
:1013900000F084FD3020FFF7B7FF012000F07EFD54
:1013A000002010BD2DE9F84380460D4617461E4625
:1013B00006B117B90120BDE8F8830024BEE0082E6D
:1013C00071D2DFE806F09F9387715A4424044120CC
:1013D00000902819C1B261233A46404600F0DCFB78
:1013E000412000902819401CC1B261233A46404672
:1013F00000F0D2FB412000902819801CC1B261236B
:101400003A46404600F0C8FBF01FC6B295E04120C6
:1014100000902819C1B261233A46404600F026FBED
:10142000412000902819401CC1B261233A46404631
:1014300000F01CFB412000902819801CC1B26123E0
:101440003A46404600F012FBB01FC6B275E041209C
:1014500000902819C1B261233A46404600F086FA4E
:10146000412000902819401CC1B261233A464046F1
:1014700000F07CFA701FC6B25FE04120009028198E
:10148000C1B261233A46404600F0F8F9412000908D
:101490002819401CC1B261233A46404600F0EEF9DB
:1014A000301FC6B249E02DE0412000902819C1B29A
:1014B00061233A46404600F071F941200090281916
:1014C000401CC1B261233A46404600F067F9F01E65
:1014D000C6B232E0412000902819C1B261233A46D9
:1014E000404600F025F9B01EC6B226E0412000902B
:1014F0002819C1B261233A46404600F0F7F8701E41
:10150000C6B21AE02819C1B23A46404600F0ECFBD8
:101510002819401CC1B23A46404600F0E5FB2819A4
:10152000801CC1B23A46404600F0DEFB0837E01CA2
:10153000C4B2A6F10800C6B200BF00BF002E7FF4FF
:101540003EAF002037E710B5642000F0A7FCFFF79E
:101550001AFFFFF7F7FEFFF701FFFFF708FF002074
:1015600010BD70B506460025002418E004F1800186
:10157000C8B2802100F080FC00250CE06A0002EB7C
:101580000412521CB15C6A0002EB0412B05C00F061
:10159000D7FC681CC5B2082DF0D3601CC4B2202C47
:1015A000E4D318E004F16001C8B2882100F064FCC3
:1015B00000250CE06A0002EB0412521CB15C6A00C8
:1015C00002EB0412B05C00F0BBFC681CC5B2082D35
:1015D000F0D3601CC4B2402CE4D3002070BD0000E6
:1015E00010B504462A480078FF284FD028480078D4
:1015F0000B2830D004DC032818D007283DD104E0A4
:101600000E2834D00F2838D12BE02078401C2178C8
:1016100060F302012170207800F00700052804D350
:10162000207820F00700401C207027E02078401E22
:10163000217860F302012170207800F0070020B1CA
:10164000207800F00700052804D3207820F0070058
:10165000001D207012E0207820F018000830207063
:101660000CE0207820F018001030207006E0207880
:1016700020F018001830207000BF00BF00BF2046C7
:10168000FFF766FC207820F018002070002010BDC5
:101690000000002008B5124800F0FAFBFEF738FF02
:1016A000FFF7C6FBFFF748FBFFF74DFFFFF765FEAF
:1016B0000C48FFF756FF4FF47A70FEF765FDFFF711
:1016C000EFFD0948006800906846FFF741FC05E01F
:1016D0006846FFF785FF6420FEF756FDF8E7000037
:1016E000410F0008711F0008581F00082DE9F0473E
:1016F0000546884616461F46DDF82090002410E077
:101700002919C8B2414600F0B7FB3178C91B4944DA
:1017100004EBC101054A505C002100F011FC601C83
:10172000C4B2082CECD30020BDE8F0874C2D000893
:101730002DE9F0478046894615461E46089F00243D
:1017400024E008EB0401C8B2494600F095FB2A7872
:10175000921B3A4404EBC2020F4B9B5C6A78921BCB
:101760003A4404EBC202DFF830C01CF8022043EA1E
:10177000A2106A78921B3A4404EBC20263469A5C58
:101780009206110E00F0DCFB601CC4B2082CD8D30A
:101790000020BDE8F08700004C2D00082DE9F0473F
:1017A0008046894615461E46089F002441E008EB06
:1017B0000401C8B2494600F05FFB2D48007810B123
:1017C000012833D126E06A78921B3A4404EBC20226
:1017D000284B9A5C9300AA78921B3A4404EBC2020D
:1017E000DFF890C01CF8022043EA2212D1B22A7816
:1017F000921B3A4404EBC20263469B5C6A78921BDC
:101800003A4404EBC2021CF8022043EAA21000F0A2
:1018100097FB0BE01849097804EBC101154A515CAC
:101820000907080E002100F08BFB00BF00BF601C01
:10183000C4B2082CBBD30E480078401C0C49087079
:1018400008460078012802D002280CD105E0A878CB
:10185000801B38440849087005E0002004490870DE
:101860000549087000BF00BF0020BDE8F0870000F8
:10187000230000204C2D0008220000202DE9F04715
:101880008046894615461E46089F00244AE008EB1C
:101890000401C8B2494600F0EFFA3148007810B1AF
:1018A00001283CD126E06A78921B3A4404EBC2023C
:1018B0002C4B9A5C9300AA78921B3A4404EBC20228
:1018C000DFF8A0C01CF8022043EA2212D1B22A7825
:1018D000921B3A4404EBC20263469B5C6A78921BFB
:1018E0003A4404EBC2021CF8022043EAA21000F0C2
:1018F00027FB14E01C49097804EBC101194A515C2B
:101900000A01E978891B394404EBC101154B595C84
:1019100042EAA101C8B2002100F012FB00BF00BFE3
:10192000601CC4B2082CB2D30D480078401C0C498E
:10193000087008460078012802D002280CD105E082
:10194000A878801B38440849087005E00020044945
:1019500008700549087000BF00BF0020BDE8F0878F
:10196000210000204C2D0008200000202DE9F04728
:101970008046894615461E46089F002452E008EB23
:101980000401C8B2494600F077FA3548007810B132
:10199000012844D126E06A78921B3A4404EBC20243
:1019A000304B9A5C9300AA78921B3A4404EBC20233
:1019B000DFF8B0C01CF8022043EA2212D1B22A7824
:1019C000921B3A4404EBC20263469B5C6A78921B0A
:1019D0003A4404EBC2021CF8022043EAA21000F0D1
:1019E000AFFA1CE0204A127804EBC2021D4B9A5C4D
:1019F0001301EA78921B3A4404EBC202DFF864C098
:101A00001CF8022043EAA202D0B22A79921B3A447F
:101A100004EBC2026346995C00F092FA00BF00BF7B
:101A2000601CC4B2082CAAD30D480078401C0C4995
:101A3000087008460078012802D002280CD105E081
:101A4000A878801B38440849087005E00020044944
:101A500008700549087000BF00BF0020BDE8F0878E
:101A60001F0000204C2D00081E0000202DE9F0472B
:101A700006460F4615469946DDF82080002461E0B1
:101A80003119C8B2394600F0F7F94048007820B162
:101A9000012825D0022852D145E06A78203A04EB8B
:101AA000C2023B4B9A5C9300AA78203A04EBC20234
:101AB000DFF8DCC01CF8022043EA2212D1B22A78F7
:101AC000203A04EBC20263469B5C6A78203A04EB3E
:101AD000C2021CF8022043EAA21000F031FA2EE004
:101AE0002A79203A04EBC202294B9B5C6A79203A9E
:101AF00004EBC202DFF898C01CF8022043EAA211EE
:101B0000244A127804EBC20263469A5C1301EA7815
:101B1000203A04EBC2021CF8022043EAA202D0B22F
:101B200000F00EFA0BE01B49097804EBC101184ADA
:101B3000515C8906080E002100F002FA00BF00BFC8
:101B4000601CC4B2082C9BD310480078401C0F497D
:101B5000087008460078012804D0022807D003281E
:101B600010D109E0A87820380A4908700AE068799D
:101B700020380849087005E000200449087005492C
:101B8000087000BF00BF0020BDE8F0871D000020E6
:101B90004C2D00081C0000202DE9F04706460F469A
:101BA00015469946DDF82080002472E03119C8B24C
:101BB000394600F061F94948007820B1012825D064
:101BC000022863D145E06A78203A04EBC202444B14
:101BD0009A5C9300AA78203A04EBC202DFF800C1B5
:101BE0001CF8022043EA2212D1B22A78203A04EBF0
:101BF000C20263469B5C6A78203A04EBC2021CF87E
:101C0000022043EAA21000F09BF93FE02A79203A33
:101C100004EBC202324B9B5C6A79203A04EBC202AD
:101C2000DFF8BCC01CF8022043EAA2112D4A12784A
:101C300004EBC20263469A5C1301EA78203A04EB93
:101C4000C2021CF8022043EAA202D0B200F078F9E6
:101C50001CE0244A127804EBC202214B9A5C9300E8
:101C6000AA79203A04EBC202DFF874C01CF8022003
:101C700043EA2212D0B2AA79203A04EBC2026346A8
:101C80009A5C1207110E00F05BF900BF00BF601CE8
:101C9000C4B2082C8AD311480078401C0F49087040
:101CA00008460078012804D0022807D0032810D164
:101CB00009E0A87820380B4908700AE068792038D4
:101CC0000849087005E000200449087005490870BB
:101CD00000BF00BF0020BDE8F08700001B0000200F
:101CE0004C2D00081A0000202DE9F04106460F4651
:101CF000154600247AE03119C8B2394600F0BCF824
:101D00004C48007820B1012825D002286BD145E04D
:101D10006A78203A04EBC202474B9A5C9300AA7897
:101D2000203A04EBC202DFF810C11CF8022043EA9B
:101D30002212D1B22A78203A04EBC20263469B5C9D
:101D40006A78203A04EBC2021CF8022043EAA2108F
:101D500000F0F6F847E02A79203A04EBC202364B4D
:101D60009B5C6A79203A04EBC202DFF8CCC01CF815
:101D7000022043EAA211314A127804EBC202634600
:101D80009A5C1301EA78203A04EBC2021CF80220A4
:101D900043EAA202D0B200F0D3F824E0AA79203AB4
:101DA00004EBC202244B9A5C1301EA79203A04EB5B
:101DB000C202DFF884C01CF8022043EAA202D1B2BA
:101DC0001E4A127804EBC20263469A5C9300AA7919
:101DD000203A04EBC2021CF8022043EA2212D0B2DD
:101DE00000F0AEF800BF00BF601CC4B2082C82D364
:101DF00010480078401C0F490870084600780128F8
:101E000004D0022807D0032810D109E0A878203890
:101E10000A4908700AE0687920380849087005E026
:101E20000020044908700549087000BF00BF002069
:101E3000BDE8F081190000204C2D0008180000209A
:101E400070B50546002600240DE00A4830F814005D
:101E5000A84201D1264604E00121204600F038F8CE
:101E600000BF601CC4B2042CEFDB0021304600F040
:101E70002FF870BDDE32000870B505460C462846C6
:101E8000FFF742FA2046FFF73FFA002070BD00003E
:101E900001490860704700000400002010B50446A6
:101EA0000CB9012010BD2046FEF76EF90020F9E7BD
:101EB00070B504460025044830F814100348FEF7B6
:101EC00007FB0546284670BDE632000800080140C1
:101ED00070B504460D46044830F814102A460348ED
:101EE000FEF7FEFA002070BDDE3200080008014057
:101EF00070B50546002201211048FEF7F1FA0724CB
:101F000018E00120A0402840002801DD012000E069
:101F10000020024602210948FEF7E2FA012211469A
:101F20000648FEF7DDFA002201210448FEF7D8FA40
:101F3000601E44B2002CE4DA002070BD000C0140A9
:101F400070B505460C462846FFF7EDF92046FFF729
:101F5000EAF9002070BD0000010000000000000050
:101F60000001020304060708090000000001020343
:101F7000040000000000000000000000000000005D
:101F80000000000000000000000000000000000051
:101F90000000000000000000000000000000000041
:101FA0000000000000000000000000000000000031
:101FB0000000000000000000000000000000000021
:101FC0000000000000000000000000000000000011
:101FD0000000000000000000000000000000000001
:101FE00000000000000000000000000000000000F1
:101FF00000000000000000000000000000000000E1
:1020000000000000000000000000000000000000D0
:1020100000000000000000000000000000000000C0
:1020200000000000000000000000000000000000B0
:102030000000000000000000E0810000000000003F
:102040000000000000000002E7E0000000000000C7
:102050000000000000000007E467E000000000004E
:102060000000000000000007EFE7E00000000000B3
:102070000000000000000007E7E7E00000000000AB
:102080000000000000000007E7E7E000000000009B
:102090000000000000000027E7E7E000000000006B
:1020A0000000000000000066E7E6E000000000001D
:1020B0000000000000000066E026E40000000000D0
:1020C0000000000000000066E7E6E00000000000FD
:1020D000000000000000006667E6640000000000E9
:1020E00000000000000000666322640000000000A1
:1020F000000000000000006667E6600000000000CD
:10210000000000000000006667E66C0000000000B0
:10211000000000000000006660026C00000000008B
:10212000000000000000006667E66000000000009C
:10213000000000000000006667E664000000000088
:102140000000000000000066600264000000000063
:10215000000000000000006667E66000000000006C
:10216000000000000000007663E660000000000050
:102170000000000000000066200060000000000079
:10218000000000000000006667E66000000000003C
:10219000000000000000007667E664000000000018
:1021A0000000000000000066200060000000000049
:1021B00000000000000000666266200000000000D1
:1021C0000000000000001C76662660000000000091
:1021D000000000000007C42664E660000000000064
:1021E00000000000006001C76006612000000000E0
:1021F000003E00000607F7F767E661E7E000000031
:1022000000FFFC00406607F76006E2606E80000099
:1022100000FFFF001F0017E7E007E3F800F80000E9
:1022200000FFFF034007F7F7E7E7CFFFF00280006A
:1022300000FFFF000777FFF000000FFFFEE0000047
:1022400000FFFF815FFFF7F000000FFFFFE20000DB
:1022500000FFFF0607FFF7F3FFFFCFFFFFE00000DF
:1022600000FFFE035FFFF7F7FFFFEF687FFA000054
:1022700000FFFFBF07FFF7FFFFFFFFFFFE00640047
:1022800000FFFFFF7FFFFFFFFFFFFFFFFFFFFFC01C
:1022900010FFFDFF7FFFFFFFFFFFFFFFFFF5FFF6D2
:1022A0003CFFFFFF7EFFFFFFFFFFBFFFFFFEEF1EB4
:1022B0007FFFFF7E1CF7FFFFFFFFFFF8101DE08090
:1022C00050C00707000000000000000000086FE099
:1022D0000000073C0800000000000000000463C08C
:1022E00000000F1E3C000000000000000006C3F0CC
:1022F00000000FC3C000000000000000000703F84A
:1023000000001FC0C000000000000000000720F80F
:102310000000000020000000000000000001F7386D
:102320000007F007000000000000000000007FFB35
:102330000006801C800000000000000000007FCF2D
:10234000C00000B8000000000000000000001FFFF7
:10235000800007E00000000000000000000007FF10
:10236000000780000000000000000000000000FFE7
:10237000C00000000000000000000000000000009D
:10238000000000000000000000000000000000004D
:10239000000000000000000000000000000000003D
:1023A000000000000000000000000000000000002D
:1023B000000000000000000000000000000000001D
:1023C000000000000000000000000000000000000D
:1023D00000000000000000000000000000000000FD
:1023E00000000000000000000000000000000000ED
:1023F00000000000000000000000000000000000DD
:1024000000000000000000000000000000000000CC
:1024100000000000000000000100000000000000BB
:102420000000000000000000038000000000000029
:1024300000000000000000000B5000000000000041
:1024400000000000000000000E300000000000004E
:102450000000000000000000043800000000000040
:10246000000000000003F00004380007E000000056
:1024700000000000000FC00004000001F000000098
:1024800000000000001F0000000000007C000000B1
:1024900000000000003E0000008000003E00000040
:1024A00000000000007C000000C000001F000000D1
:1024B0000000000000F8000007E400000F800000AA
:1024C0000000000001F0000011CC000007C0000077
:1024D0000000000001E0000021C4000007C000006F
:1024E0000000000003E020006182000003E0000023
:1024F0000000000003E018002184000803E0000051
:102500000000000003C10000118C000041E0000049
:102510000000000003C0200001C0000201E0000034
:102520000000000003C606000180007011E00000FA
:102530000000000003E1C08400000181C1E0000050
:102540000000000003E01C000000001803E0000091
:102550000000000001E3E3F800000FE3E3C0000027
:102560000000000001F03FFF8000FFFE07C00000F8
:102570000000000000F0007FC001FF000F8000009D
:102580000000000000780007C001F0001F000000FC
:1025900000000000007E01FFC001FFC03E000000FF
:1025A00000000000001F01FFC001FFC07C00000010
:1025B00000000000000F81FFC001FFC1F800000013
:1025C000000000000003E3FF8001FFC3E000000003
:1025D000000000000001F8FF8000FF1F80000000E5
:1025E0000000000000003F1F8000F87E0000000097
:1025F0000000000000000FF0000007F800000000DD
:1026000000000000000001FF8001FFC0000000008A
:10261000000000000000000FFFFFF80000000000B5
:1026200000000000000000007FFE0000000000002D
:10263000000000000000000000000000000000009A
:10264000000000000000000000000000000000008A
:10265000000000000000000000000000000000007A
:10266000000000000000000000000000000000006A
:10267000000000000000000000000000000000005A
:10268000000000000C181F0783C70CFFC7F80000EC
:10269000000000001E3871C7C7C70C0E07000000FD
:1026A000000000001E38E004CDC70C0E070000003B
:1026B000000000001FF8E006E9C70C0E07F000005C
:1026C000000000001E38E00679C70C0E070000006D
:1026D000000000001E3871C671C70C0E0700000014
:1026E000000000001E383F0431C1F00E07FC00005E
:1026F00000000000000000000000000000000000DA
:1027000000000000000000000000000000000000C9
:1027100000000000000000000000000000000000B9
:1027200000000000000000000000000000000000A9
:102730000000000000000000000000000000000099
:102740000000000000000000000000000000000089
:102750000000000000000000000000000000000079
:102760000000000000000000000000000000000069
:1027700000FFFFFFFFFFFFFFFFFFFFFFFFFFFFFF68
:10278000FFFFFFFFFFFFFFFFFFFFFFFFFFFFFFFF59
:10279000FFFFFFFFFFFFFFFFFFFFFFFFFFFFFFFF49
:1027A000FFFFFFFFFFFFFFFFFFFFFFFFFFFFFFFF39
:1027B000FFFFFFFFFFFFFFFFFFFFFFFFFFFFFFFF29
:1027C000FFFFFFFFFFFFFFFFFFFFFFFFFFFFFFFF19
:1027D000FFFFFFFFFFFFFFFFFFFFFFFFFFFFFFFF09
:1027E000FFFFFFFFFFFFFF07FFFFFFFFFFFFFFFFF1
:1027F000FFFFFFFFFFFFFC38FFFFFFFFFFFFFFFFB3
:10280000FFFFFFFFFFFFF8E0FFFFFFFFFFFFFFFFFE
:10281000FFFFFFFFFFFFF180FFFFFFFFFFFFFFFF55
:10282000FFFFFFFFFFFFE107FFF9FFFFFFFFFFFFD4
:10283000FFFFFFFFFFFFE21FFFE7FFFFFFFFFFFFBD
:10284000FFFFFFFFFFFFE21BC0CBFFFFFFFFFFFF0C
:10285000FFFFFFFFFFFFC03C000FFFFFFFFFFFFF79
:10286000FFFFFFFFFFFFC07E7F83FFFFFFFFFFFF34
:10287000FFFFFFFFFFFFC47C380007FFFFFFFFFFE4
:10288000FFFFFFFFFFE00CD100000BFFFFFFFFFF8A
:10289000FFFFFFFFFE00F08F80047EFFFFFFFFFFC2
:1028A000FFFFFFFFF807FC7FE007FEFFFFFFFFFFD2
:1028B000FFFFFFFFF807E03FF037F6FFFFFFFFFFE6
:1028C000FFFFFFFFF00F80F003F7F0FFFFFFFFFFB8
:1028D000FFFFFFFFF00C00000FFBE0FFFFFFFFFF1B
:1028E000FFFFFFFFF8F8000027FFE05FFFFFFFFF9B
:1028F000FFFFFFFFFFFDF40003F000000FFFFFFFED
:10290000FFFFFFFFFC78FF0000C00014007FFFFF07
:10291000FFFFFFFFE8087FF3FAC00017C04FFFFF7B
:10292000FFFFFFFF8003FFFFEFC00007F991FFFFEC
:10293000FFFFFFFF000F3FFFF7C8000BFE603FFFE8
:10294000FFFFFFFE031F3FFFFFFA000BFFE407FE40
:102950003FFFFFFE039FFFFFFFFC0013FFF8000196
:10296000FFFFFFFC083FFDF7FFFC0037FFFFEFFF15
:10297000FFFFFFFC002F682C01FC00EFFFFFFFFFB3
:10298000FFFFFFFE00281040051E002000FFFFFF94
:10299000FFFFFFFE07E030000688007FBFFFFFFF5C
:1029A000FFFFFFC003C000800300003FFFFFFFFFE9
:1029B000FFFFFF001FC080C17FC0001FFFFFFFFFA0
:1029C000FFFFFE000FE0887FFF70001FFFFFFFFF8B
:1029D000FFFFFE000FF58E7FE7F8000FFFFFFFFF00
:1029E000FFFFFF000FED0FFFFFFD801FFFFFFFFF49
:1029F000FFFFFFE00F831FFCF000FDFFFFFFFFFF65
:102A0000FFFFFFFFBF811FFFC1F77FFFFFFFFFFF3A
:102A1000FFFFFFFFFFA19FFFCCFDFFFFFFFFFFFFB9
:102A2000FFFFFFFFFFBF3FFFF8FCFFE7FFFFFFFFD8
:102A3000FFFFFFFFFFFE7FFFFF7E07F1FFFFFFFFAE
:102A4000FFFFFFFFFBFCFFFFDDFC03F09FFFFFFF2D
:102A5000FFFFFFFFF3FFFFFFFFF03800F8FFFFFF6E
:102A6000FFFFFFFFF00DFFFFFE03F8027CFFFFFFFB
:102A7000FFFFFFFFF838FFFFFE0FF006FE7FFFFFAE
:102A8000FFFFFFFE003FF7FFFF360003FFFFFFFFE2
:102A9000FFFFFFFF0001E5FFFF801C13FFFFFFFFAB
:102AA000FFFFFFFF03C1F1FFFF801FCBBFFFFFFF51
:102AB000FFFFFFFF8180FFFFFF003FF03FFFFFFFB1
:102AC000FFFFFBFF1001FFFFFE0FFFB07FFFFFFFC7
:102AD000FFFFC000003FFFFFFF0400043FFFFFFFB8
:102AE000FFFE000000EFFF7FFF0004000FFFFFFF6D
:102AF000FFFC0000007FFFFFFE00000007FFFFFF5C
:102B0000FFFC0000407FFFFFFE000C000000000003
:102B100000FC0001FFFFFFFFFE007E000000000040
:102B200000F8003FFFFFFFFFFE1FFFE0080000006E
:102B300000FE00FFFFFFFFFFFF000000000000009D
:102B400000000000FFFFFFFFF00000000000000099
:102B50000000000007FFFFFFFC0000000000000075
:102B600000000000000FFFFCFFC00000000000009C
:102B700000000000000000005F00000003000300F0
:102B8000143E143E14242A7F2A1243330866613609
:102B9000495522500005030000001C22410000415D
:102BA000221C0014083E081408083E080800503093
:102BB00000000808080808006060000020100804F1
:102BC000023E5149453E04027F00004261514946A0
:102BD00022414949361814127F1027454545393E90
:102BE000494949320101710907364949493626499F
:102BF00049493E00363600000056360000081422CF
:102C00004100141414141400412214080201510943
:102C1000063E4159555E7E0909097E7F494949367C
:102C20003E414141227F4141413E7F494949417FE7
:102C3000090909013E4141493A7F0808087F0041DE
:102C40007F4100304040403F7F081422417F404098
:102C500040407F020C027F7F0204087F3E414141D9
:102C60003E7F090909061E2121215E7F0909097697
:102C7000264949493201017F01013F4040403F1F41
:102C80002040201F7F2010207F41221C2241070866
:102C90007008076151494543007F41000002040864
:102CA00010200000417F0004020102044040404027
:102CB00040000102040020545454787F44444438B6
:102CC0003844444444384444447F385454541804E9
:102CD000047E0505085454543C7F080404780044DD
:102CE0007D40002040443D007F1028440000417F8B
:102CF00040007C047804787C080404783844444418
:102D0000387C14141408081414147C007C0804047F
:102D1000485454542004043F44443C4040207C1C0C
:102D20002040201C3C4030403C44281028440C509B
:102D300050503C4464544C44000836414100007FEC
:102D400000004141360800020102040200000000B8
:102D50000000000020202020200020005050000013
:102D6000000000000050F850F85000002078A070DB
:102D700028F02000C8D01020405898006090A04053
:102D8000A890680060204000000000001020404033
:102D90004020100040201010102040000020A8709B
:102DA000A8200000002020F82020000000000000E3
:102DB00060204000000000F800000000000000005B
:102DC000006060000008102040800000708898A813
:102DD000C88870002060A020202020007088081083
:102DE0002040F8007088083008887000103050903B
:102DF000F8101000F880F00808887000708880F0E3
:102E000088887000F80808102020200070888870DA
:102E1000888870007088887808887000006060007A
:102E20006060000000606000602040001020408072
:102E3000402010000000F800F800000040201008BA
:102E4000102040007088081020002000708898A88A
:102E5000B8807800708888F888888800F08888F0C2
:102E60008888F0007088808080887000F08888886A
:102E70008888F000F88080F08080F800F88080F08A
:102E8000808080007088809888887000888888F8A2
:102E900088888800702020202020700008080808FA
:102EA000888870008890A0C0A09088008080808072
:102EB0008080F80088D8A8A88888880088C8A89842
:102EC000888888007088888888887000F08888F0F2
:102ED000808080007088888888700800F08888F07A
:102EE000888888007088807008887000F82020200A
:102EF00020202000888888888888700088888888B2
:102F00008850200088888888A8D888008850202089
:102F1000205088008888885020202000F808102041
:102F20004080F80060404040404060000080402009
:102F300010080000301010101010300020508800D1
:102F400000000000000000000000F8004020100019
:102F50000000000000007008788878008080F08809
:102F60008888F000000078808080780008087888E1
:102F70008888780000007088F88070001820F82099
:102F80002020200000007888780870008080B0C879
:102F900088888800200060202020700010003010F9
:102FA00010906000808090A0C0A090006020202041
:102FB000202070000000D0A8A8A8A8000000B0C879
:102FC0008888880000007088888870000000F08879
:102FD000F0808000000078887808080000005860C1
:102FE00040404000000070807008F0002020F82071
:102FF00020201800000088888898680000008888D1
:103000008850200000008888A8A850000000885040
:103010002050880000008888780870000000F810B0
:103020002040F800182020402020180020202020D8
:1030300020202000C02020102020C00040A8100028
:1030400000000000000000000020202020204D6132
:10305000696E204D656E7500000000000020202084
:1030600053656E736F7200000000000000000000E6
:1030700000C9300008000000002020204163747562
:1030800061746F720000000000000000004E31000B
:10309000080000000020202053657474696E6700EA
:1030A000000000000000000000D331000800000014
:1030B000002020204C696E653300000000000000F5
:1030C0000000000000000000000144300008202043
:1030D00020202053656E736F72204D656E75000061
:1030E000000020202054656D7065726174757265F2
:1030F000000000000000000000004911000820202E
:103100002048756D69646974790000000000000052
:1031100000000000000049110008202020456E63D7
:103120006F646572000000000000000000000000F5
:103130000000491100082020204C696E65203300F2
:103140000000000000000000000000000000024439
:1031500030000820202020204163747561746F7254
:10316000204D656E7500002020204D6F746F720039
:103170000000000000000000000000000000004906
:103180001100082020204C656400000000000000B1
:1031900000000000000000000000004911000820AD
:1031A000202043796C696E646572000000000000A5
:1031B00000000000000000491100082020204C6998
:1031C0006E652033000000000000000000000000D9
:1031D00000000003443000082020202020536574A4
:1031E00074696E67204D656E7500000020202046D2
:1031F0006F6E74000000000000000000000000007E
:103200005832000800000000202020436F6C6F72CD
:1032100000000000000000000000000000000000AE
:10322000000000002020205370656564000000004D
:10323000000000000000000000000000000000008E
:103240002020204C696E6520330000000000000043
:10325000000000000000000004D3310008202020FE
:103260002020466F6E74204D656E750000000000D2
:1032700000202020466F6E745F4368617261637442
:1032800065720000000000000049110008202020A5
:10329000466F6E745F646967697400000000000027
:1032A000000000000049110008202020000000005C
:1032B000000000000000000000000000000000000E
:1032C00000491100082020204C696E652033000061
:1032D00000000000000000000000000000001000DE
:1032E00020004000800001000200040008000000EF
:1032F000103300080000002038000000C00E000855
:10330000483300083800002000040000D00E0008F8
:10331000000100000000000000000000100000009C
:10332000010000000024F400000000000000000084
:10333000000000000000000044300008FFFFFFFF15
:08334000FFFFFFFF0000000089
:04000005080000ED02
:00000001FF
