:020000040800F2
:100000008804002001010008F71300080713000806
:10001000F51300088D0200083315000800000000E9
:10002000000000000000000000000000FB130008BA
:100030003103000800000000F9130008FD13000858
:100040001B0100081B0100081B0100081B01000820
:100050001B0100081B0100081B0100081B01000810
:100060001B0100081B0100081B0100081B01000800
:100070001B0100081B0100081B0100081B010008F0
:100080001B0100081B0100081B0100081B010008E0
:100090001B0100081B0100081B0100081B010008D0
:1000A0001B0100081B0100081B0100081B010008C0
:1000B0001B0100081B010008511400081B01000867
:1000C0001B0100081B0100081B0100081B010008A0
:1000D0001B0100081B0100081B0100081B01000890
:1000E0001B0100081B0100081B010008DFF80CD0F1
:1000F00000F0BAF800480047751500088804002091
:100100000648804706480047FEE7FEE7FEE7FEE7B1
:10011000FEE7FEE7FEE7FEE7FEE7FEE74D14000818
:10012000ED000008D2B201E000F8012B491EFBD21D
:1001300070470022F6E710B513460A4604461946F2
:10014000FFF7F0FF204610BDF0B480EA0102D40FA3
:100150004200B2EB410F02D20246084611464A0065
:1001600042D0C30DDDB2C1F3C752AD1A202D35DA2E
:10017000C1F3160141F4000204B15242C5F1200658
:1001800002FA06F12A411044B3EBD05F23D0C4B188
:10019000012DA0EBC35009DCF0BC4FF0004202EA95
:1001A000C352DBB200F5000000F02FB8400000F1B0
:1001B000807000EBC350A0F1807040EAD17049001C
:1001C00009E0490841EAC071A0EBC35000F5000006
:1001D000400800EBC350F0BC00F00EB861420122B1
:1001E00002EB4101001BF6E7F0BC704781F00041D3
:1001F000AAE780F00040A7E70029A8BF7047401C8D
:10020000490008BF20F00100704710B4B0FA80FC2C
:1002100000FA0CF050EA010404BF10BC704749B169
:10022000CCF1200421FA04F411FA0CF118BF0121D9
:1002300021430843A3EB0C01CB1D4FEA00614FEAB9
:10024000102042BF002010BC704700EBC350104488
:100250000029A4BF10BC7047401C490008BF20F013
:10026000010010BC70470000064C074D06E0E06836
:1002700040F0010394E8070098471034AC42F6D3ED
:10028000FFF738FFC8150008E8150008FEE7000072
:1002900000B58BB0002001210190029008910590DB
:1002A000CDE906010490009003906946024800F0F1
:1002B000B9F80BB0002000BD180000200D4900B5B2
:1002C000087889B0401C08708DF81800012004904F
:1002D000002040F25D6102900091039007AB06AAF6
:1002E0006946054800F039F8002801D072B6FEE7EB
:1002F00009B000BD000000201800002000B589B042
:1003000000208DF818000221029040F25160049103
:100310000391009007AB06AA6946044800F01DF857
:10032000002801D072B6FEE709B000BD1800002019
:10033000704772B6FEE790F82020012A07D0022A03
:1003400005D0416A41F48021416201207047006874
:1003500042690A43426100207047F0B590F820508E
:100360000468A468012D05D0022D03D0416A41F430
:10037000802153E014F0406F01D1E5004BD5C4F368
:100380000164022C03D9416A41F4000146E00125D1
:10039000A5401D608D684FF4C0739DB1CE68354394
:1003A0004E6845EAC605066803EB0417F5514FF49D
:1003B000C275076805EB04150E697E51097D012998
:1003C00005D009E00E88CD6845EA4655EBE701689F
:1003D0004E5946F480764E511179D2F805504FF4BB
:1003E000C67641EA0525016806EB04168D511178A1
:1003F000D2F801204FF4C47541EA0221026805EBEE
:1004000004155151006803EB0411425842F00102F7
:1004100042500020F0BD416A41F4001141620120C8
:10042000F0BD000010B590F820300268012B07D015
:10043000022B05D0416A41F480214162012010BDA8
:10044000D2F8000240F00100C2F80002087D00F07E
:100450001F0301209840D2F81C328343C2F81C329B
:10046000CB69B3B9D2F80C328343C2F80C328C8911
:100470004B6864F31F434C6902EBC404C4F8403278
:100480000C890B6864F31F434C6902EBC404C4F885
:100490004432CB69012B16D1D2F80C320343C2F897
:1004A0000C320C884B6864F31F434C6902EBC404A4
:1004B000C4F840320C89CB6864F31F434C6902EBEB
:1004C000C404C4F844328B69002BD2F804320FD034
:1004D00053EA0003C2F804320B69002BD2F814323D
:1004E00008D00343C2F81432096A012904D008E095
:1004F0008343EFE78343F5E7D2F81C120143C2F8C8
:100500001C12D2F8000220F00100C2F80002002004
:1005100010BD70B5040003D094F8200010B104E0C1
:10052000012070BD204600F081F82068016821F0AC
:100530000201016000F0ECF90546052604E000F038
:10054000E7F9401B0A2811D8206840688007F6D4D4
:100550002068016841F00101016000F0D9F9054609
:100560000BE000F0D5F9401B0A2806D9606A40F478
:100570000030606284F82060D2E720684068C007DD
:10058000EFD0207E0128206801683DD021F0800155
:100590000160607E01282068016838D021F04001A8
:1005A0000160A07E01282068016833D021F020017D
:1005B0000160E07E0128206801682ED041F0100122
:1005C0000160207F01282068016829D021F00801FE
:1005D0000160607F01282068016824D021F00401B7
:1005E0000160D4E902010843D4E90412114308432D
:1005F0006168491E08432168C861002060620120CB
:1006000084F82000002070BD41F08001C0E741F077
:100610004001C5E741F02001CAE721F01001CFE712
:1006200041F00801D4E741F00401D9E710B586B0E4
:1006300000210091019102910391006823498842B1
:1006400042D12348C16941F00071C161C16901F023
:1006500000710491816941F00401816180691D4C40
:1006600000F0040004904FF40060009069462046BA
:1006700000F05EF8A0140090022001900320039087
:100680006946204600F054F800220F21132000F0A4
:10069000ABF900220F21142000F0A6F900220F214F
:1006A000152000F0A1F900220F21162000F09CF97E
:1006B000132000F08BF9142000F088F9152000F0C9
:1006C00085F9162000F082F906B010BD00640040E4
:1006D000001002400008014070B5044690F8200068
:1006E000012804D0606A40F40020606218E0022013
:1006F00084F820002068016821F00101016000F009
:1007000007F905460EE000BF00F002F9401B0A2879
:1007100008D9606A40F400306062052084F8200047
:10072000012070BD20684068C007EDD1606270BDD7
:100730002DE9F84FDFF8B891002409F1040A0AF115
:10074000040B23460F270BF1040EC9E00125A54039
:100750002A40AA427DD1674ED1F804C0ACEB06080E
:10076000B44532D014DCBCF1030F3AD009DCBCF143
:10077000000F2AD0BCF1010F1CD0BCF1020F31D107
:100780001DE0BCF1110F17D0BCF1120F2AD119E0F6
:10079000B8F5881F19D006DCB8F5803F15D0B8F53C
:1007A000801F1FD111E0B8F5001F0ED0B8F5041F4F
:1007B00018D10AE0CB6815E0CB681B1D12E0CB68AE
:1007C00008330FE0CB680C330CE08B682BB1012BA6
:1007D0004FF0080303D0456104E0042302E0056103
:1007E00000E00023FF2A01D8064601E000F10406DC
:1007F0004FEA840501D9A5F12005D6F8008007FA53
:1008000005FC28EA0C0803FA05F548EA0508C6F8CD
:1008100000804D68ED0062D5374DAE6946F00106A7
:10082000AE61AD6924F0030605F001050095334D76
:1008300006EB050CDCF80850A607360F07FA06F899
:1008400025EA0805DFF8B880404503D14FF00008DD
:1008500017E044E0DFF8AC80404502D14FF00108DA
:100860000FE0DFF8A480404502D14FF0020808E015
:10087000DFF89880404502D14FF0030801E04FF0C7
:10088000040808FA06F848EA0508CCF808804D681C
:10089000D9F80060ED034D4601D5164300E09643BC
:1008A0002E604D68DAF80060AD03554601D5164359
:1008B00000E096432E604D68DBF80060ED025D4677
:1008C00001D5164300E096432E604D68DEF80060C7
:1008D000AD02754601D5164300E096432E60641CB8
:1008E0000D682A46E5407FF431AFBDE8F88F00007F
:1008F00000040140000011100010024000000140FF
:1009000000080140000C01400010014000140140AB
:100910000148806870470000080000200248816894
:10092000027811448160704708000020074810B524
:10093000016841F010010160032000F075F800200B
:1009400000F006F800F024F8002010BD002002405E
:1009500070B50D4D04464FF47A712878B1FBF0F074
:100960000A490968B1FBF0F000F0CCFA48B9102C44
:1009700007D200222146501E00F036F800206C609D
:1009800070BD012070BD0000080000201400002090
:100990000C4808B5816941F001018161816901F06C
:1009A00001010091C16941F08051C161C06900F04D
:1009B000805000900448416821F0E06141F00071EE
:1009C000416008BD0010024000000140002809DB22
:1009D00000F01F02012191404009800000F1E02059
:1009E000C0F8001170470000F0B40E4B1B680C46B5
:1009F000C3F30223C3F10705042D00D90425191DF3
:100A0000072901D2002300E0DB1E012606FA05F1CA
:100A1000491E214099409E40761E16403143F0BC4D
:100A200000F088BD0CED00E0064900F00702086800
:100A30004FF6FF03184040EA0220034A10430860C3
:100A4000704700000CED00E00000FA052DE9F047CA
:100A50000F46050061D0434E306800F00700B842F1
:100A600009D2306820F0070038433060306800F069
:100A70000700B84251D128683B4C810712D5400786
:100A800003D5606840F4E06060602878000703D513
:100A9000606840F4605060606068A96820F0F00011
:100AA000084360602878C00728D06868012810D003
:100AB0002168022810D0890700292EDA616821F008
:100AC000030101436160FFF723FF804641F288394B
:100AD0000DE021688903EFE78901EDE7FFF718FFD3
:100AE000A0EB0801494502D90320BDE8F087606802
:100AF000696800F00C00B0EB810FEFD1306800F0B6
:100B00000700B8420BD9306820F007003843306046
:100B1000306800F00700B84201D00120E5E72878EE
:100B2000400705D56068E96820F4E060084360602C
:100B30002878000706D56068296920F4605040EAEB
:100B4000C100606000F018F86168084AC1F3031141
:100B5000515CC8400649086006480068FFF7F8FE87
:100B60000020C2E70020024000100240B815000833
:100B7000140000200C00002012A185B00FC98DE8E0
:100B80000F0014A0144A006804905168134801F043
:100B90000C03042B10D0082B0ED1C1F38343C903DF
:100BA0001DF803000AD5516804AAC1F34041515C05
:100BB0000A4A5043B0FBF1F005B07047084948437A
:100BC000FAE7000002030405060708090A0B0C0DEA
:100BD0000E0F1010010200000010024000127A00F7
:100BE00000093D002DE9F84F040070D02078C04D79
:100BF000C00749D06868C0F38100012807D0686841
:100C0000C0F38100022809D16868C00306D52868AE
:100C1000800339D560680028E7D035E06068B0F51A
:100C2000803F0BD010B1B0F5A02F11D0286820F470
:100C300080302860286820F4802002E0286840F492
:100C400080302860606890B1FFF762FE06460AE0D7
:100C5000286840F480202860F0E700BFFFF758FEC6
:100C6000801B642873D828688003F7D50CE0FFF751
:100C70004FFE064605E000BFFFF74AFE801B6428D2
:100C8000F0D828688003F7D420789A4E80074FF078
:100C900001094FF0000839D5686810F00C0F07D033
:100CA0006868C0F38100022809D16868C00306D4CF
:100CB0002868800714D52069012808D110E0206930
:100CC000B0B1C6F80090FFF723FE074605E00AE141
:100CD000FFF71EFEC01B0228C4D828688007F7D57E
:100CE0002868616920F0F80040EAC10028600DE042
:100CF000C6F80080FFF70CFE074604E0FFF708FE89
:100D0000C01B022823D828688007F7D42078000762
:100D10002CD57948A169D9B1C0F80090FFF7F8FD4A
:100D2000074604E0FFF7F4FDC01B02280FD8686AED
:100D30008007F7D571484FF4FA510068B0FBF1F025
:100D4000009000BF0098411E0091FAD20EE080E0B2
:100D5000C0F80080FFF7DCFD074604E0FFF7D8FD90
:100D6000C01B022875D8686A8007F7D4207840072E
:100D700060D5E8690027C00008D4E86940F08050D9
:100D8000E861E869012700F0805000905C48016844
:100D9000C90513D40168834641F480710160FFF7EF
:100DA000B7FD824606E000BFFFF7B2FDA0EB0A00E8
:100DB00064284ED8DBF80000C005F5D5E0680128AE
:100DC0000AD008B1052813D0286A20F00100286253
:100DD000286A20F0040002E0286A40F0010028623E
:100DE000E06841F2883B98B1FFF792FD82460BE044
:100DF000286A40F004002862EEE700BFFFF788FD94
:100E0000A0EB0A0159455AD8286A8007F6D50CE0AC
:100E1000FFF77EFD824605E0FFF77AFDA0EB0A01B1
:100E200059454CD8286A8007F6D41FB1E86920F0EC
:100E30008050E861E06988B36968C1F381010229E3
:100E400044D00228C6F8608004D0FFF761FD044654
:100E500038E034E0FFF75CFD074604E0FFF758FD9B
:100E6000C01B02282BD828688001F7D4206AB0F56F
:100E7000803F05D16868A16820F4003008436860AD
:100E8000D4E908010843696821F4741108436860D3
:100E9000C6F86090FFF73CFD044606E025E000BF81
:100EA000FFF736FD001B022809D828688001F7D516
:100EB0001BE000BFFFF72CFD001B022802D9032016
:100EC000BDE8F88F28688001F4D40EE00128F7D03F
:100ED0006868226A00F48031914204D1616A00F4AA
:100EE0007010884201D00120EAE70020E8E7000006
:100EF00000100240000042428004424214000020E0
:100F00000070004010B5401EB0F1807F01D3012079
:100F100010BD4FF0E02460610F21601700F00AFB64
:100F20000020A06107202061002010BD704770479D
:100F300070B590F83C20012A26D0012480F83C406E
:100F4000022280F83D2003685A689D6822F07006EE
:100F50000A6832435A600D4B02689A4208D0B2F1D7
:100F6000804F05D00A4B9A4202D00A4B9A4204D1D4
:100F7000496825F080031943916080F83D400021C5
:100F800080F83C10084670BD022070BD002C014066
:100F9000000400400008004010B5040003D094F89D
:100FA0003D0010B107E0012010BD002084F83C0096
:100FB000204600F01FF8022084F83D00211D206823
:100FC00000F04CFA012084F8460084F83E0084F8D2
:100FD0003F0084F8400084F8410084F8420084F81F
:100FE000430084F8440084F8450084F83D00002064
:100FF00010BD000008B500680B49884212D10B48AB
:10100000C16941F00401C161C069002200F004001F
:1010100000900F211E20FFF7E7FCBDE808401E20CE
:10102000FFF7D4BC08BD00000008004000100240DB
:1010300090F83D10012901D001207047022180F86D
:101040003D100168CA6842F00102CA6000680B499D
:10105000884208D0B0F1804F05D00949884202D0BB
:101060000849884204D1816801F00701062903D0AC
:10107000016841F00101016000207047002C01402F
:10108000000400400008004070B5044690F83C00A1
:10109000012817D0012584F83C50022084F83D0037
:1010A0002068826822F0770222F47F42826008681A
:1010B000502830D00DDC20284DD005DC98B3102806
:1010C0003BD148E0022070BD302844D0402834D1C4
:1010D00039E0602828D0702806D0B0F5805F2CD089
:1010E000B0F5005F29D10AE0CB68D1E90121206881
:1010F00000F0EAF92068816841F0770109E0CB68E7
:10110000D1E90121206800F0DFF92068816841F40D
:101110008041816011E0CA684968206800F0E6F902
:101120005021206807E016E0CA684968206800F08E
:10113000EEF96021206800F0D1F984F83D500020DC
:1011400084F83C0070BDCA684968206800F0CEF998
:1011500040212068EFE7226801461046EBE7704720
:1011600070B50446006801694FF00005C94389075E
:1011700015D4C168C943890711D4E91E0161012052
:101180002077206880698007204602D0FFF7E7FFBC
:1011900004E000F098F8204600F096F825772068E3
:1011A0000169C943490717D4C168C943490713D422
:1011B0006FF004010161022020772068806910F43B
:1011C000407F204602D0FFF7CAFF04E000F07BF822
:1011D000204600F079F8257720680169C94309079E
:1011E00016D4C168C943090712D46FF00801016120
:1011F000042020772068C0698007204602D0FFF7CE
:10120000AEFF04E000F05FF8204600F05DF82577BF
:1012100020680169C943C90617D4C168C943C90612
:1012200013D46FF010010161082020772068C06995
:1012300010F4407F204602D0FFF791FF04E000F059
:1012400042F8204600F040F8257720680169C9433C
:10125000C90708D1C168C943C90704D1891E016102
:10126000204600F033F820680169C943090609D413
:10127000C168C943090605D46FF0800101612046A9
:10128000FFF754FE20680169C943490609D4C168C3
:10129000C943490605D46FF040010161204600F0C2
:1012A00031F820680169C94389060BD4C168C94374
:1012B000890607D46FF0200101612046BDE8704027
:1012C000FFF735BE70BD7047704700000B4910B581
:1012D000884212D10A4C4FF07E516068FEF734FF0D
:1012E00060606068B0F1814F03D0BDE81040FEF748
:1012F000E5BFBDE81040FFF701B810BD4000002079
:10130000000000207047FEE7104810B50E4901604C
:101310000521416000214FF440228160C0E90312A1
:101320004FF4801242610176012242768176C276C4
:1013300001774177FFF7EDF8002803D0BDE81040B2
:10134000FEF7F7BF10BD0000006400401800002049
:101350000D4808B5816941F010018161816901F092
:1013600010010091816941F020018161816901F0E2
:1013700020010091816941F004018161806900F0E0
:101380000400009008BD00000010024010B586B0B7
:101390000024174800940194029403940494134980
:1013A0000594016041F63F71C0E90114C910C0E91C
:1013B00003148461FFF7F0FD08B1FEF7BAFF4FF4A4
:1013C0008050009069460A48FFF75EFE08B1FEF7BC
:1013D000B0FF049404A906480594FFF7A9FD00286E
:1013E00001D0FEF7A6FF06B010BD000000080040C7
:1013F00040000020FEE7FEE770477047FFF78EBA17
:1014000030B58FB028216846FEF793FE14210AA854
:10141000FEF78FFE01252804CDE900500024079433
:101420006846FFF7DFFB08B172B6FEE70F200A90AF
:10143000CDE90B540D9400210AA80E94FFF706FB8A
:10144000002801D072B6FEE70FB030BD7047000033
:101450000148FFF785BE000040000020F0B502689B
:10146000164B174C174D4FF08047984205D0B842A5
:1014700003D0A04201D0A84203D122F070064A68EE
:101480003243984205D0B84203D0A04201D0A842CE
:1014900003D122F44074CA6822434C6922F08002CE
:1014A000224302608A68C2620A688262984201D15D
:1014B0000969016301214161F0BD0000002C014078
:1014C000000400400008004010B5846842EA03228E
:1014D00024F47F440A432243826010BD826822F0D4
:1014E00070020A4342F007018160704710B5036A39
:1014F000046A24F001040462846924F0F00444EADC
:10150000021423F00A020A438461026210BD10B57E
:10151000036A23F0100303628369046A23F47043AF
:1015200043EA023224F0A00343EA0111826101621E
:1015300010BDFEE70907090E002804DB00F1E020DA
:1015400080F80014704700F00F0000F1E02080F8F0
:10155000141D704702E008C8121F08C1002AFAD102
:1015600070477047002001E001C1121F002AFBD123
:1015700070470000FFF7DAF9FFF742FFFFF7E8FED8
:10158000FFF7C2FEFFF702FF0948FFF751FDFEF724
:101590007FFE40F203410748FEF7CDFE08B172B668
:1015A000FEE70448FFF798F808B172B6FEE7FEE7D9
:1015B0004000002018000020000000000000000093
:1015C0000102030406070809E815000800000020CE
:1015D000180000005415000800160008180000202C
:1015E0007004000064150008000000000000000006
:1015F0000100000010000000000000000024F400C2
:04000005080000ED02
:00000001FF
